{
  "_format": "hh-sol-artifact-1",
  "contractName": "Airdrop",
  "sourceName": "contracts/Airdrop.sol",
  "abi": [
    {
      "inputs": [
        {
          "internalType": "address",
          "name": "_token",
          "type": "address"
        },
        {
          "internalType": "address",
          "name": "_vesting",
          "type": "address"
        },
        {
          "internalType": "address",
          "name": "_treasury",
          "type": "address"
        },
        {
          "internalType": "address",
          "name": "_gov",
          "type": "address"
        }
      ],
      "stateMutability": "nonpayable",
      "type": "constructor"
    },
    {
      "inputs": [],
      "name": "AccessControlBadConfirmation",
      "type": "error"
    },
    {
      "inputs": [
        {
          "internalType": "address",
          "name": "account",
          "type": "address"
        },
        {
          "internalType": "bytes32",
          "name": "neededRole",
          "type": "bytes32"
        }
      ],
      "name": "AccessControlUnauthorizedAccount",
      "type": "error"
    },
    {
      "inputs": [],
      "name": "AlreadyClaimed",
      "type": "error"
    },
    {
      "inputs": [],
      "name": "DeadlinePassed",
      "type": "error"
    },
    {
      "inputs": [],
      "name": "EnforcedPause",
      "type": "error"
    },
    {
      "inputs": [],
      "name": "ExceedsCap",
      "type": "error"
    },
    {
      "inputs": [],
      "name": "ExpectedPause",
      "type": "error"
    },
    {
      "inputs": [],
      "name": "Finalized",
      "type": "error"
    },
    {
      "inputs": [],
      "name": "InsufficientVestingBalance",
      "type": "error"
    },
    {
      "inputs": [],
      "name": "InvalidAmount",
      "type": "error"
    },
    {
      "inputs": [],
      "name": "InvalidProof",
      "type": "error"
    },
    {
      "inputs": [],
      "name": "NotActive",
      "type": "error"
    },
    {
      "inputs": [],
      "name": "NotFinalized",
      "type": "error"
    },
    {
      "inputs": [],
      "name": "NothingToReclaim",
      "type": "error"
    },
    {
      "inputs": [],
      "name": "ReentrancyGuardReentrantCall",
      "type": "error"
    },
    {
      "inputs": [],
      "name": "RootNotSet",
      "type": "error"
    },
    {
      "inputs": [
        {
          "internalType": "address",
          "name": "token",
          "type": "address"
        }
      ],
      "name": "SafeERC20FailedOperation",
      "type": "error"
    },
    {
      "inputs": [],
      "name": "Unauthorized",
      "type": "error"
    },
    {
      "inputs": [],
      "name": "ZeroAddress",
      "type": "error"
    },
    {
      "anonymous": false,
      "inputs": [
        {
          "indexed": false,
          "internalType": "uint256",
          "name": "timestamp",
          "type": "uint256"
        }
      ],
      "name": "AirdropFinalized",
      "type": "event"
    },
    {
      "anonymous": false,
      "inputs": [
        {
          "indexed": false,
          "internalType": "address",
          "name": "user",
          "type": "address"
        },
        {
          "indexed": false,
          "internalType": "uint256",
          "name": "amount",
          "type": "uint256"
        }
      ],
      "name": "Claimed",
      "type": "event"
    },
    {
      "anonymous": false,
      "inputs": [
        {
          "indexed": false,
          "internalType": "address",
          "name": "account",
          "type": "address"
        }
      ],
      "name": "Paused",
      "type": "event"
    },
    {
      "anonymous": false,
      "inputs": [
        {
          "indexed": true,
          "internalType": "bytes32",
          "name": "role",
          "type": "bytes32"
        },
        {
          "indexed": true,
          "internalType": "bytes32",
          "name": "previousAdminRole",
          "type": "bytes32"
        },
        {
          "indexed": true,
          "internalType": "bytes32",
          "name": "newAdminRole",
          "type": "bytes32"
        }
      ],
      "name": "RoleAdminChanged",
      "type": "event"
    },
    {
      "anonymous": false,
      "inputs": [
        {
          "indexed": true,
          "internalType": "bytes32",
          "name": "role",
          "type": "bytes32"
        },
        {
          "indexed": true,
          "internalType": "address",
          "name": "account",
          "type": "address"
        },
        {
          "indexed": true,
          "internalType": "address",
          "name": "sender",
          "type": "address"
        }
      ],
      "name": "RoleGranted",
      "type": "event"
    },
    {
      "anonymous": false,
      "inputs": [
        {
          "indexed": true,
          "internalType": "bytes32",
          "name": "role",
          "type": "bytes32"
        },
        {
          "indexed": true,
          "internalType": "address",
          "name": "account",
          "type": "address"
        },
        {
          "indexed": true,
          "internalType": "address",
          "name": "sender",
          "type": "address"
        }
      ],
      "name": "RoleRevoked",
      "type": "event"
    },
    {
      "anonymous": false,
      "inputs": [
        {
          "indexed": false,
          "internalType": "bytes32",
          "name": "root",
          "type": "bytes32"
        },
        {
          "indexed": false,
          "internalType": "uint256",
          "name": "start",
          "type": "uint256"
        },
        {
          "indexed": false,
          "internalType": "uint256",
          "name": "end",
          "type": "uint256"
        },
        {
          "indexed": false,
          "internalType": "uint256",
          "name": "cap",
          "type": "uint256"
        }
      ],
      "name": "RootSet",
      "type": "event"
    },
    {
      "anonymous": false,
      "inputs": [
        {
          "indexed": false,
          "internalType": "address",
          "name": "treasury",
          "type": "address"
        }
      ],
      "name": "TreasuryUpdated",
      "type": "event"
    },
    {
      "anonymous": false,
      "inputs": [
        {
          "indexed": false,
          "internalType": "address",
          "name": "account",
          "type": "address"
        }
      ],
      "name": "Unpaused",
      "type": "event"
    },
    {
      "anonymous": false,
      "inputs": [
        {
          "indexed": false,
          "internalType": "uint256",
          "name": "amount",
          "type": "uint256"
        }
      ],
      "name": "UnsoldReclaimed",
      "type": "event"
    },
    {
      "anonymous": false,
      "inputs": [
        {
          "indexed": false,
          "internalType": "address",
          "name": "vesting",
          "type": "address"
        }
      ],
      "name": "VestingUpdated",
      "type": "event"
    },
    {
      "inputs": [],
      "name": "DEFAULT_ADMIN_ROLE",
      "outputs": [
        {
          "internalType": "bytes32",
          "name": "",
          "type": "bytes32"
        }
      ],
      "stateMutability": "view",
      "type": "function"
    },
    {
      "inputs": [],
      "name": "GOVERNANCE_LOCK",
      "outputs": [
        {
          "internalType": "uint256",
          "name": "",
          "type": "uint256"
        }
      ],
      "stateMutability": "view",
      "type": "function"
    },
    {
      "inputs": [],
      "name": "GOVERNANCE_ROLE",
      "outputs": [
        {
          "internalType": "bytes32",
          "name": "",
          "type": "bytes32"
        }
      ],
      "stateMutability": "view",
      "type": "function"
    },
    {
      "inputs": [],
      "name": "MAX_WINDOW_EXTENSION",
      "outputs": [
        {
          "internalType": "uint256",
          "name": "",
          "type": "uint256"
        }
      ],
      "stateMutability": "view",
      "type": "function"
    },
    {
      "inputs": [],
      "name": "OPERATOR_ROLE",
      "outputs": [
        {
          "internalType": "bytes32",
          "name": "",
          "type": "bytes32"
        }
      ],
      "stateMutability": "view",
      "type": "function"
    },
    {
      "inputs": [
        {
          "internalType": "uint256",
          "name": "amount",
          "type": "uint256"
        },
        {
          "internalType": "bytes32[]",
          "name": "proof",
          "type": "bytes32[]"
        }
      ],
      "name": "claim",
      "outputs": [],
      "stateMutability": "nonpayable",
      "type": "function"
    },
    {
      "inputs": [],
      "name": "claimEnd",
      "outputs": [
        {
          "internalType": "uint256",
          "name": "",
          "type": "uint256"
        }
      ],
      "stateMutability": "view",
      "type": "function"
    },
    {
      "inputs": [],
      "name": "claimStart",
      "outputs": [
        {
          "internalType": "uint256",
          "name": "",
          "type": "uint256"
        }
      ],
      "stateMutability": "view",
      "type": "function"
    },
    {
      "inputs": [
        {
          "internalType": "address",
          "name": "",
          "type": "address"
        }
      ],
      "name": "claimed",
      "outputs": [
        {
          "internalType": "bool",
          "name": "",
          "type": "bool"
        }
      ],
      "stateMutability": "view",
      "type": "function"
    },
    {
      "inputs": [],
      "name": "finalize",
      "outputs": [],
      "stateMutability": "nonpayable",
      "type": "function"
    },
    {
      "inputs": [],
      "name": "finalized",
      "outputs": [
        {
          "internalType": "bool",
          "name": "",
          "type": "bool"
        }
      ],
      "stateMutability": "view",
      "type": "function"
    },
    {
      "inputs": [
        {
          "internalType": "bytes32",
          "name": "role",
          "type": "bytes32"
        }
      ],
      "name": "getRoleAdmin",
      "outputs": [
        {
          "internalType": "bytes32",
          "name": "",
          "type": "bytes32"
        }
      ],
      "stateMutability": "view",
      "type": "function"
    },
    {
      "inputs": [
        {
          "internalType": "bytes32",
          "name": "role",
          "type": "bytes32"
        },
        {
          "internalType": "address",
          "name": "account",
          "type": "address"
        }
      ],
      "name": "grantRole",
      "outputs": [],
      "stateMutability": "nonpayable",
      "type": "function"
    },
    {
      "inputs": [
        {
          "internalType": "bytes32",
          "name": "role",
          "type": "bytes32"
        },
        {
          "internalType": "address",
          "name": "account",
          "type": "address"
        }
      ],
      "name": "hasRole",
      "outputs": [
        {
          "internalType": "bool",
          "name": "",
          "type": "bool"
        }
      ],
      "stateMutability": "view",
      "type": "function"
    },
    {
      "inputs": [],
      "name": "maxAllocation",
      "outputs": [
        {
          "internalType": "uint256",
          "name": "",
          "type": "uint256"
        }
      ],
      "stateMutability": "view",
      "type": "function"
    },
    {
      "inputs": [],
      "name": "merkleRoot",
      "outputs": [
        {
          "internalType": "bytes32",
          "name": "",
          "type": "bytes32"
        }
      ],
      "stateMutability": "view",
      "type": "function"
    },
    {
      "inputs": [],
      "name": "pause",
      "outputs": [],
      "stateMutability": "nonpayable",
      "type": "function"
    },
    {
      "inputs": [],
      "name": "paused",
      "outputs": [
        {
          "internalType": "bool",
          "name": "",
          "type": "bool"
        }
      ],
      "stateMutability": "view",
      "type": "function"
    },
    {
      "inputs": [],
      "name": "reclaimUnsold",
      "outputs": [],
      "stateMutability": "nonpayable",
      "type": "function"
    },
    {
      "inputs": [
        {
          "internalType": "bytes32",
          "name": "role",
          "type": "bytes32"
        },
        {
          "internalType": "address",
          "name": "callerConfirmation",
          "type": "address"
        }
      ],
      "name": "renounceRole",
      "outputs": [],
      "stateMutability": "nonpayable",
      "type": "function"
    },
    {
      "inputs": [
        {
          "internalType": "bytes32",
          "name": "role",
          "type": "bytes32"
        },
        {
          "internalType": "address",
          "name": "account",
          "type": "address"
        }
      ],
      "name": "revokeRole",
      "outputs": [],
      "stateMutability": "nonpayable",
      "type": "function"
    },
    {
      "inputs": [
        {
          "internalType": "bytes32",
          "name": "_root",
          "type": "bytes32"
        },
        {
          "internalType": "uint256",
          "name": "_start",
          "type": "uint256"
        },
        {
          "internalType": "uint256",
          "name": "_end",
          "type": "uint256"
        },
        {
          "internalType": "uint256",
          "name": "_cap",
          "type": "uint256"
        }
      ],
      "name": "setMerkleRoot",
      "outputs": [],
      "stateMutability": "nonpayable",
      "type": "function"
    },
    {
      "inputs": [],
      "name": "startTime",
      "outputs": [
        {
          "internalType": "uint256",
          "name": "",
          "type": "uint256"
        }
      ],
      "stateMutability": "view",
      "type": "function"
    },
    {
      "inputs": [
        {
          "internalType": "bytes4",
          "name": "interfaceId",
          "type": "bytes4"
        }
      ],
      "name": "supportsInterface",
      "outputs": [
        {
          "internalType": "bool",
          "name": "",
          "type": "bool"
        }
      ],
      "stateMutability": "view",
      "type": "function"
    },
    {
      "inputs": [],
      "name": "token",
      "outputs": [
        {
          "internalType": "contract IERC20",
          "name": "",
          "type": "address"
        }
      ],
      "stateMutability": "view",
      "type": "function"
    },
    {
      "inputs": [],
      "name": "totalAllocated",
      "outputs": [
        {
          "internalType": "uint256",
          "name": "",
          "type": "uint256"
        }
      ],
      "stateMutability": "view",
      "type": "function"
    },
    {
      "inputs": [],
      "name": "treasury",
      "outputs": [
        {
          "internalType": "address",
          "name": "",
          "type": "address"
        }
      ],
      "stateMutability": "view",
      "type": "function"
    },
    {
      "inputs": [],
      "name": "unpause",
      "outputs": [],
      "stateMutability": "nonpayable",
      "type": "function"
    },
    {
      "inputs": [
        {
          "internalType": "address",
          "name": "_t",
          "type": "address"
        }
      ],
      "name": "updateTreasury",
      "outputs": [],
      "stateMutability": "nonpayable",
      "type": "function"
    },
    {
      "inputs": [
        {
          "internalType": "address",
          "name": "_v",
          "type": "address"
        }
      ],
      "name": "updateVesting",
      "outputs": [],
      "stateMutability": "nonpayable",
      "type": "function"
    },
    {
      "inputs": [],
      "name": "vesting",
      "outputs": [
        {
          "internalType": "contract IVesting",
          "name": "",
          "type": "address"
        }
      ],
      "stateMutability": "view",
      "type": "function"
    }
  ],
  "bytecode": "0x60c060405234801561000f575f5ffd5b506040516116a23803806116a283398101604081905261002e9161020f565b60017f9b779b17422d0df92223018b32b4d1fa46e071723d6817e2486d003becc55f00556001600160a01b038416158061006f57506001600160a01b038316155b8061008157506001600160a01b038116155b1561009f5760405163d92e233d60e01b815260040160405180910390fd5b6001600160a01b0384811660805260018054610100600160a81b03191661010086841602179055600280546001600160a01b0319169184169190911790554260a0526100eb5f8261014b565b506101167f71840dc4906352362b0cdaf79870196c8e42acafade72d5d5a6d59291253ceb18261014b565b506101417f97667070c54ef182b0f5858b034beac1b6f3089aa2d3188bb1e8929f4fa9b9298261014b565b5050505050610260565b5f828152602081815260408083206001600160a01b038516845290915281205460ff166101eb575f838152602081815260408083206001600160a01b03861684529091529020805460ff191660011790556101a33390565b6001600160a01b0316826001600160a01b0316847f2f8788117e7eff1d82e926ec794901d17c78024a50270940304540a733656f0d60405160405180910390a45060016101ee565b505f5b92915050565b80516001600160a01b038116811461020a575f5ffd5b919050565b5f5f5f5f60808587031215610222575f5ffd5b61022b856101f4565b9350610239602086016101f4565b9250610247604086016101f4565b9150610255606086016101f4565b905092959194509250565b60805160a05161140c6102965f395f61030301525f8181610414015281816104d90152818161057d0152610ea7015261140c5ff3fe608060405234801561000f575f5ffd5b50600436106101dc575f3560e01c806378e9792511610109578063c884ef831161009e578063f36c8f5c1161006e578063f36c8f5c146103d4578063f5b541a6146103e8578063fc0c546a1461040f578063fced687d14610242575f5ffd5b8063c884ef8314610383578063d547741f146103a5578063e4214471146103b8578063f04d688f146103cb575f5ffd5b806391d14854116100d957806391d14854146103535780639b3ba79f14610366578063a217fddf1461036f578063b3f05b9714610376575f5ffd5b806378e97925146102fe5780637f51bb1f14610325578063833d47b6146103385780638456cb591461034b575f5ffd5b806336568abe1161017f57806345f7f2491161014f57806345f7f249146102cf5780634bb278f3146102d85780635c975abb146102e057806361d027b3146102eb575f5ffd5b806336568abe1461027b5780633ccfa92f1461028e5780633f4ba83a1461029757806344c63eec1461029f575f5ffd5b806327c91e10116101ba57806327c91e10146102425780632eb4a7ab1461024c5780632f2ff15d146102555780632f52ebb714610268575f5ffd5b806301ffc9a7146101e0578063155af54214610208578063248a9ca314610212575b5f5ffd5b6101f36101ee36600461120c565b610436565b60405190151581526020015b60405180910390f35b61021061046c565b005b610234610220366004611233565b5f9081526020819052604090206001015490565b6040519081526020016101ff565b61023462ed4e0081565b61023460035481565b610210610263366004611265565b6105dd565b61021061027636600461128f565b610607565b610210610289366004611265565b6108c8565b61023460055481565b6102106108fb565b6001546102b79061010090046001600160a01b031681565b6040516001600160a01b0390911681526020016101ff565b61023460075481565b610210610938565b60015460ff166101f3565b6002546102b7906001600160a01b031681565b6102347f000000000000000000000000000000000000000000000000000000000000000081565b610210610333366004611309565b6109f8565b610210610346366004611322565b610ac4565b610210610be8565b6101f3610361366004611265565b610c23565b61023460065481565b6102345f81565b6009546101f39060ff1681565b6101f3610391366004611309565b60086020525f908152604090205460ff1681565b6102106103b3366004611265565b610c4b565b6102106103c6366004611309565b610c6f565b61023460045481565b6102345f5160206113b75f395f51905f5281565b6102347f97667070c54ef182b0f5858b034beac1b6f3089aa2d3188bb1e8929f4fa9b92981565b6102b77f000000000000000000000000000000000000000000000000000000000000000081565b5f6001600160e01b03198216637965db0b60e01b148061046657506301ffc9a760e01b6001600160e01b03198316145b92915050565b6104835f5160206113b75f395f51905f5233610c23565b61049f576040516282b42960e81b815260040160405180910390fd5b60095460ff166104c257604051630df706ad60e11b815260040160405180910390fd5b6040516370a0823160e01b81523060048201525f907f00000000000000000000000000000000000000000000000000000000000000006001600160a01b0316906370a0823190602401602060405180830381865afa158015610526573d5f5f3e3d5ffd5b505050506040513d601f19601f8201168201806040525081019061054a9190611351565b9050805f0361056c5760405163fddb35b360e01b815260040160405180910390fd5b6002546105a6906001600160a01b037f00000000000000000000000000000000000000000000000000000000000000008116911683610d43565b6040518181527f296556412c017ddbd96a4c209870debaafbddfa13cf7ea635a8858e66daed2ec906020015b60405180910390a150565b5f828152602081905260409020600101546105f781610d78565b6106018383610d85565b50505050565b61060f610e14565b610617610e42565b60035461063757604051631c8b625960e01b815260040160405180910390fd5b60045442101561065a57604051634065aaf160e11b815260040160405180910390fd5b60055442111561067d5760405163387b2e5560e11b815260040160405180910390fd5b825f0361069d5760405163162908e360e11b815260040160405180910390fd5b335f9081526008602052604090205460ff16156106cd57604051630c8d9eab60e31b815260040160405180910390fd5b6040516bffffffffffffffffffffffff193360601b166020820152603481018490524660548201525f906074016040516020818303038152906040528051906020012090506107528383808060200260200160405190810160405280939291908181526020018383602002808284375f92019190915250506003549150849050610e66565b61076f576040516309bde33960e01b815260040160405180910390fd5b60065484600754610780919061137c565b111561079f57604051632edaff4360e01b815260040160405180910390fd5b5f6107a8610e7b565b9050808511156107cb5760405163e694b68f60e01b815260040160405180910390fd5b335f908152600860205260408120805460ff19166001179055600780548792906107f690849061137c565b909155505060015460405163b78b52df60e01b8152336004820152602481018790526101009091046001600160a01b03169063b78b52df906044015f604051808303815f87803b158015610848575f5ffd5b505af115801561085a573d5f5f3e3d5ffd5b505060408051338152602081018990527fd8138f8a3f377c5259ca548e70e4c2de94f129f5a11036a15b69513cba2b426a935001905060405180910390a150506108c360017f9b779b17422d0df92223018b32b4d1fa46e071723d6817e2486d003becc55f0055565b505050565b6001600160a01b03811633146108f15760405163334bd91960e11b815260040160405180910390fd5b6108c38282610fa6565b6109125f5160206113b75f395f51905f5233610c23565b61092e576040516282b42960e81b815260040160405180910390fd5b61093661100f565b565b61094f5f5160206113b75f395f51905f5233610c23565b61096b576040516282b42960e81b815260040160405180910390fd5b60055442116109ad5760405162461bcd60e51b81526020600482015260096024820152681b9bdd08195b99195960ba1b60448201526064015b60405180910390fd5b6009805460ff191660011790556109c261105c565b6040514281527ffd9f8990a445376359816eaa974d3219e250374de67ee7f343d196c2c00a3796906020015b60405180910390a1565b610a0f5f5160206113b75f395f51905f5233610c23565b610a2b576040516282b42960e81b815260040160405180910390fd5b60095460ff1615610a4f57604051636823b07360e01b815260040160405180910390fd5b6001600160a01b038116610a765760405163d92e233d60e01b815260040160405180910390fd5b600280546001600160a01b0319166001600160a01b0383169081179091556040519081527f7dae230f18360d76a040c81f050aa14eb9d6dc7901b20fc5d855e2a20fe814d1906020016105d2565b610adb5f5160206113b75f395f51905f5233610c23565b610af7576040516282b42960e81b815260040160405180910390fd5b60095460ff1615610b1b57604051636823b07360e01b815260040160405180910390fd5b83610b3957604051631c8b625960e01b815260040160405180910390fd5b818310610b595760405163162908e360e11b815260040160405180910390fd5b610b6662ed4e004261137c565b821115610b865760405163162908e360e11b815260040160405180910390fd5b60038490556004839055600582905560068190556040805185815260208101859052908101839052606081018290527ff208a78161f9e2e6497700447b918c108da3bf690a72eeb6f0b1c61e5e7a378d9060800160405180910390a150505050565b610bff5f5160206113b75f395f51905f5233610c23565b610c1b576040516282b42960e81b815260040160405180910390fd5b61093661105c565b5f918252602082815260408084206001600160a01b0393909316845291905290205460ff1690565b5f82815260208190526040902060010154610c6581610d78565b6106018383610fa6565b610c865f5160206113b75f395f51905f5233610c23565b610ca2576040516282b42960e81b815260040160405180910390fd5b60095460ff1615610cc657604051636823b07360e01b815260040160405180910390fd5b6001600160a01b038116610ced5760405163d92e233d60e01b815260040160405180910390fd5b60018054610100600160a81b0319166101006001600160a01b038416908102919091179091556040519081527fbc4e278ac039302155962625e325863c2bc240551235e91db5cc02095f339806906020016105d2565b610d508383836001611097565b6108c357604051635274afe760e01b81526001600160a01b03841660048201526024016109a4565b610d8281336110f9565b50565b5f610d908383610c23565b610e0d575f838152602081815260408083206001600160a01b03861684529091529020805460ff19166001179055610dc53390565b6001600160a01b0316826001600160a01b0316847f2f8788117e7eff1d82e926ec794901d17c78024a50270940304540a733656f0d60405160405180910390a4506001610466565b505f610466565b610e1c611136565b60027f9b779b17422d0df92223018b32b4d1fa46e071723d6817e2486d003becc55f0055565b60015460ff16156109365760405163d93c066560e01b815260040160405180910390fd5b5f82610e728584611178565b14949350505050565b6001546040516370a0823160e01b81526101009091046001600160a01b0390811660048301525f9182917f000000000000000000000000000000000000000000000000000000000000000016906370a0823190602401602060405180830381865afa158015610eec573d5f5f3e3d5ffd5b505050506040513d601f19601f82011682018060405250810190610f109190611351565b90505f60018054906101000a90046001600160a01b03166001600160a01b031663a16f37746040518163ffffffff1660e01b8152600401602060405180830381865afa158015610f62573d5f5f3e3d5ffd5b505050506040513d601f19601f82011682018060405250810190610f869190611351565b9050808211610f95575f610f9f565b610f9f818361138f565b9250505090565b5f610fb18383610c23565b15610e0d575f838152602081815260408083206001600160a01b0386168085529252808320805460ff1916905551339286917ff6391f5c32d9c69d2a47ea670b442974b53935d1edc7fd64eb21e047a839171b9190a4506001610466565b6110176111ba565b6001805460ff191690557f5db9ee0a495bf2e6ff9c91a7834c1ba4fdd244a5e8aa4e537bd38aeae4b073aa335b6040516001600160a01b0390911681526020016109ee565b611064610e42565b6001805460ff1916811790557f62e78cea01bee320cd4e420270b5ea74000d11b0c9f74754ebdbfc544b05a25833611044565b60405163a9059cbb60e01b5f8181526001600160a01b038616600452602485905291602083604481808b5af1925060015f511483166110ed5783831516156110e1573d5f823e3d81fd5b5f873b113d1516831692505b60405250949350505050565b6111038282610c23565b6111325760405163e2517d3f60e01b81526001600160a01b0382166004820152602481018390526044016109a4565b5050565b7f9b779b17422d0df92223018b32b4d1fa46e071723d6817e2486d003becc55f005460020361093657604051633ee5aeb560e01b815260040160405180910390fd5b5f81815b84518110156111b2576111a88286838151811061119b5761119b6113a2565b60200260200101516111dd565b915060010161117c565b509392505050565b60015460ff1661093657604051638dfc202b60e01b815260040160405180910390fd5b5f8183106111f7575f828152602084905260409020611205565b5f8381526020839052604090205b9392505050565b5f6020828403121561121c575f5ffd5b81356001600160e01b031981168114611205575f5ffd5b5f60208284031215611243575f5ffd5b5035919050565b80356001600160a01b0381168114611260575f5ffd5b919050565b5f5f60408385031215611276575f5ffd5b823591506112866020840161124a565b90509250929050565b5f5f5f604084860312156112a1575f5ffd5b83359250602084013567ffffffffffffffff8111156112be575f5ffd5b8401601f810186136112ce575f5ffd5b803567ffffffffffffffff8111156112e4575f5ffd5b8660208260051b84010111156112f8575f5ffd5b939660209190910195509293505050565b5f60208284031215611319575f5ffd5b6112058261124a565b5f5f5f5f60808587031215611335575f5ffd5b5050823594602084013594506040840135936060013592509050565b5f60208284031215611361575f5ffd5b5051919050565b634e487b7160e01b5f52601160045260245ffd5b8082018082111561046657610466611368565b8181038181111561046657610466611368565b634e487b7160e01b5f52603260045260245ffdfe71840dc4906352362b0cdaf79870196c8e42acafade72d5d5a6d59291253ceb1a26469706673582212201f37f2a9e409237c3e0c4a7d25ed416c8a511ebb44087c73a47f15ca80dae9ea64736f6c634300081b0033",
  "linkReferences": {},
  "deployedLinkReferences": {}
}