{
  "_format": "hh-sol-artifact-1",
  "contractName": "PriceOracleV3",
  "sourceName": "contracts/PriceOracle.sol",
  "abi": [
    {
      "inputs": [
        {
          "internalType": "address",
          "name": "admin",
          "type": "address"
        }
      ],
      "stateMutability": "nonpayable",
      "type": "constructor"
    },
    {
      "inputs": [],
      "name": "AccessControlBadConfirmation",
      "type": "error"
    },
    {
      "inputs": [
        {
          "internalType": "address",
          "name": "account",
          "type": "address"
        },
        {
          "internalType": "bytes32",
          "name": "neededRole",
          "type": "bytes32"
        }
      ],
      "name": "AccessControlUnauthorizedAccount",
      "type": "error"
    },
    {
      "inputs": [],
      "name": "EnforcedPause",
      "type": "error"
    },
    {
      "inputs": [],
      "name": "ExpectedPause",
      "type": "error"
    },
    {
      "inputs": [],
      "name": "PO__DuplicateCurrency",
      "type": "error"
    },
    {
      "inputs": [],
      "name": "PO__InvalidPrice",
      "type": "error"
    },
    {
      "inputs": [],
      "name": "PO__PriceDeviationTooHigh",
      "type": "error"
    },
    {
      "inputs": [],
      "name": "PO__StalePrice",
      "type": "error"
    },
    {
      "inputs": [],
      "name": "PO__UnsupportedCurrency",
      "type": "error"
    },
    {
      "inputs": [],
      "name": "PO__ZeroAddress",
      "type": "error"
    },
    {
      "anonymous": false,
      "inputs": [
        {
          "indexed": true,
          "internalType": "address",
          "name": "currency",
          "type": "address"
        },
        {
          "indexed": false,
          "internalType": "address",
          "name": "feed",
          "type": "address"
        }
      ],
      "name": "ChainlinkFeedUpdated",
      "type": "event"
    },
    {
      "anonymous": false,
      "inputs": [
        {
          "indexed": true,
          "internalType": "address",
          "name": "currency",
          "type": "address"
        },
        {
          "indexed": false,
          "internalType": "uint256",
          "name": "priceUsd",
          "type": "uint256"
        },
        {
          "indexed": false,
          "internalType": "address",
          "name": "chainlinkFeed",
          "type": "address"
        }
      ],
      "name": "CurrencyAdded",
      "type": "event"
    },
    {
      "anonymous": false,
      "inputs": [
        {
          "indexed": true,
          "internalType": "address",
          "name": "currency",
          "type": "address"
        }
      ],
      "name": "CurrencyRemoved",
      "type": "event"
    },
    {
      "anonymous": false,
      "inputs": [
        {
          "indexed": true,
          "internalType": "address",
          "name": "currency",
          "type": "address"
        },
        {
          "indexed": false,
          "internalType": "uint256",
          "name": "oldPrice",
          "type": "uint256"
        },
        {
          "indexed": false,
          "internalType": "uint256",
          "name": "newPrice",
          "type": "uint256"
        }
      ],
      "name": "CurrencyUpdated",
      "type": "event"
    },
    {
      "anonymous": false,
      "inputs": [
        {
          "indexed": false,
          "internalType": "address",
          "name": "account",
          "type": "address"
        }
      ],
      "name": "Paused",
      "type": "event"
    },
    {
      "anonymous": false,
      "inputs": [
        {
          "indexed": true,
          "internalType": "bytes32",
          "name": "role",
          "type": "bytes32"
        },
        {
          "indexed": true,
          "internalType": "bytes32",
          "name": "previousAdminRole",
          "type": "bytes32"
        },
        {
          "indexed": true,
          "internalType": "bytes32",
          "name": "newAdminRole",
          "type": "bytes32"
        }
      ],
      "name": "RoleAdminChanged",
      "type": "event"
    },
    {
      "anonymous": false,
      "inputs": [
        {
          "indexed": true,
          "internalType": "bytes32",
          "name": "role",
          "type": "bytes32"
        },
        {
          "indexed": true,
          "internalType": "address",
          "name": "account",
          "type": "address"
        },
        {
          "indexed": true,
          "internalType": "address",
          "name": "sender",
          "type": "address"
        }
      ],
      "name": "RoleGranted",
      "type": "event"
    },
    {
      "anonymous": false,
      "inputs": [
        {
          "indexed": true,
          "internalType": "bytes32",
          "name": "role",
          "type": "bytes32"
        },
        {
          "indexed": true,
          "internalType": "address",
          "name": "account",
          "type": "address"
        },
        {
          "indexed": true,
          "internalType": "address",
          "name": "sender",
          "type": "address"
        }
      ],
      "name": "RoleRevoked",
      "type": "event"
    },
    {
      "anonymous": false,
      "inputs": [
        {
          "indexed": false,
          "internalType": "uint256",
          "name": "oldPrice",
          "type": "uint256"
        },
        {
          "indexed": false,
          "internalType": "uint256",
          "name": "newPrice",
          "type": "uint256"
        }
      ],
      "name": "TokenPriceUpdated",
      "type": "event"
    },
    {
      "anonymous": false,
      "inputs": [
        {
          "indexed": false,
          "internalType": "address",
          "name": "account",
          "type": "address"
        }
      ],
      "name": "Unpaused",
      "type": "event"
    },
    {
      "inputs": [],
      "name": "BPS_DENOMINATOR",
      "outputs": [
        {
          "internalType": "uint256",
          "name": "",
          "type": "uint256"
        }
      ],
      "stateMutability": "view",
      "type": "function"
    },
    {
      "inputs": [],
      "name": "DEFAULT_ADMIN_ROLE",
      "outputs": [
        {
          "internalType": "bytes32",
          "name": "",
          "type": "bytes32"
        }
      ],
      "stateMutability": "view",
      "type": "function"
    },
    {
      "inputs": [],
      "name": "MAX_BPS",
      "outputs": [
        {
          "internalType": "uint256",
          "name": "",
          "type": "uint256"
        }
      ],
      "stateMutability": "view",
      "type": "function"
    },
    {
      "inputs": [],
      "name": "OPERATOR_ROLE",
      "outputs": [
        {
          "internalType": "bytes32",
          "name": "",
          "type": "bytes32"
        }
      ],
      "stateMutability": "view",
      "type": "function"
    },
    {
      "inputs": [],
      "name": "STALENESS_THRESHOLD",
      "outputs": [
        {
          "internalType": "uint256",
          "name": "",
          "type": "uint256"
        }
      ],
      "stateMutability": "view",
      "type": "function"
    },
    {
      "inputs": [
        {
          "internalType": "address",
          "name": "currency",
          "type": "address"
        },
        {
          "internalType": "uint8",
          "name": "decimals",
          "type": "uint8"
        },
        {
          "internalType": "uint256",
          "name": "priceUsd",
          "type": "uint256"
        },
        {
          "internalType": "address",
          "name": "chainlinkFeed",
          "type": "address"
        }
      ],
      "name": "addCurrency",
      "outputs": [],
      "stateMutability": "nonpayable",
      "type": "function"
    },
    {
      "inputs": [
        {
          "internalType": "address",
          "name": "currency",
          "type": "address"
        }
      ],
      "name": "getChainlinkPrice",
      "outputs": [
        {
          "internalType": "uint256",
          "name": "",
          "type": "uint256"
        }
      ],
      "stateMutability": "view",
      "type": "function"
    },
    {
      "inputs": [],
      "name": "getCurrencies",
      "outputs": [
        {
          "internalType": "address[]",
          "name": "",
          "type": "address[]"
        }
      ],
      "stateMutability": "view",
      "type": "function"
    },
    {
      "inputs": [
        {
          "internalType": "address",
          "name": "currency",
          "type": "address"
        }
      ],
      "name": "getCurrency",
      "outputs": [
        {
          "internalType": "bool",
          "name": "supported",
          "type": "bool"
        },
        {
          "internalType": "uint8",
          "name": "decimals",
          "type": "uint8"
        },
        {
          "internalType": "uint256",
          "name": "priceUsd",
          "type": "uint256"
        },
        {
          "internalType": "uint256",
          "name": "updatedAt",
          "type": "uint256"
        },
        {
          "internalType": "address",
          "name": "chainlinkFeed",
          "type": "address"
        }
      ],
      "stateMutability": "view",
      "type": "function"
    },
    {
      "inputs": [
        {
          "internalType": "address",
          "name": "currency",
          "type": "address"
        },
        {
          "internalType": "uint256",
          "name": "amount",
          "type": "uint256"
        }
      ],
      "name": "getQuoteInfo",
      "outputs": [
        {
          "internalType": "uint256",
          "name": "tokens",
          "type": "uint256"
        },
        {
          "internalType": "uint256",
          "name": "usdValue",
          "type": "uint256"
        },
        {
          "internalType": "uint256",
          "name": "tokenPrice",
          "type": "uint256"
        }
      ],
      "stateMutability": "view",
      "type": "function"
    },
    {
      "inputs": [
        {
          "internalType": "bytes32",
          "name": "role",
          "type": "bytes32"
        }
      ],
      "name": "getRoleAdmin",
      "outputs": [
        {
          "internalType": "bytes32",
          "name": "",
          "type": "bytes32"
        }
      ],
      "stateMutability": "view",
      "type": "function"
    },
    {
      "inputs": [
        {
          "internalType": "bytes32",
          "name": "role",
          "type": "bytes32"
        },
        {
          "internalType": "address",
          "name": "account",
          "type": "address"
        }
      ],
      "name": "grantRole",
      "outputs": [],
      "stateMutability": "nonpayable",
      "type": "function"
    },
    {
      "inputs": [
        {
          "internalType": "bytes32",
          "name": "role",
          "type": "bytes32"
        },
        {
          "internalType": "address",
          "name": "account",
          "type": "address"
        }
      ],
      "name": "hasRole",
      "outputs": [
        {
          "internalType": "bool",
          "name": "",
          "type": "bool"
        }
      ],
      "stateMutability": "view",
      "type": "function"
    },
    {
      "inputs": [],
      "name": "pause",
      "outputs": [],
      "stateMutability": "nonpayable",
      "type": "function"
    },
    {
      "inputs": [],
      "name": "paused",
      "outputs": [
        {
          "internalType": "bool",
          "name": "",
          "type": "bool"
        }
      ],
      "stateMutability": "view",
      "type": "function"
    },
    {
      "inputs": [
        {
          "internalType": "address",
          "name": "currency",
          "type": "address"
        },
        {
          "internalType": "uint256",
          "name": "amount",
          "type": "uint256"
        }
      ],
      "name": "quote",
      "outputs": [
        {
          "internalType": "uint256",
          "name": "tokens",
          "type": "uint256"
        }
      ],
      "stateMutability": "view",
      "type": "function"
    },
    {
      "inputs": [
        {
          "internalType": "address",
          "name": "currency",
          "type": "address"
        },
        {
          "internalType": "uint256",
          "name": "tokenAmount",
          "type": "uint256"
        }
      ],
      "name": "quoteReverse",
      "outputs": [
        {
          "internalType": "uint256",
          "name": "payment",
          "type": "uint256"
        }
      ],
      "stateMutability": "view",
      "type": "function"
    },
    {
      "inputs": [
        {
          "internalType": "address",
          "name": "currency",
          "type": "address"
        }
      ],
      "name": "removeCurrency",
      "outputs": [],
      "stateMutability": "nonpayable",
      "type": "function"
    },
    {
      "inputs": [
        {
          "internalType": "bytes32",
          "name": "role",
          "type": "bytes32"
        },
        {
          "internalType": "address",
          "name": "callerConfirmation",
          "type": "address"
        }
      ],
      "name": "renounceRole",
      "outputs": [],
      "stateMutability": "nonpayable",
      "type": "function"
    },
    {
      "inputs": [
        {
          "internalType": "bytes32",
          "name": "role",
          "type": "bytes32"
        },
        {
          "internalType": "address",
          "name": "account",
          "type": "address"
        }
      ],
      "name": "revokeRole",
      "outputs": [],
      "stateMutability": "nonpayable",
      "type": "function"
    },
    {
      "inputs": [
        {
          "internalType": "address",
          "name": "currency",
          "type": "address"
        },
        {
          "internalType": "address",
          "name": "feed",
          "type": "address"
        }
      ],
      "name": "setChainlinkFeed",
      "outputs": [],
      "stateMutability": "nonpayable",
      "type": "function"
    },
    {
      "inputs": [
        {
          "internalType": "bytes4",
          "name": "interfaceId",
          "type": "bytes4"
        }
      ],
      "name": "supportsInterface",
      "outputs": [
        {
          "internalType": "bool",
          "name": "",
          "type": "bool"
        }
      ],
      "stateMutability": "view",
      "type": "function"
    },
    {
      "inputs": [],
      "name": "tokenPriceUpdatedAt",
      "outputs": [
        {
          "internalType": "uint256",
          "name": "",
          "type": "uint256"
        }
      ],
      "stateMutability": "view",
      "type": "function"
    },
    {
      "inputs": [],
      "name": "tokenPriceUsd",
      "outputs": [
        {
          "internalType": "uint256",
          "name": "",
          "type": "uint256"
        }
      ],
      "stateMutability": "view",
      "type": "function"
    },
    {
      "inputs": [],
      "name": "unpause",
      "outputs": [],
      "stateMutability": "nonpayable",
      "type": "function"
    },
    {
      "inputs": [
        {
          "internalType": "address",
          "name": "currency",
          "type": "address"
        },
        {
          "internalType": "uint256",
          "name": "newPriceUsd",
          "type": "uint256"
        }
      ],
      "name": "updateCurrencyPrice",
      "outputs": [],
      "stateMutability": "nonpayable",
      "type": "function"
    },
    {
      "inputs": [
        {
          "internalType": "uint256",
          "name": "newPriceUsd",
          "type": "uint256"
        }
      ],
      "name": "updateTokenPrice",
      "outputs": [],
      "stateMutability": "nonpayable",
      "type": "function"
    }
  ],
  "bytecode": "0x6080604052612710600455348015610015575f5ffd5b50604051611a4d380380611a4d833981016040819052610034916102b4565b61003e5f82610081565b506100697f97667070c54ef182b0f5858b034beac1b6f3089aa2d3188bb1e8929f4fa9b92982610081565b5061007b5f6012639502f9008261012a565b506102e1565b5f828152602081815260408083206001600160a01b038516845290915281205460ff16610121575f838152602081815260408083206001600160a01b03861684529091529020805460ff191660011790556100d93390565b6001600160a01b0316826001600160a01b0316847f2f8788117e7eff1d82e926ec794901d17c78024a50270940304540a733656f0d60405160405180910390a4506001610124565b505f5b92915050565b6001600160a01b03841615801561014557508260ff16601214155b1561016357604051630be1483760e21b815260040160405180910390fd5b6001600160a01b0384165f9081526002602052604090205460ff161561019c57604051635a83666560e01b815260040160405180910390fd5b6040805160a081018252600180825260ff868116602080850191825284860188815242606087019081526001600160a01b03898116608089018181528e83165f81815260028089528d82209c518d549a5161ffff19909b1690151561ff001916176101009a909b1699909902999099178b5594518a8a01559251958901959095559051600397880180546001600160a01b03199081169290931691909117905586549586018755959093527fc2575a0e9e593c00f959f8c92f12db2869c3395a3b0502d05e2516446f71f85b9093018054909416821790935583518681529182019290925290917fed29cd27a23705d812efe877044d6200c924e26cfb3dabcb06eb6a0fd4f2c703910160405180910390a250505050565b5f602082840312156102c4575f5ffd5b81516001600160a01b03811681146102da575f5ffd5b9392505050565b61175f806102ee5f395ff3fe608060405234801561000f575f5ffd5b50600436106101a1575f3560e01c80638ec24846116100f3578063bd58fe5611610093578063dfa141631161006e578063dfa1416314610364578063e1a4521814610412578063f5b541a61461041b578063fd967f471461042f575f5ffd5b8063bd58fe561461032b578063c5d3a1071461033e578063d547741f14610351575f5ffd5b8063a217fddf116100ce578063a217fddf146102da578063b2d40e37146102e1578063b85f70ea1461030f578063b8846c1b14610318575f5ffd5b80638ec24846146102a15780638f79306e146102b457806391d14854146102c7575f5ffd5b80635c975abb1161015e57806369ef32d21161013957806369ef32d2146102695780637215b0bf1461027c5780637bac39a4146102865780638456cb5914610299575f5ffd5b80635c975abb1461023657806361c661de14610241578063676c0d7714610256575f5ffd5b806301ffc9a7146101a5578063248a9ca3146101cd5780632f2ff15d146101fd57806336568abe146102125780633f4ba83a146102255780635249be251461022d575b5f5ffd5b6101b86101b336600461134f565b610438565b60405190151581526020015b60405180910390f35b6101ef6101db366004611376565b5f9081526020819052604090206001015490565b6040519081526020016101c4565b61021061020b3660046113a8565b61046e565b005b6102106102203660046113a8565b610498565b6102106104d0565b6101ef60045481565b60015460ff166101b8565b6102496104f2565b6040516101c491906113d2565b610210610264366004611376565b610666565b61021061027736600461141d565b610718565b6101ef6201518081565b6101ef610294366004611445565b6107c7565b6102106108ed565b6102106102af36600461147b565b61090c565b6101ef6102c2366004611445565b610936565b6101b86102d53660046113a8565b610a1f565b6101ef5f81565b6102f46102ef366004611445565b610a47565b604080519384526020840192909252908201526060016101c4565b6101ef60055481565b610210610326366004611445565b610b5e565b6101ef6103393660046114c7565b610c68565b61021061034c3660046114c7565b610cfd565b61021061035f3660046113a8565b610d5d565b6103dd6103723660046114c7565b6001600160a01b039081165f90815260026020818152604092839020835160a081018552815460ff8082161515808452610100909204169382018490526001830154958201869052938201546060820181905260039092015490951660809095018590529194909390565b60408051951515865260ff90941660208601529284019190915260608301526001600160a01b0316608082015260a0016101c4565b6101ef61271081565b6101ef5f51602061170a5f395f51905f5281565b6101ef6107d081565b5f6001600160e01b03198216637965db0b60e01b148061046857506301ffc9a760e01b6001600160e01b03198316145b92915050565b5f8281526020819052604090206001015461048881610d81565b6104928383610d8b565b50505050565b6001600160a01b03811633146104c15760405163334bd91960e11b815260040160405180910390fd5b6104cb8282610e1a565b505050565b5f51602061170a5f395f51905f526104e781610d81565b6104ef610e83565b50565b60605f805b6003548110156105595760025f60038381548110610517576105176114e0565b5f9182526020808320909101546001600160a01b0316835282019290925260400190205460ff1615610551578161054d81611508565b9250505b6001016104f7565b505f8167ffffffffffffffff81111561057457610574611520565b60405190808252806020026020018201604052801561059d578160200160208202803683370190505b5090505f805b60035481101561065d5760025f600383815481106105c3576105c36114e0565b5f9182526020808320909101546001600160a01b0316835282019290925260400190205460ff16156106555760038181548110610602576106026114e0565b905f5260205f20015f9054906101000a90046001600160a01b031683838151811061062f5761062f6114e0565b6001600160a01b03909216602092830291909101909101528161065181611508565b9250505b6001016105a3565b50909392505050565b5f51602061170a5f395f51905f5261067d81610d81565b815f0361069d57604051630be1483760e21b815260040160405180910390fd5b6004545f6106ab8285610ed5565b90506107d08111156106d05760405163d317b98360e01b815260040160405180910390fd5b60048490554260055560408051838152602081018690527fd9cc159fa79112d02593601db522a6696e6c5c82d9e9ca9332f89ec824935bb0910160405180910390a150505050565b5f51602061170a5f395f51905f5261072f81610d81565b6001600160a01b0383165f908152600260205260409020805460ff1661076857604051631a2907c560e01b815260040160405180910390fd5b6003810180546001600160a01b0319166001600160a01b03858116918217909255604051908152908516907f3be680563c528780d5a9cd763a27b4a48ab5f9dc10e4083a2fa55b6fc5ff33e6906020015b60405180910390a250505050565b6001600160a01b038083165f908152600260208181526040808420815160a081018352815460ff808216151580845261010090920416948201949094526001820154928101929092529283015460608201526003909201549093166080820152909161084657604051631a2907c560e01b815260040160405180910390fd5b6201518081606001514261085a9190611534565b11156108795760405163e310af7160e01b815260040160405180910390fd5b604081015160808201516001600160a01b0316156108a15761089e8260800151610f26565b90505b6108b381670de0b6b3a7640000611547565b60208301516108c390600a611641565b6004546108d09087611547565b6108da9190611547565b6108e4919061164f565b95945050505050565b5f51602061170a5f395f51905f5261090481610d81565b6104ef6110d0565b5f51602061170a5f395f51905f5261092381610d81565b61092f8585858561110b565b5050505050565b6001600160a01b038083165f908152600260208181526040808420815160a081018352815460ff80821615158084526101009092041694820194909452600182015492810192909252928301546060820152600390920154909316608082015290916109b557604051631a2907c560e01b815260040160405180910390fd5b620151808160600151426109c99190611534565b11156109e85760405163e310af7160e01b815260040160405180910390fd5b604081015160808201516001600160a01b031615610a1057610a0d8260800151610f26565b90505b6108e48482846020015161128c565b5f918252602082815260408084206001600160a01b0393909316845291905290205460ff1690565b6001600160a01b038083165f908152600260208181526040808420815160a081018352815460ff808216151580845261010090920416948201949094526001820154928101929092529283015460608201526003909201549093166080820152909182918291610aca57604051631a2907c560e01b815260040160405180910390fd5b62015180816060015142610ade9190611534565b1115610afd5760405163e310af7160e01b815260040160405180910390fd5b604081015160808201516001600160a01b031615610b2557610b228260800151610f26565b90505b610b348682846020015161128c565b9450620f4240610b448288611547565b610b4e919061164f565b9350600454925050509250925092565b5f51602061170a5f395f51905f52610b7581610d81565b6001600160a01b0383165f908152600260205260409020805460ff16610bae57604051631a2907c560e01b815260040160405180910390fd5b60038101546001600160a01b031615610bda57604051630be1483760e21b815260040160405180910390fd5b60018101545f610bea8286610ed5565b90506107d0811115610c0f5760405163d317b98360e01b815260040160405180910390fd5b6001830185905542600284015560408051838152602081018790526001600160a01b038816917f7233fb6315e372488580c0e4834c3158dc04a2c83de805294f4d522dd09b658a910160405180910390a2505050505050565b6001600160a01b038082165f908152600260208181526040808420815160a081018352815460ff80821615158352610100909104169381019390935260018101549183019190915291820154606082015260039091015490921660808301819052909190610ce957604051631a2907c560e01b815260040160405180910390fd5b610cf68160800151610f26565b9392505050565b5f51602061170a5f395f51905f52610d1481610d81565b6001600160a01b0382165f81815260026020526040808220805460ff19169055517fa40d69111be14f29022626d38310e47cc2d7f4cb728961509c2f65a4bee08c5b9190a25050565b5f82815260208190526040902060010154610d7781610d81565b6104928383610e1a565b6104ef81336112c5565b5f610d968383610a1f565b610e13575f838152602081815260408083206001600160a01b03861684529091529020805460ff19166001179055610dcb3390565b6001600160a01b0316826001600160a01b0316847f2f8788117e7eff1d82e926ec794901d17c78024a50270940304540a733656f0d60405160405180910390a4506001610468565b505f610468565b5f610e258383610a1f565b15610e13575f838152602081815260408083206001600160a01b0386168085529252808320805460ff1916905551339286917ff6391f5c32d9c69d2a47ea670b442974b53935d1edc7fd64eb21e047a839171b9190a4506001610468565b610e8b611306565b6001805460ff191690557f5db9ee0a495bf2e6ff9c91a7834c1ba4fdd244a5e8aa4e537bd38aeae4b073aa335b6040516001600160a01b03909116815260200160405180910390a1565b5f825f03610ee457505f610468565b5f838311610efb57610ef68385611534565b610f05565b610f058484611534565b905083610f1461271083611547565b610f1e919061164f565b949350505050565b5f5f8290505f5f5f5f5f856001600160a01b031663feaf968c6040518163ffffffff1660e01b815260040160a060405180830381865afa158015610f6c573d5f5f3e3d5ffd5b505050506040513d601f19601f82011682018060405250810190610f909190611687565b945094509450945094505f8413610fba57604051630be1483760e21b815260040160405180910390fd5b815f03610fda5760405163e310af7160e01b815260040160405180910390fd5b8469ffffffffffffffffffff168169ffffffffffffffffffff1610156110135760405163e310af7160e01b815260040160405180910390fd5b620151806110218342611534565b11156110405760405163e310af7160e01b815260040160405180910390fd5b5f866001600160a01b031663313ce5676040518163ffffffff1660e01b8152600401602060405180830381865afa15801561107d573d5f5f3e3d5ffd5b505050506040513d601f19601f820116820180604052508101906110a191906116d5565b90506110ae8160066116f0565b6110b990600a611641565b6110c39086611547565b9998505050505050505050565b6110d861132b565b6001805460ff1916811790557f62e78cea01bee320cd4e420270b5ea74000d11b0c9f74754ebdbfc544b05a25833610eb8565b6001600160a01b03841615801561112657508260ff16601214155b1561114457604051630be1483760e21b815260040160405180910390fd5b6001600160a01b0384165f9081526002602052604090205460ff161561117d57604051635a83666560e01b815260040160405180910390fd5b6040805160a081018252600180825260ff868116602080850191825284860188815242606087019081526001600160a01b03898116608089018181528e83165f81815260028089528d82209c518d549a5161ffff19909b1690151561ff001916176101009a909b1699909902999099178b5594518a8a01559251958901959095559051600397880180546001600160a01b03199081169290931691909117905586549586018755959093527fc2575a0e9e593c00f959f8c92f12db2869c3395a3b0502d05e2516446f71f85b9093018054909416821790935583518681529182019290925290917fed29cd27a23705d812efe877044d6200c924e26cfb3dabcb06eb6a0fd4f2c70391016107b9565b5f8061129983600a611641565b6112a38587611547565b6112ad919061164f565b6004549091506108da82670de0b6b3a7640000611547565b6112cf8282610a1f565b6113025760405163e2517d3f60e01b81526001600160a01b03821660048201526024810183905260440160405180910390fd5b5050565b60015460ff1661132957604051638dfc202b60e01b815260040160405180910390fd5b565b60015460ff16156113295760405163d93c066560e01b815260040160405180910390fd5b5f6020828403121561135f575f5ffd5b81356001600160e01b031981168114610cf6575f5ffd5b5f60208284031215611386575f5ffd5b5035919050565b80356001600160a01b03811681146113a3575f5ffd5b919050565b5f5f604083850312156113b9575f5ffd5b823591506113c96020840161138d565b90509250929050565b602080825282518282018190525f918401906040840190835b818110156114125783516001600160a01b03168352602093840193909201916001016113eb565b509095945050505050565b5f5f6040838503121561142e575f5ffd5b6114378361138d565b91506113c96020840161138d565b5f5f60408385031215611456575f5ffd5b61145f8361138d565b946020939093013593505050565b60ff811681146104ef575f5ffd5b5f5f5f5f6080858703121561148e575f5ffd5b6114978561138d565b935060208501356114a78161146d565b9250604085013591506114bc6060860161138d565b905092959194509250565b5f602082840312156114d7575f5ffd5b610cf68261138d565b634e487b7160e01b5f52603260045260245ffd5b634e487b7160e01b5f52601160045260245ffd5b5f60018201611519576115196114f4565b5060010190565b634e487b7160e01b5f52604160045260245ffd5b81810381811115610468576104686114f4565b8082028115828204841417610468576104686114f4565b6001815b60018411156115995780850481111561157d5761157d6114f4565b600184161561158b57908102905b60019390931c928002611562565b935093915050565b5f826115af57506001610468565b816115bb57505f610468565b81600181146115d157600281146115db576115f7565b6001915050610468565b60ff8411156115ec576115ec6114f4565b50506001821b610468565b5060208310610133831016604e8410600b841016171561161a575081810a610468565b6116265f19848461155e565b805f1904821115611639576116396114f4565b029392505050565b5f610cf660ff8416836115a1565b5f8261166957634e487b7160e01b5f52601260045260245ffd5b500490565b805169ffffffffffffffffffff811681146113a3575f5ffd5b5f5f5f5f5f60a0868803121561169b575f5ffd5b6116a48661166e565b602087015160408801516060890151929750909550935091506116c96080870161166e565b90509295509295909350565b5f602082840312156116e5575f5ffd5b8151610cf68161146d565b60ff8281168282160390811115610468576104686114f456fe97667070c54ef182b0f5858b034beac1b6f3089aa2d3188bb1e8929f4fa9b929a26469706673582212202cc87d915a656cd4178bef8201f874b73409bb53556637742bc07c6552b2e3e564736f6c634300081b0033",
  "linkReferences": {},
  "deployedLinkReferences": {}
}