{
  "_format": "hh-sol-artifact-1",
  "contractName": "ProjectTimelock",
  "sourceName": "contracts/Timelock.sol",
  "abi": [
    {
      "inputs": [
        {
          "internalType": "uint256",
          "name": "minDelay",
          "type": "uint256"
        },
        {
          "internalType": "address[]",
          "name": "proposers",
          "type": "address[]"
        },
        {
          "internalType": "address[]",
          "name": "executors",
          "type": "address[]"
        },
        {
          "internalType": "address",
          "name": "admin",
          "type": "address"
        }
      ],
      "stateMutability": "nonpayable",
      "type": "constructor"
    },
    {
      "inputs": [],
      "name": "AccessControlBadConfirmation",
      "type": "error"
    },
    {
      "inputs": [
        {
          "internalType": "address",
          "name": "account",
          "type": "address"
        },
        {
          "internalType": "bytes32",
          "name": "neededRole",
          "type": "bytes32"
        }
      ],
      "name": "AccessControlUnauthorizedAccount",
      "type": "error"
    },
    {
      "inputs": [],
      "name": "FailedCall",
      "type": "error"
    },
    {
      "inputs": [
        {
          "internalType": "uint256",
          "name": "delay",
          "type": "uint256"
        },
        {
          "internalType": "uint256",
          "name": "minDelay",
          "type": "uint256"
        }
      ],
      "name": "TimelockInsufficientDelay",
      "type": "error"
    },
    {
      "inputs": [
        {
          "internalType": "uint256",
          "name": "targets",
          "type": "uint256"
        },
        {
          "internalType": "uint256",
          "name": "payloads",
          "type": "uint256"
        },
        {
          "internalType": "uint256",
          "name": "values",
          "type": "uint256"
        }
      ],
      "name": "TimelockInvalidOperationLength",
      "type": "error"
    },
    {
      "inputs": [
        {
          "internalType": "address",
          "name": "caller",
          "type": "address"
        }
      ],
      "name": "TimelockUnauthorizedCaller",
      "type": "error"
    },
    {
      "inputs": [
        {
          "internalType": "bytes32",
          "name": "predecessorId",
          "type": "bytes32"
        }
      ],
      "name": "TimelockUnexecutedPredecessor",
      "type": "error"
    },
    {
      "inputs": [
        {
          "internalType": "bytes32",
          "name": "operationId",
          "type": "bytes32"
        },
        {
          "internalType": "bytes32",
          "name": "expectedStates",
          "type": "bytes32"
        }
      ],
      "name": "TimelockUnexpectedOperationState",
      "type": "error"
    },
    {
      "inputs": [],
      "name": "Timelock__CannotRenounceLastExecutor",
      "type": "error"
    },
    {
      "inputs": [],
      "name": "Timelock__CannotRenounceLastProposer",
      "type": "error"
    },
    {
      "inputs": [],
      "name": "Timelock__DelayTooShort",
      "type": "error"
    },
    {
      "inputs": [],
      "name": "Timelock__EmptyArray",
      "type": "error"
    },
    {
      "inputs": [],
      "name": "Timelock__OpenExecutorNotAllowed",
      "type": "error"
    },
    {
      "inputs": [],
      "name": "Timelock__OperationNotPending",
      "type": "error"
    },
    {
      "inputs": [],
      "name": "Timelock__RoleNotGranted",
      "type": "error"
    },
    {
      "inputs": [],
      "name": "Timelock__ZeroAddress",
      "type": "error"
    },
    {
      "anonymous": false,
      "inputs": [
        {
          "indexed": true,
          "internalType": "address",
          "name": "admin",
          "type": "address"
        }
      ],
      "name": "AdminRenounced",
      "type": "event"
    },
    {
      "anonymous": false,
      "inputs": [
        {
          "indexed": true,
          "internalType": "bytes32",
          "name": "id",
          "type": "bytes32"
        },
        {
          "indexed": true,
          "internalType": "uint256",
          "name": "index",
          "type": "uint256"
        },
        {
          "indexed": false,
          "internalType": "address",
          "name": "target",
          "type": "address"
        },
        {
          "indexed": false,
          "internalType": "uint256",
          "name": "value",
          "type": "uint256"
        },
        {
          "indexed": false,
          "internalType": "bytes",
          "name": "data",
          "type": "bytes"
        }
      ],
      "name": "CallExecuted",
      "type": "event"
    },
    {
      "anonymous": false,
      "inputs": [
        {
          "indexed": true,
          "internalType": "bytes32",
          "name": "id",
          "type": "bytes32"
        },
        {
          "indexed": false,
          "internalType": "bytes32",
          "name": "salt",
          "type": "bytes32"
        }
      ],
      "name": "CallSalt",
      "type": "event"
    },
    {
      "anonymous": false,
      "inputs": [
        {
          "indexed": true,
          "internalType": "bytes32",
          "name": "id",
          "type": "bytes32"
        },
        {
          "indexed": true,
          "internalType": "uint256",
          "name": "index",
          "type": "uint256"
        },
        {
          "indexed": false,
          "internalType": "address",
          "name": "target",
          "type": "address"
        },
        {
          "indexed": false,
          "internalType": "uint256",
          "name": "value",
          "type": "uint256"
        },
        {
          "indexed": false,
          "internalType": "bytes",
          "name": "data",
          "type": "bytes"
        },
        {
          "indexed": false,
          "internalType": "bytes32",
          "name": "predecessor",
          "type": "bytes32"
        },
        {
          "indexed": false,
          "internalType": "uint256",
          "name": "delay",
          "type": "uint256"
        }
      ],
      "name": "CallScheduled",
      "type": "event"
    },
    {
      "anonymous": false,
      "inputs": [
        {
          "indexed": true,
          "internalType": "bytes32",
          "name": "id",
          "type": "bytes32"
        }
      ],
      "name": "Cancelled",
      "type": "event"
    },
    {
      "anonymous": false,
      "inputs": [
        {
          "indexed": false,
          "internalType": "bytes32[]",
          "name": "operationIds",
          "type": "bytes32[]"
        }
      ],
      "name": "EmergencyCancelled",
      "type": "event"
    },
    {
      "anonymous": false,
      "inputs": [
        {
          "indexed": true,
          "internalType": "address",
          "name": "guardian",
          "type": "address"
        }
      ],
      "name": "GuardianSet",
      "type": "event"
    },
    {
      "anonymous": false,
      "inputs": [
        {
          "indexed": false,
          "internalType": "uint256",
          "name": "oldDuration",
          "type": "uint256"
        },
        {
          "indexed": false,
          "internalType": "uint256",
          "name": "newDuration",
          "type": "uint256"
        }
      ],
      "name": "MinDelayChange",
      "type": "event"
    },
    {
      "anonymous": false,
      "inputs": [
        {
          "indexed": true,
          "internalType": "bytes32",
          "name": "role",
          "type": "bytes32"
        },
        {
          "indexed": true,
          "internalType": "bytes32",
          "name": "previousAdminRole",
          "type": "bytes32"
        },
        {
          "indexed": true,
          "internalType": "bytes32",
          "name": "newAdminRole",
          "type": "bytes32"
        }
      ],
      "name": "RoleAdminChanged",
      "type": "event"
    },
    {
      "anonymous": false,
      "inputs": [
        {
          "indexed": true,
          "internalType": "bytes32",
          "name": "role",
          "type": "bytes32"
        },
        {
          "indexed": true,
          "internalType": "address",
          "name": "account",
          "type": "address"
        },
        {
          "indexed": true,
          "internalType": "address",
          "name": "sender",
          "type": "address"
        }
      ],
      "name": "RoleGranted",
      "type": "event"
    },
    {
      "anonymous": false,
      "inputs": [
        {
          "indexed": true,
          "internalType": "bytes32",
          "name": "role",
          "type": "bytes32"
        },
        {
          "indexed": true,
          "internalType": "address",
          "name": "account",
          "type": "address"
        },
        {
          "indexed": true,
          "internalType": "address",
          "name": "sender",
          "type": "address"
        }
      ],
      "name": "RoleRevoked",
      "type": "event"
    },
    {
      "inputs": [],
      "name": "CANCELLER_ROLE",
      "outputs": [
        {
          "internalType": "bytes32",
          "name": "",
          "type": "bytes32"
        }
      ],
      "stateMutability": "view",
      "type": "function"
    },
    {
      "inputs": [],
      "name": "DEFAULT_ADMIN_ROLE",
      "outputs": [
        {
          "internalType": "bytes32",
          "name": "",
          "type": "bytes32"
        }
      ],
      "stateMutability": "view",
      "type": "function"
    },
    {
      "inputs": [],
      "name": "EXECUTOR_ROLE",
      "outputs": [
        {
          "internalType": "bytes32",
          "name": "",
          "type": "bytes32"
        }
      ],
      "stateMutability": "view",
      "type": "function"
    },
    {
      "inputs": [],
      "name": "MINIMUM_DELAY",
      "outputs": [
        {
          "internalType": "uint256",
          "name": "",
          "type": "uint256"
        }
      ],
      "stateMutability": "view",
      "type": "function"
    },
    {
      "inputs": [],
      "name": "PROPOSER_ROLE",
      "outputs": [
        {
          "internalType": "bytes32",
          "name": "",
          "type": "bytes32"
        }
      ],
      "stateMutability": "view",
      "type": "function"
    },
    {
      "inputs": [
        {
          "internalType": "bytes32",
          "name": "id",
          "type": "bytes32"
        }
      ],
      "name": "cancel",
      "outputs": [],
      "stateMutability": "nonpayable",
      "type": "function"
    },
    {
      "inputs": [
        {
          "internalType": "bytes32[]",
          "name": "operationIds",
          "type": "bytes32[]"
        }
      ],
      "name": "emergencyCancelBatch",
      "outputs": [],
      "stateMutability": "nonpayable",
      "type": "function"
    },
    {
      "inputs": [
        {
          "internalType": "address",
          "name": "target",
          "type": "address"
        },
        {
          "internalType": "uint256",
          "name": "value",
          "type": "uint256"
        },
        {
          "internalType": "bytes",
          "name": "payload",
          "type": "bytes"
        },
        {
          "internalType": "bytes32",
          "name": "predecessor",
          "type": "bytes32"
        },
        {
          "internalType": "bytes32",
          "name": "salt",
          "type": "bytes32"
        }
      ],
      "name": "execute",
      "outputs": [],
      "stateMutability": "payable",
      "type": "function"
    },
    {
      "inputs": [
        {
          "internalType": "address[]",
          "name": "targets",
          "type": "address[]"
        },
        {
          "internalType": "uint256[]",
          "name": "values",
          "type": "uint256[]"
        },
        {
          "internalType": "bytes[]",
          "name": "payloads",
          "type": "bytes[]"
        },
        {
          "internalType": "bytes32",
          "name": "predecessor",
          "type": "bytes32"
        },
        {
          "internalType": "bytes32",
          "name": "salt",
          "type": "bytes32"
        }
      ],
      "name": "executeBatch",
      "outputs": [],
      "stateMutability": "payable",
      "type": "function"
    },
    {
      "inputs": [],
      "name": "getMinDelay",
      "outputs": [
        {
          "internalType": "uint256",
          "name": "",
          "type": "uint256"
        }
      ],
      "stateMutability": "view",
      "type": "function"
    },
    {
      "inputs": [
        {
          "internalType": "bytes32",
          "name": "id",
          "type": "bytes32"
        }
      ],
      "name": "getOperationState",
      "outputs": [
        {
          "internalType": "enum TimelockController.OperationState",
          "name": "",
          "type": "uint8"
        }
      ],
      "stateMutability": "view",
      "type": "function"
    },
    {
      "inputs": [
        {
          "internalType": "bytes32",
          "name": "role",
          "type": "bytes32"
        }
      ],
      "name": "getRoleAdmin",
      "outputs": [
        {
          "internalType": "bytes32",
          "name": "",
          "type": "bytes32"
        }
      ],
      "stateMutability": "view",
      "type": "function"
    },
    {
      "inputs": [
        {
          "internalType": "bytes32",
          "name": "role",
          "type": "bytes32"
        }
      ],
      "name": "getRoleMemberCount",
      "outputs": [
        {
          "internalType": "uint256",
          "name": "",
          "type": "uint256"
        }
      ],
      "stateMutability": "view",
      "type": "function"
    },
    {
      "inputs": [
        {
          "internalType": "bytes32",
          "name": "role",
          "type": "bytes32"
        }
      ],
      "name": "getRoleMembers",
      "outputs": [
        {
          "internalType": "address[]",
          "name": "",
          "type": "address[]"
        }
      ],
      "stateMutability": "view",
      "type": "function"
    },
    {
      "inputs": [
        {
          "internalType": "bytes32",
          "name": "id",
          "type": "bytes32"
        }
      ],
      "name": "getTimestamp",
      "outputs": [
        {
          "internalType": "uint256",
          "name": "",
          "type": "uint256"
        }
      ],
      "stateMutability": "view",
      "type": "function"
    },
    {
      "inputs": [
        {
          "internalType": "address",
          "name": "_guardian",
          "type": "address"
        }
      ],
      "name": "grantCancellerRole",
      "outputs": [],
      "stateMutability": "nonpayable",
      "type": "function"
    },
    {
      "inputs": [
        {
          "internalType": "bytes32",
          "name": "role",
          "type": "bytes32"
        },
        {
          "internalType": "address",
          "name": "account",
          "type": "address"
        }
      ],
      "name": "grantRole",
      "outputs": [],
      "stateMutability": "nonpayable",
      "type": "function"
    },
    {
      "inputs": [],
      "name": "guardian",
      "outputs": [
        {
          "internalType": "address",
          "name": "",
          "type": "address"
        }
      ],
      "stateMutability": "view",
      "type": "function"
    },
    {
      "inputs": [
        {
          "internalType": "bytes32",
          "name": "role",
          "type": "bytes32"
        },
        {
          "internalType": "address",
          "name": "account",
          "type": "address"
        }
      ],
      "name": "hasRole",
      "outputs": [
        {
          "internalType": "bool",
          "name": "",
          "type": "bool"
        }
      ],
      "stateMutability": "view",
      "type": "function"
    },
    {
      "inputs": [
        {
          "internalType": "address",
          "name": "target",
          "type": "address"
        },
        {
          "internalType": "uint256",
          "name": "value",
          "type": "uint256"
        },
        {
          "internalType": "bytes",
          "name": "data",
          "type": "bytes"
        },
        {
          "internalType": "bytes32",
          "name": "predecessor",
          "type": "bytes32"
        },
        {
          "internalType": "bytes32",
          "name": "salt",
          "type": "bytes32"
        }
      ],
      "name": "hashOperation",
      "outputs": [
        {
          "internalType": "bytes32",
          "name": "",
          "type": "bytes32"
        }
      ],
      "stateMutability": "pure",
      "type": "function"
    },
    {
      "inputs": [
        {
          "internalType": "address[]",
          "name": "targets",
          "type": "address[]"
        },
        {
          "internalType": "uint256[]",
          "name": "values",
          "type": "uint256[]"
        },
        {
          "internalType": "bytes[]",
          "name": "payloads",
          "type": "bytes[]"
        },
        {
          "internalType": "bytes32",
          "name": "predecessor",
          "type": "bytes32"
        },
        {
          "internalType": "bytes32",
          "name": "salt",
          "type": "bytes32"
        }
      ],
      "name": "hashOperationBatch",
      "outputs": [
        {
          "internalType": "bytes32",
          "name": "",
          "type": "bytes32"
        }
      ],
      "stateMutability": "pure",
      "type": "function"
    },
    {
      "inputs": [
        {
          "internalType": "address",
          "name": "account",
          "type": "address"
        }
      ],
      "name": "isCanceller",
      "outputs": [
        {
          "internalType": "bool",
          "name": "",
          "type": "bool"
        }
      ],
      "stateMutability": "view",
      "type": "function"
    },
    {
      "inputs": [
        {
          "internalType": "address",
          "name": "account",
          "type": "address"
        }
      ],
      "name": "isExecutor",
      "outputs": [
        {
          "internalType": "bool",
          "name": "",
          "type": "bool"
        }
      ],
      "stateMutability": "view",
      "type": "function"
    },
    {
      "inputs": [
        {
          "internalType": "bytes32",
          "name": "id",
          "type": "bytes32"
        }
      ],
      "name": "isOperation",
      "outputs": [
        {
          "internalType": "bool",
          "name": "",
          "type": "bool"
        }
      ],
      "stateMutability": "view",
      "type": "function"
    },
    {
      "inputs": [
        {
          "internalType": "bytes32",
          "name": "id",
          "type": "bytes32"
        }
      ],
      "name": "isOperationDone",
      "outputs": [
        {
          "internalType": "bool",
          "name": "",
          "type": "bool"
        }
      ],
      "stateMutability": "view",
      "type": "function"
    },
    {
      "inputs": [
        {
          "internalType": "bytes32",
          "name": "id",
          "type": "bytes32"
        }
      ],
      "name": "isOperationPending",
      "outputs": [
        {
          "internalType": "bool",
          "name": "",
          "type": "bool"
        }
      ],
      "stateMutability": "view",
      "type": "function"
    },
    {
      "inputs": [
        {
          "internalType": "bytes32",
          "name": "id",
          "type": "bytes32"
        }
      ],
      "name": "isOperationReady",
      "outputs": [
        {
          "internalType": "bool",
          "name": "",
          "type": "bool"
        }
      ],
      "stateMutability": "view",
      "type": "function"
    },
    {
      "inputs": [
        {
          "internalType": "address",
          "name": "account",
          "type": "address"
        }
      ],
      "name": "isProposer",
      "outputs": [
        {
          "internalType": "bool",
          "name": "",
          "type": "bool"
        }
      ],
      "stateMutability": "view",
      "type": "function"
    },
    {
      "inputs": [
        {
          "internalType": "address",
          "name": "",
          "type": "address"
        },
        {
          "internalType": "address",
          "name": "",
          "type": "address"
        },
        {
          "internalType": "uint256[]",
          "name": "",
          "type": "uint256[]"
        },
        {
          "internalType": "uint256[]",
          "name": "",
          "type": "uint256[]"
        },
        {
          "internalType": "bytes",
          "name": "",
          "type": "bytes"
        }
      ],
      "name": "onERC1155BatchReceived",
      "outputs": [
        {
          "internalType": "bytes4",
          "name": "",
          "type": "bytes4"
        }
      ],
      "stateMutability": "nonpayable",
      "type": "function"
    },
    {
      "inputs": [
        {
          "internalType": "address",
          "name": "",
          "type": "address"
        },
        {
          "internalType": "address",
          "name": "",
          "type": "address"
        },
        {
          "internalType": "uint256",
          "name": "",
          "type": "uint256"
        },
        {
          "internalType": "uint256",
          "name": "",
          "type": "uint256"
        },
        {
          "internalType": "bytes",
          "name": "",
          "type": "bytes"
        }
      ],
      "name": "onERC1155Received",
      "outputs": [
        {
          "internalType": "bytes4",
          "name": "",
          "type": "bytes4"
        }
      ],
      "stateMutability": "nonpayable",
      "type": "function"
    },
    {
      "inputs": [
        {
          "internalType": "address",
          "name": "",
          "type": "address"
        },
        {
          "internalType": "address",
          "name": "",
          "type": "address"
        },
        {
          "internalType": "uint256",
          "name": "",
          "type": "uint256"
        },
        {
          "internalType": "bytes",
          "name": "",
          "type": "bytes"
        }
      ],
      "name": "onERC721Received",
      "outputs": [
        {
          "internalType": "bytes4",
          "name": "",
          "type": "bytes4"
        }
      ],
      "stateMutability": "nonpayable",
      "type": "function"
    },
    {
      "inputs": [],
      "name": "renounceAdminRole",
      "outputs": [],
      "stateMutability": "nonpayable",
      "type": "function"
    },
    {
      "inputs": [
        {
          "internalType": "bytes32",
          "name": "role",
          "type": "bytes32"
        },
        {
          "internalType": "address",
          "name": "account",
          "type": "address"
        }
      ],
      "name": "renounceRole",
      "outputs": [],
      "stateMutability": "nonpayable",
      "type": "function"
    },
    {
      "inputs": [
        {
          "internalType": "address",
          "name": "_guardian",
          "type": "address"
        }
      ],
      "name": "revokeCancellerRole",
      "outputs": [],
      "stateMutability": "nonpayable",
      "type": "function"
    },
    {
      "inputs": [
        {
          "internalType": "bytes32",
          "name": "role",
          "type": "bytes32"
        },
        {
          "internalType": "address",
          "name": "account",
          "type": "address"
        }
      ],
      "name": "revokeRole",
      "outputs": [],
      "stateMutability": "nonpayable",
      "type": "function"
    },
    {
      "inputs": [
        {
          "internalType": "address",
          "name": "target",
          "type": "address"
        },
        {
          "internalType": "uint256",
          "name": "value",
          "type": "uint256"
        },
        {
          "internalType": "bytes",
          "name": "data",
          "type": "bytes"
        },
        {
          "internalType": "bytes32",
          "name": "predecessor",
          "type": "bytes32"
        },
        {
          "internalType": "bytes32",
          "name": "salt",
          "type": "bytes32"
        },
        {
          "internalType": "uint256",
          "name": "delay",
          "type": "uint256"
        }
      ],
      "name": "schedule",
      "outputs": [],
      "stateMutability": "nonpayable",
      "type": "function"
    },
    {
      "inputs": [
        {
          "internalType": "address[]",
          "name": "targets",
          "type": "address[]"
        },
        {
          "internalType": "uint256[]",
          "name": "values",
          "type": "uint256[]"
        },
        {
          "internalType": "bytes[]",
          "name": "payloads",
          "type": "bytes[]"
        },
        {
          "internalType": "bytes32",
          "name": "predecessor",
          "type": "bytes32"
        },
        {
          "internalType": "bytes32",
          "name": "salt",
          "type": "bytes32"
        },
        {
          "internalType": "uint256",
          "name": "delay",
          "type": "uint256"
        }
      ],
      "name": "scheduleBatch",
      "outputs": [],
      "stateMutability": "nonpayable",
      "type": "function"
    },
    {
      "inputs": [
        {
          "internalType": "address",
          "name": "_guardian",
          "type": "address"
        }
      ],
      "name": "setGuardian",
      "outputs": [],
      "stateMutability": "nonpayable",
      "type": "function"
    },
    {
      "inputs": [
        {
          "internalType": "bytes4",
          "name": "interfaceId",
          "type": "bytes4"
        }
      ],
      "name": "supportsInterface",
      "outputs": [
        {
          "internalType": "bool",
          "name": "",
          "type": "bool"
        }
      ],
      "stateMutability": "view",
      "type": "function"
    },
    {
      "inputs": [
        {
          "internalType": "uint256",
          "name": "newDelay",
          "type": "uint256"
        }
      ],
      "name": "updateDelay",
      "outputs": [],
      "stateMutability": "nonpayable",
      "type": "function"
    },
    {
      "stateMutability": "payable",
      "type": "receive"
    }
  ],
  "bytecode": "0x608060405234801561000f575f5ffd5b50604051612a00380380612a0083398101604081905261002e916105a3565b8383838361003c5f3061039b565b506001600160a01b03811615610058576100565f8261039b565b505b5f5b83518110156100d9576100995f5160206129c05f395f51905f5285838151811061008657610086610622565b602002602001015161039b60201b60201c565b506100d07ffd643c72710c63c0180259aba6b2d05451e3591a24e58b62239378085726f78385838151811061008657610086610622565b5060010161005a565b505f5b8251811015610111576101085f5160206129e05f395f51905f5284838151811061008657610086610622565b506001016100dc565b506002849055604080515f8152602081018690527f11c24f4ead16507c69ac467fbd5e4eed5fb5c699626d2cc6d66421df253886d5910160405180910390a15050505082515f036101755760405163d3a64a1360e01b815260040160405180910390fd5b81515f036101965760405163d3a64a1360e01b815260040160405180910390fd5b5f5b82518110156101f4575f6001600160a01b03168382815181106101bd576101bd610622565b60200260200101516001600160a01b0316036101ec57604051638bc50ded60e01b815260040160405180910390fd5b600101610198565b5061012c8410156102185760405163cc59bf4560e01b815260040160405180910390fd5b825f8151811061022a5761022a610622565b6020908102919091010151600380546001600160a01b0319166001600160a01b0390921691821790556040517fe6c09ffe4572dc9ceaa5ddde4ae41befa655d6fdfe8052077af0970f700e942e905f90a25f5b83518110156102ec576102e384828151811061029b5761029b610622565b6020908102919091018101515f5160206129c05f395f51905f525f5260049091527f6ed2ef71a77627c60097c2a1cfff7ec46b127ce677a57c4e06c08753040ac653906103d1565b5060010161027d565b505f5b825181101561035e5761035583828151811061030d5761030d610622565b6020908102919091018101515f5160206129e05f395f51905f525f5260049091527f605c9bcc2a785d357c847cdf9ba535548b7ee1949fe803dafbeae27005a16ff2906103d1565b506001016102ef565b505f805260046020526103917f17ef568e3e12ab5b9c7254a8d58478811de00f9e6eb34345acd53bf8fd09d3ec826103d1565b5050505050610636565b5f806103a784846103e5565b905080156103c8575f8481526004602052604090206103c690846103d1565b505b90505b92915050565b5f6103c8836001600160a01b03841661048c565b5f828152602081815260408083206001600160a01b038516845290915281205460ff16610485575f838152602081815260408083206001600160a01b03861684529091529020805460ff1916600117905561043d3390565b6001600160a01b0316826001600160a01b0316847f2f8788117e7eff1d82e926ec794901d17c78024a50270940304540a733656f0d60405160405180910390a45060016103cb565b505f6103cb565b5f81815260018301602052604081205461048557508154600181810184555f8481526020808220909301849055845484825282860190935260409020919091556103cb565b634e487b7160e01b5f52604160045260245ffd5b80516001600160a01b03811681146104fb575f5ffd5b919050565b5f82601f83011261050f575f5ffd5b81516001600160401b03811115610528576105286104d1565b604051600582901b90603f8201601f191681016001600160401b0381118282101715610556576105566104d1565b604052918252602081850181019290810186841115610573575f5ffd5b6020860192505b838310156105995761058b836104e5565b81526020928301920161057a565b5095945050505050565b5f5f5f5f608085870312156105b6575f5ffd5b845160208601519094506001600160401b038111156105d3575f5ffd5b6105df87828801610500565b604087015190945090506001600160401b038111156105fc575f5ffd5b61060887828801610500565b925050610617606086016104e5565b905092959194509250565b634e487b7160e01b5f52603260045260245ffd5b61237d806106435f395ff3fe608060405260043610610236575f3560e01c80638a0dac4a11610129578063bc197c81116100a8578063debfda301161006d578063debfda30146106f6578063e38335e514610715578063e964cdf314610728578063f23a6e6114610747578063f27a0c9214610772575f5ffd5b8063bc197c8114610643578063c4d252f51461066e578063ca15c8731461068d578063d45c4435146106ac578063d547741f146106d7575f5ffd5b8063a3246ad3116100ee578063a3246ad3146105a4578063b08e51c0146105d0578063b1b43ae5146105f0578063b1c5f42714610605578063b426475e14610624575f5ffd5b80638a0dac4a146105145780638f2a0bb0146105335780638f61f4f51461055257806391d1485414610572578063a217fddf14610591575f5ffd5b806336568abe116101b557806374ec29a01161017a57806374ec29a01461047757806375bc6159146104965780637958004c146104b55780638065657f146104e157806383b8a5ae14610500575f5ffd5b806336568abe146103c4578063452a9320146103e3578063479f04ae1461041a578063584b153e1461043957806364d6235314610458575f5ffd5b8063150b7a02116101fb578063150b7a02146102f6578063248a9ca3146103395780632ab0f529146103675780632f2ff15d1461038657806331d50750146103a5575f5ffd5b806301d5062a1461024157806301ffc9a71461026257806307bd026514610296578063134008d3146102c457806313bc9f20146102d7575f5ffd5b3661023d57005b5f5ffd5b34801561024c575f5ffd5b5061026061025b366004611a16565b610786565b005b34801561026d575f5ffd5b5061028161027c366004611a84565b610847565b60405190151581526020015b60405180910390f35b3480156102a1575f5ffd5b506102b65f5160206123085f395f51905f5281565b60405190815260200161028d565b6102606102d2366004611aab565b610857565b3480156102e2575f5ffd5b506102816102f1366004611b11565b6108f6565b348015610301575f5ffd5b50610320610310366004611bd7565b630a85bd0160e11b949350505050565b6040516001600160e01b0319909116815260200161028d565b348015610344575f5ffd5b506102b6610353366004611b11565b5f9081526020819052604090206001015490565b348015610372575f5ffd5b50610281610381366004611b11565b61091b565b348015610391575f5ffd5b506102606103a0366004611c3a565b610923565b3480156103b0575f5ffd5b506102816103bf366004611b11565b61094d565b3480156103cf575f5ffd5b506102606103de366004611c3a565b610971565b3480156103ee575f5ffd5b50600354610402906001600160a01b031681565b6040516001600160a01b03909116815260200161028d565b348015610425575f5ffd5b50610260610434366004611c64565b610a87565b348015610444575f5ffd5b50610281610453366004611b11565b610ae8565b348015610463575f5ffd5b50610260610472366004611b11565b610b2d565b348015610482575f5ffd5b50610281610491366004611c64565b610ba0565b3480156104a1575f5ffd5b506102606104b0366004611cbd565b610bb8565b3480156104c0575f5ffd5b506104d46104cf366004611b11565b610c54565b60405161028d9190611d0f565b3480156104ec575f5ffd5b506102b66104fb366004611aab565b610c9c565b34801561050b575f5ffd5b50610260610cda565b34801561051f575f5ffd5b5061026061052e366004611c64565b610d4e565b34801561053e575f5ffd5b5061026061054d366004611d35565b610dc9565b34801561055d575f5ffd5b506102b65f5160206122e85f395f51905f5281565b34801561057d575f5ffd5b5061028161058c366004611c3a565b610f42565b34801561059c575f5ffd5b506102b65f81565b3480156105af575f5ffd5b506105c36105be366004611b11565b610f6a565b60405161028d9190611de7565b3480156105db575f5ffd5b506102b65f5160206123285f395f51905f5281565b3480156105fb575f5ffd5b506102b661012c81565b348015610610575f5ffd5b506102b661061f366004611e32565b610f83565b34801561062f575f5ffd5b5061028161063e366004611c64565b610fc7565b34801561064e575f5ffd5b5061032061065d366004611f5b565b63bc197c8160e01b95945050505050565b348015610679575f5ffd5b50610260610688366004611b11565b610fdf565b348015610698575f5ffd5b506102b66106a7366004611b11565b611076565b3480156106b7575f5ffd5b506102b66106c6366004611b11565b5f9081526001602052604090205490565b3480156106e2575f5ffd5b506102606106f1366004611c3a565b61108c565b348015610701575f5ffd5b50610281610710366004611c64565b6111b7565b610260610723366004611e32565b6111cf565b348015610733575f5ffd5b50610260610742366004611c64565b61133d565b348015610752575f5ffd5b50610320610761366004612007565b63f23a6e6160e01b95945050505050565b34801561077d575f5ffd5b506002546102b6565b5f5160206122e85f395f51905f5261079d816113c5565b5f6107ac898989898989610c9c565b90506107b881846113d2565b5f817f4cf4410cc57040e44862ef0f45f3dd5a5e02db8eb8add648d4b0e236f1d07dca8b8b8b8b8b8a6040516107f396959493929190612082565b60405180910390a3831561083c57807f20fda5fd27a1ea7bf5b9567f143ac5470bb059374a27e8f67cb44f946f6d03878560405161083391815260200190565b60405180910390a25b505050505050505050565b5f61085182611463565b92915050565b5f5160206123085f395f51905f5261086f815f610f42565b61087d5761087d8133611487565b5f61088c888888888888610c9c565b905061089881856114c4565b6108a488888888611512565b5f817fc2617efa69bab66782fa219543714338489c4e9e178271560a91b82c3f612b588a8a8a8a6040516108db94939291906120be565b60405180910390a36108ec81611586565b5050505050505050565b5f60025b61090383610c54565b600381111561091457610914611cfb565b1492915050565b5f60036108fa565b5f8281526020819052604090206001015461093d816113c5565b61094783836115b1565b50505050565b5f8061095883610c54565b600381111561096957610969611cfb565b141592915050565b5f5160206122e85f395f51905f52821480156109cb57505f5160206122e85f395f51905f525f52600460205260016109c87f6ed2ef71a77627c60097c2a1cfff7ec46b127ce677a57c4e06c08753040ac6536115e4565b11155b156109e957604051636c2dd75d60e01b815260040160405180910390fd5b5f5160206123085f395f51905f5282148015610a4357505f5160206123085f395f51905f525f5260046020526001610a407f605c9bcc2a785d357c847cdf9ba535548b7ee1949fe803dafbeae27005a16ff26115e4565b11155b15610a6157604051630951673d60e31b815260040160405180910390fd5b610a6b82826115ed565b5f828152600460205260409020610a829082611620565b505050565b5f610a91816113c5565b610aa85f5160206123285f395f51905f5283611634565b505f5160206123285f395f51905f525f526004602052610a827f27ae3e2b535bc3d0b89daa96187384f44b0fcaba4bfe4a67e037001169e16b6383611620565b5f5f610af383610c54565b90506001816003811115610b0957610b09611cfb565b1480610b2657506002816003811115610b2457610b24611cfb565b145b9392505050565b33308114610b5e5760405163e2850c5960e01b81526001600160a01b03821660048201526024015b60405180910390fd5b60025460408051918252602082018490527f11c24f4ead16507c69ac467fbd5e4eed5fb5c699626d2cc6d66421df253886d5910160405180910390a150600255565b5f6108515f5160206122e85f395f51905f5283610f42565b5f5160206123285f395f51905f52610bcf816113c5565b5f5b82811015610c15575f848483818110610bec57610bec6120e5565b905060200201359050610bfe81610ae8565b15610c0c57610c0c81610fdf565b50600101610bd1565b507f4ce93e701e86ab9fad530da02b623a7eed1d0fa2ea21a94b47da2668fd6890418383604051610c47929190612129565b60405180910390a1505050565b5f81815260016020526040812054805f03610c7157505f92915050565b60018103610c825750600392915050565b42811115610c935750600192915050565b50600292915050565b5f868686868686604051602001610cb896959493929190612082565b6040516020818303038152906040528051906020012090509695505050505050565b5f610ce4816113c5565b610cee5f33610971565b5f80526004602052610d207f17ef568e3e12ab5b9c7254a8d58478811de00f9e6eb34345acd53bf8fd09d3ec33611620565b5060405133907f3aeb34a9cebce3c91879dc662fedfe0060c966cfcefb6985a595d1c0c56b8fca905f90a250565b5f610d58816113c5565b6001600160a01b038216610d7f57604051634f78996760e01b815260040160405180910390fd5b600380546001600160a01b0319166001600160a01b0384169081179091556040517fe6c09ffe4572dc9ceaa5ddde4ae41befa655d6fdfe8052077af0970f700e942e905f90a25050565b5f5160206122e85f395f51905f52610de0816113c5565b8887141580610def5750888514155b15610e21576040516001624fcdef60e01b03198152600481018a90526024810186905260448101889052606401610b55565b5f610e328b8b8b8b8b8b8b8b610f83565b9050610e3e81846113d2565b5f5b8a811015610ef35780827f4cf4410cc57040e44862ef0f45f3dd5a5e02db8eb8add648d4b0e236f1d07dca8e8e85818110610e7d57610e7d6120e5565b9050602002016020810190610e929190611c64565b8d8d86818110610ea457610ea46120e5565b905060200201358c8c87818110610ebd57610ebd6120e5565b9050602002810190610ecf9190612144565b8c8b604051610ee396959493929190612082565b60405180910390a3600101610e40565b508315610f3557807f20fda5fd27a1ea7bf5b9567f143ac5470bb059374a27e8f67cb44f946f6d038785604051610f2c91815260200190565b60405180910390a25b5050505050505050505050565b5f918252602082815260408084206001600160a01b0393909316845291905290205460ff1690565b5f8181526004602052604090206060906108519061165f565b5f8888888888888888604051602001610fa3989796959493929190612186565b60405160208183030381529060405280519060200120905098975050505050505050565b5f6108515f5160206123285f395f51905f5283610f42565b5f5160206123285f395f51905f52610ff6816113c5565b610fff82610ae8565b61103b578161100e600261166b565b611018600161166b565b604051635ead8eb560e01b81526004810193909352176024820152604401610b55565b5f828152600160205260408082208290555183917fbaa1eb22f2a492ba1a5fea61b8df4d27c6c8b5f3971e63bb58fa14ff72eedb7091a25050565b5f818152600460205260408120610851906115e4565b5f828152602081905260409020600101546110a6816113c5565b5f5160206122e85f395f51905f528314801561110057505f5160206122e85f395f51905f525f52600460205260016110fd7f6ed2ef71a77627c60097c2a1cfff7ec46b127ce677a57c4e06c08753040ac6536115e4565b11155b1561111e57604051636c2dd75d60e01b815260040160405180910390fd5b5f5160206123085f395f51905f528314801561117857505f5160206123085f395f51905f525f52600460205260016111757f605c9bcc2a785d357c847cdf9ba535548b7ee1949fe803dafbeae27005a16ff26115e4565b11155b1561119657604051630951673d60e31b815260040160405180910390fd5b6111a0838361168d565b5f8381526004602052604090206109479083611620565b5f6108515f5160206123085f395f51905f5283610f42565b5f5160206123085f395f51905f526111e7815f610f42565b6111f5576111f58133611487565b87861415806112045750878414155b15611236576040516001624fcdef60e01b03198152600481018990526024810185905260448101879052606401610b55565b5f6112478a8a8a8a8a8a8a8a610f83565b905061125381856114c4565b5f5b89811015611327575f8b8b83818110611270576112706120e5565b90506020020160208101906112859190611c64565b90505f8a8a8481811061129a5761129a6120e5565b905060200201359050365f8a8a868181106112b7576112b76120e5565b90506020028101906112c99190612144565b915091506112d984848484611512565b84867fc2617efa69bab66782fa219543714338489c4e9e178271560a91b82c3f612b588686868660405161131094939291906120be565b60405180910390a350505050806001019050611255565b5061133181611586565b50505050505050505050565b5f611347816113c5565b6001600160a01b03821661136e57604051634f78996760e01b815260040160405180910390fd5b6113855f5160206123285f395f51905f52836115b1565b505f5160206123285f395f51905f525f526004602052610a827f27ae3e2b535bc3d0b89daa96187384f44b0fcaba4bfe4a67e037001169e16b63836116b1565b6113cf8133611487565b50565b6113db8261094d565b1561140c57816113ea5f61166b565b604051635ead8eb560e01b815260048101929092526024820152604401610b55565b5f61141660025490565b90508082101561144357604051635433660960e01b81526004810183905260248101829052604401610b55565b61144d824261229e565b5f93845260016020526040909320929092555050565b5f6001600160e01b03198216630271189760e51b14806108515750610851826116c5565b6114918282610f42565b6114c05760405163e2517d3f60e01b81526001600160a01b038216600482015260248101839052604401610b55565b5050565b6114cd826108f6565b6114dc57816113ea600261166b565b80158015906114f157506114ef8161091b565b155b156114c05760405163121534c360e31b815260048101829052602401610b55565b5f5f856001600160a01b031685858560405161152f9291906122b1565b5f6040518083038185875af1925050503d805f8114611569576040519150601f19603f3d011682016040523d82523d5f602084013e61156e565b606091505b509150915061157d82826116f9565b50505050505050565b61158f816108f6565b61159e57806113ea600261166b565b5f90815260016020819052604090912055565b5f5f6115bd8484611736565b90508015610b26575f8481526004602052604090206115dc90846116b1565b509392505050565b5f610851825490565b6001600160a01b03811633146116165760405163334bd91960e11b815260040160405180910390fd5b610a828282611634565b5f610b26836001600160a01b0384166117c5565b5f5f61164084846118a8565b90508015610b26575f8481526004602052604090206115dc9084611620565b60605f610b2683611911565b5f81600381111561167e5761167e611cfb565b600160ff919091161b92915050565b5f828152602081905260409020600101546116a7816113c5565b6109478383611634565b5f610b26836001600160a01b03841661196a565b5f6001600160e01b03198216637965db0b60e01b148061085157506301ffc9a760e01b6001600160e01b0319831614610851565b60608215611708575080610851565b81511561171d57611718826119af565b610851565b60405163d6bda27560e01b815260040160405180910390fd5b5f6117418383610f42565b6117be575f838152602081815260408083206001600160a01b03861684529091529020805460ff191660011790556117763390565b6001600160a01b0316826001600160a01b0316847f2f8788117e7eff1d82e926ec794901d17c78024a50270940304540a733656f0d60405160405180910390a4506001610851565b505f610851565b5f818152600183016020526040812054801561189f575f6117e76001836122c0565b85549091505f906117fa906001906122c0565b9050808214611859575f865f018281548110611818576118186120e5565b905f5260205f200154905080875f018481548110611838576118386120e5565b5f918252602080832090910192909255918252600188019052604090208390555b855486908061186a5761186a6122d3565b600190038181905f5260205f20015f90559055856001015f8681526020019081526020015f205f905560019350505050610851565b5f915050610851565b5f6118b38383610f42565b156117be575f838152602081815260408083206001600160a01b0386168085529252808320805460ff1916905551339286917ff6391f5c32d9c69d2a47ea670b442974b53935d1edc7fd64eb21e047a839171b9190a4506001610851565b6060815f0180548060200260200160405190810160405280929190818152602001828054801561195e57602002820191905f5260205f20905b81548152602001906001019080831161194a575b50505050509050919050565b5f8181526001830160205260408120546117be57508154600181810184555f848152602080822090930184905584548482528286019093526040902091909155610851565b805160208201fd5b80356001600160a01b03811681146119cd575f5ffd5b919050565b5f5f83601f8401126119e2575f5ffd5b5081356001600160401b038111156119f8575f5ffd5b602083019150836020828501011115611a0f575f5ffd5b9250929050565b5f5f5f5f5f5f5f60c0888a031215611a2c575f5ffd5b611a35886119b7565b96506020880135955060408801356001600160401b03811115611a56575f5ffd5b611a628a828b016119d2565b989b979a50986060810135976080820135975060a09091013595509350505050565b5f60208284031215611a94575f5ffd5b81356001600160e01b031981168114610b26575f5ffd5b5f5f5f5f5f5f60a08789031215611ac0575f5ffd5b611ac9876119b7565b95506020870135945060408701356001600160401b03811115611aea575f5ffd5b611af689828a016119d2565b979a9699509760608101359660809091013595509350505050565b5f60208284031215611b21575f5ffd5b5035919050565b634e487b7160e01b5f52604160045260245ffd5b604051601f8201601f191681016001600160401b0381118282101715611b6457611b64611b28565b604052919050565b5f82601f830112611b7b575f5ffd5b81356001600160401b03811115611b9457611b94611b28565b611ba7601f8201601f1916602001611b3c565b818152846020838601011115611bbb575f5ffd5b816020850160208301375f918101602001919091529392505050565b5f5f5f5f60808587031215611bea575f5ffd5b611bf3856119b7565b9350611c01602086016119b7565b92506040850135915060608501356001600160401b03811115611c22575f5ffd5b611c2e87828801611b6c565b91505092959194509250565b5f5f60408385031215611c4b575f5ffd5b82359150611c5b602084016119b7565b90509250929050565b5f60208284031215611c74575f5ffd5b610b26826119b7565b5f5f83601f840112611c8d575f5ffd5b5081356001600160401b03811115611ca3575f5ffd5b6020830191508360208260051b8501011115611a0f575f5ffd5b5f5f60208385031215611cce575f5ffd5b82356001600160401b03811115611ce3575f5ffd5b611cef85828601611c7d565b90969095509350505050565b634e487b7160e01b5f52602160045260245ffd5b6020810160048310611d2f57634e487b7160e01b5f52602160045260245ffd5b91905290565b5f5f5f5f5f5f5f5f5f60c08a8c031215611d4d575f5ffd5b89356001600160401b03811115611d62575f5ffd5b611d6e8c828d01611c7d565b909a5098505060208a01356001600160401b03811115611d8c575f5ffd5b611d988c828d01611c7d565b90985096505060408a01356001600160401b03811115611db6575f5ffd5b611dc28c828d01611c7d565b9a9d999c50979a969997986060880135976080810135975060a0013595509350505050565b602080825282518282018190525f918401906040840190835b81811015611e275783516001600160a01b0316835260209384019390920191600101611e00565b509095945050505050565b5f5f5f5f5f5f5f5f60a0898b031215611e49575f5ffd5b88356001600160401b03811115611e5e575f5ffd5b611e6a8b828c01611c7d565b90995097505060208901356001600160401b03811115611e88575f5ffd5b611e948b828c01611c7d565b90975095505060408901356001600160401b03811115611eb2575f5ffd5b611ebe8b828c01611c7d565b999c989b509699959896976060870135966080013595509350505050565b5f82601f830112611eeb575f5ffd5b81356001600160401b03811115611f0457611f04611b28565b8060051b611f1460208201611b3c565b91825260208185018101929081019086841115611f2f575f5ffd5b6020860192505b83831015611f51578235825260209283019290910190611f36565b9695505050505050565b5f5f5f5f5f60a08688031215611f6f575f5ffd5b611f78866119b7565b9450611f86602087016119b7565b935060408601356001600160401b03811115611fa0575f5ffd5b611fac88828901611edc565b93505060608601356001600160401b03811115611fc7575f5ffd5b611fd388828901611edc565b92505060808601356001600160401b03811115611fee575f5ffd5b611ffa88828901611b6c565b9150509295509295909350565b5f5f5f5f5f60a0868803121561201b575f5ffd5b612024866119b7565b9450612032602087016119b7565b9350604086013592506060860135915060808601356001600160401b03811115611fee575f5ffd5b81835281816020850137505f828201602090810191909152601f909101601f19169091010190565b60018060a01b038716815285602082015260a060408201525f6120a960a08301868861205a565b60608301949094525060800152949350505050565b60018060a01b0385168152836020820152606060408201525f611f5160608301848661205a565b634e487b7160e01b5f52603260045260245ffd5b8183525f6001600160fb1b03831115612110575f5ffd5b8260051b80836020870137939093016020019392505050565b602081525f61213c6020830184866120f9565b949350505050565b5f5f8335601e19843603018112612159575f5ffd5b8301803591506001600160401b03821115612172575f5ffd5b602001915036819003821315611a0f575f5ffd5b60a080825281018890525f8960c08301825b8b8110156121c6576001600160a01b036121b1846119b7565b16825260209283019290910190600101612198565b5083810360208501526121da818a8c6120f9565b8481036040860152878152915050602080820190600588901b830101885f36829003601e19015b8a82101561226e57858403601f19018552823581811261221f575f5ffd5b8c016020810190356001600160401b0381111561223a575f5ffd5b803603821315612248575f5ffd5b61225386828461205a565b95505050602083019250602085019450600182019150612201565b5050506060850196909652505050608001529695505050505050565b634e487b7160e01b5f52601160045260245ffd5b808201808211156108515761085161228a565b818382375f9101908152919050565b818103818111156108515761085161228a565b634e487b7160e01b5f52603160045260245ffdfeb09aa5aeb3702cfd50b6b62bc4532604938f21248a27a1d5ca736082b6819cc1d8aa0f3194971a2a116679f7c2090f6939c8d4e01a2a8d7e41d55e5351469e63fd643c72710c63c0180259aba6b2d05451e3591a24e58b62239378085726f783a2646970667358221220c33d5a123e1abf108ed8daced9036c19f25dcae7894e25063aeb6b54b059593764736f6c634300081b0033b09aa5aeb3702cfd50b6b62bc4532604938f21248a27a1d5ca736082b6819cc1d8aa0f3194971a2a116679f7c2090f6939c8d4e01a2a8d7e41d55e5351469e63",
  "linkReferences": {},
  "deployedLinkReferences": {}
}