{
  "_format": "hh-sol-artifact-1",
  "contractName": "Sale",
  "sourceName": "contracts/Sale.sol",
  "abi": [
    {
      "inputs": [
        {
          "internalType": "address",
          "name": "_token",
          "type": "address"
        },
        {
          "internalType": "address",
          "name": "_vesting",
          "type": "address"
        },
        {
          "internalType": "address",
          "name": "_oracle",
          "type": "address"
        },
        {
          "internalType": "address",
          "name": "_treasury",
          "type": "address"
        },
        {
          "internalType": "address",
          "name": "admin",
          "type": "address"
        },
        {
          "internalType": "uint256",
          "name": "_saleCap",
          "type": "uint256"
        },
        {
          "internalType": "uint256",
          "name": "_walletCap",
          "type": "uint256"
        },
        {
          "internalType": "uint256",
          "name": "_minPurchase",
          "type": "uint256"
        },
        {
          "internalType": "uint256",
          "name": "_start",
          "type": "uint256"
        },
        {
          "internalType": "uint256",
          "name": "_end",
          "type": "uint256"
        }
      ],
      "stateMutability": "nonpayable",
      "type": "constructor"
    },
    {
      "inputs": [],
      "name": "AccessControlBadConfirmation",
      "type": "error"
    },
    {
      "inputs": [
        {
          "internalType": "address",
          "name": "account",
          "type": "address"
        },
        {
          "internalType": "bytes32",
          "name": "neededRole",
          "type": "bytes32"
        }
      ],
      "name": "AccessControlUnauthorizedAccount",
      "type": "error"
    },
    {
      "inputs": [],
      "name": "EnforcedPause",
      "type": "error"
    },
    {
      "inputs": [],
      "name": "ExpectedPause",
      "type": "error"
    },
    {
      "inputs": [],
      "name": "ReentrancyGuardReentrantCall",
      "type": "error"
    },
    {
      "inputs": [
        {
          "internalType": "address",
          "name": "token",
          "type": "address"
        }
      ],
      "name": "SafeERC20FailedOperation",
      "type": "error"
    },
    {
      "inputs": [],
      "name": "Sale__BelowMinPurchase",
      "type": "error"
    },
    {
      "inputs": [],
      "name": "Sale__Cooldown",
      "type": "error"
    },
    {
      "inputs": [],
      "name": "Sale__CurrencyNotSupported",
      "type": "error"
    },
    {
      "inputs": [],
      "name": "Sale__ExceedsSaleCap",
      "type": "error"
    },
    {
      "inputs": [],
      "name": "Sale__ExceedsWalletCap",
      "type": "error"
    },
    {
      "inputs": [],
      "name": "Sale__Finalized",
      "type": "error"
    },
    {
      "inputs": [],
      "name": "Sale__InsufficientVesting",
      "type": "error"
    },
    {
      "inputs": [],
      "name": "Sale__InvalidToken",
      "type": "error"
    },
    {
      "inputs": [],
      "name": "Sale__NotActive",
      "type": "error"
    },
    {
      "inputs": [],
      "name": "Sale__NotFinalized",
      "type": "error"
    },
    {
      "inputs": [],
      "name": "Sale__NothingToReclaim",
      "type": "error"
    },
    {
      "inputs": [],
      "name": "Sale__ZeroAddress",
      "type": "error"
    },
    {
      "anonymous": false,
      "inputs": [
        {
          "indexed": false,
          "internalType": "uint256",
          "name": "newCooldown",
          "type": "uint256"
        }
      ],
      "name": "CooldownUpdated",
      "type": "event"
    },
    {
      "anonymous": false,
      "inputs": [
        {
          "indexed": false,
          "internalType": "uint256",
          "name": "timestamp",
          "type": "uint256"
        }
      ],
      "name": "Finalized",
      "type": "event"
    },
    {
      "anonymous": false,
      "inputs": [
        {
          "indexed": false,
          "internalType": "uint256",
          "name": "newMin",
          "type": "uint256"
        }
      ],
      "name": "MinPurchaseUpdated",
      "type": "event"
    },
    {
      "anonymous": false,
      "inputs": [
        {
          "indexed": false,
          "internalType": "address",
          "name": "account",
          "type": "address"
        }
      ],
      "name": "Paused",
      "type": "event"
    },
    {
      "anonymous": false,
      "inputs": [
        {
          "indexed": true,
          "internalType": "address",
          "name": "user",
          "type": "address"
        },
        {
          "indexed": true,
          "internalType": "address",
          "name": "currency",
          "type": "address"
        },
        {
          "indexed": false,
          "internalType": "uint256",
          "name": "paid",
          "type": "uint256"
        },
        {
          "indexed": false,
          "internalType": "uint256",
          "name": "tokens",
          "type": "uint256"
        }
      ],
      "name": "Purchased",
      "type": "event"
    },
    {
      "anonymous": false,
      "inputs": [
        {
          "indexed": true,
          "internalType": "bytes32",
          "name": "role",
          "type": "bytes32"
        },
        {
          "indexed": true,
          "internalType": "bytes32",
          "name": "previousAdminRole",
          "type": "bytes32"
        },
        {
          "indexed": true,
          "internalType": "bytes32",
          "name": "newAdminRole",
          "type": "bytes32"
        }
      ],
      "name": "RoleAdminChanged",
      "type": "event"
    },
    {
      "anonymous": false,
      "inputs": [
        {
          "indexed": true,
          "internalType": "bytes32",
          "name": "role",
          "type": "bytes32"
        },
        {
          "indexed": true,
          "internalType": "address",
          "name": "account",
          "type": "address"
        },
        {
          "indexed": true,
          "internalType": "address",
          "name": "sender",
          "type": "address"
        }
      ],
      "name": "RoleGranted",
      "type": "event"
    },
    {
      "anonymous": false,
      "inputs": [
        {
          "indexed": true,
          "internalType": "bytes32",
          "name": "role",
          "type": "bytes32"
        },
        {
          "indexed": true,
          "internalType": "address",
          "name": "account",
          "type": "address"
        },
        {
          "indexed": true,
          "internalType": "address",
          "name": "sender",
          "type": "address"
        }
      ],
      "name": "RoleRevoked",
      "type": "event"
    },
    {
      "anonymous": false,
      "inputs": [
        {
          "indexed": false,
          "internalType": "address",
          "name": "account",
          "type": "address"
        }
      ],
      "name": "Unpaused",
      "type": "event"
    },
    {
      "anonymous": false,
      "inputs": [
        {
          "indexed": false,
          "internalType": "uint256",
          "name": "amount",
          "type": "uint256"
        }
      ],
      "name": "UnsoldReclaimed",
      "type": "event"
    },
    {
      "anonymous": false,
      "inputs": [
        {
          "indexed": false,
          "internalType": "uint256",
          "name": "newCap",
          "type": "uint256"
        }
      ],
      "name": "WalletCapUpdated",
      "type": "event"
    },
    {
      "inputs": [],
      "name": "DEFAULT_ADMIN_ROLE",
      "outputs": [
        {
          "internalType": "bytes32",
          "name": "",
          "type": "bytes32"
        }
      ],
      "stateMutability": "view",
      "type": "function"
    },
    {
      "inputs": [],
      "name": "OPERATOR_ROLE",
      "outputs": [
        {
          "internalType": "bytes32",
          "name": "",
          "type": "bytes32"
        }
      ],
      "stateMutability": "view",
      "type": "function"
    },
    {
      "inputs": [
        {
          "internalType": "address",
          "name": "",
          "type": "address"
        }
      ],
      "name": "bought",
      "outputs": [
        {
          "internalType": "uint256",
          "name": "",
          "type": "uint256"
        }
      ],
      "stateMutability": "view",
      "type": "function"
    },
    {
      "inputs": [],
      "name": "buyETH",
      "outputs": [],
      "stateMutability": "payable",
      "type": "function"
    },
    {
      "inputs": [
        {
          "internalType": "address",
          "name": "currency",
          "type": "address"
        },
        {
          "internalType": "uint256",
          "name": "amount",
          "type": "uint256"
        }
      ],
      "name": "buyToken",
      "outputs": [],
      "stateMutability": "nonpayable",
      "type": "function"
    },
    {
      "inputs": [],
      "name": "cooldown",
      "outputs": [
        {
          "internalType": "uint256",
          "name": "",
          "type": "uint256"
        }
      ],
      "stateMutability": "view",
      "type": "function"
    },
    {
      "inputs": [],
      "name": "finalize",
      "outputs": [],
      "stateMutability": "nonpayable",
      "type": "function"
    },
    {
      "inputs": [],
      "name": "finalized",
      "outputs": [
        {
          "internalType": "bool",
          "name": "",
          "type": "bool"
        }
      ],
      "stateMutability": "view",
      "type": "function"
    },
    {
      "inputs": [
        {
          "internalType": "bytes32",
          "name": "role",
          "type": "bytes32"
        }
      ],
      "name": "getRoleAdmin",
      "outputs": [
        {
          "internalType": "bytes32",
          "name": "",
          "type": "bytes32"
        }
      ],
      "stateMutability": "view",
      "type": "function"
    },
    {
      "inputs": [
        {
          "internalType": "bytes32",
          "name": "role",
          "type": "bytes32"
        },
        {
          "internalType": "address",
          "name": "account",
          "type": "address"
        }
      ],
      "name": "grantRole",
      "outputs": [],
      "stateMutability": "nonpayable",
      "type": "function"
    },
    {
      "inputs": [
        {
          "internalType": "bytes32",
          "name": "role",
          "type": "bytes32"
        },
        {
          "internalType": "address",
          "name": "account",
          "type": "address"
        }
      ],
      "name": "hasRole",
      "outputs": [
        {
          "internalType": "bool",
          "name": "",
          "type": "bool"
        }
      ],
      "stateMutability": "view",
      "type": "function"
    },
    {
      "inputs": [
        {
          "internalType": "address",
          "name": "",
          "type": "address"
        }
      ],
      "name": "lastBuy",
      "outputs": [
        {
          "internalType": "uint256",
          "name": "",
          "type": "uint256"
        }
      ],
      "stateMutability": "view",
      "type": "function"
    },
    {
      "inputs": [],
      "name": "minPurchase",
      "outputs": [
        {
          "internalType": "uint256",
          "name": "",
          "type": "uint256"
        }
      ],
      "stateMutability": "view",
      "type": "function"
    },
    {
      "inputs": [],
      "name": "pause",
      "outputs": [],
      "stateMutability": "nonpayable",
      "type": "function"
    },
    {
      "inputs": [],
      "name": "paused",
      "outputs": [
        {
          "internalType": "bool",
          "name": "",
          "type": "bool"
        }
      ],
      "stateMutability": "view",
      "type": "function"
    },
    {
      "inputs": [],
      "name": "priceOracle",
      "outputs": [
        {
          "internalType": "contract IPriceOracle",
          "name": "",
          "type": "address"
        }
      ],
      "stateMutability": "view",
      "type": "function"
    },
    {
      "inputs": [],
      "name": "reclaimUnsold",
      "outputs": [],
      "stateMutability": "nonpayable",
      "type": "function"
    },
    {
      "inputs": [
        {
          "internalType": "bytes32",
          "name": "role",
          "type": "bytes32"
        },
        {
          "internalType": "address",
          "name": "callerConfirmation",
          "type": "address"
        }
      ],
      "name": "renounceRole",
      "outputs": [],
      "stateMutability": "nonpayable",
      "type": "function"
    },
    {
      "inputs": [
        {
          "internalType": "bytes32",
          "name": "role",
          "type": "bytes32"
        },
        {
          "internalType": "address",
          "name": "account",
          "type": "address"
        }
      ],
      "name": "revokeRole",
      "outputs": [],
      "stateMutability": "nonpayable",
      "type": "function"
    },
    {
      "inputs": [],
      "name": "saleCap",
      "outputs": [
        {
          "internalType": "uint256",
          "name": "",
          "type": "uint256"
        }
      ],
      "stateMutability": "view",
      "type": "function"
    },
    {
      "inputs": [],
      "name": "saleEnd",
      "outputs": [
        {
          "internalType": "uint256",
          "name": "",
          "type": "uint256"
        }
      ],
      "stateMutability": "view",
      "type": "function"
    },
    {
      "inputs": [],
      "name": "saleStart",
      "outputs": [
        {
          "internalType": "uint256",
          "name": "",
          "type": "uint256"
        }
      ],
      "stateMutability": "view",
      "type": "function"
    },
    {
      "inputs": [
        {
          "internalType": "uint256",
          "name": "c",
          "type": "uint256"
        }
      ],
      "name": "setCooldown",
      "outputs": [],
      "stateMutability": "nonpayable",
      "type": "function"
    },
    {
      "inputs": [
        {
          "internalType": "uint256",
          "name": "min",
          "type": "uint256"
        }
      ],
      "name": "setMinPurchase",
      "outputs": [],
      "stateMutability": "nonpayable",
      "type": "function"
    },
    {
      "inputs": [
        {
          "internalType": "uint256",
          "name": "cap",
          "type": "uint256"
        }
      ],
      "name": "setWalletCap",
      "outputs": [],
      "stateMutability": "nonpayable",
      "type": "function"
    },
    {
      "inputs": [
        {
          "internalType": "bytes4",
          "name": "interfaceId",
          "type": "bytes4"
        }
      ],
      "name": "supportsInterface",
      "outputs": [
        {
          "internalType": "bool",
          "name": "",
          "type": "bool"
        }
      ],
      "stateMutability": "view",
      "type": "function"
    },
    {
      "inputs": [],
      "name": "token",
      "outputs": [
        {
          "internalType": "address",
          "name": "",
          "type": "address"
        }
      ],
      "stateMutability": "view",
      "type": "function"
    },
    {
      "inputs": [],
      "name": "totalSold",
      "outputs": [
        {
          "internalType": "uint256",
          "name": "",
          "type": "uint256"
        }
      ],
      "stateMutability": "view",
      "type": "function"
    },
    {
      "inputs": [],
      "name": "treasury",
      "outputs": [
        {
          "internalType": "address",
          "name": "",
          "type": "address"
        }
      ],
      "stateMutability": "view",
      "type": "function"
    },
    {
      "inputs": [],
      "name": "unpause",
      "outputs": [],
      "stateMutability": "nonpayable",
      "type": "function"
    },
    {
      "inputs": [],
      "name": "vesting",
      "outputs": [
        {
          "internalType": "contract IVesting",
          "name": "",
          "type": "address"
        }
      ],
      "stateMutability": "view",
      "type": "function"
    },
    {
      "inputs": [],
      "name": "walletCap",
      "outputs": [
        {
          "internalType": "uint256",
          "name": "",
          "type": "uint256"
        }
      ],
      "stateMutability": "view",
      "type": "function"
    }
  ],
  "bytecode": "0x60a0604052603c600a55348015610014575f5ffd5b506040516118a83803806118a883398101604081905261003391610237565b60017f9b779b17422d0df92223018b32b4d1fa46e071723d6817e2486d003becc55f00556001600160a01b038a16158061007457506001600160a01b038916155b8061008657506001600160a01b038816155b8061009857506001600160a01b038716155b806100aa57506001600160a01b038616155b156100c757604051629f961960e01b815260040160405180910390fd5b6001600160a01b038a811660805260018054610100600160a81b0319166101008c841602179055600280546001600160a01b03199081168b84161790915560038054909116918916919091179055600485905560058490556006839055600882905560098190556101385f87610173565b506101637f97667070c54ef182b0f5858b034beac1b6f3089aa2d3188bb1e8929f4fa9b92987610173565b50505050505050505050506102e1565b5f828152602081815260408083206001600160a01b038516845290915281205460ff16610213575f838152602081815260408083206001600160a01b03861684529091529020805460ff191660011790556101cb3390565b6001600160a01b0316826001600160a01b0316847f2f8788117e7eff1d82e926ec794901d17c78024a50270940304540a733656f0d60405160405180910390a4506001610216565b505f5b92915050565b80516001600160a01b0381168114610232575f5ffd5b919050565b5f5f5f5f5f5f5f5f5f5f6101408b8d031215610251575f5ffd5b61025a8b61021c565b995061026860208c0161021c565b985061027660408c0161021c565b975061028460608c0161021c565b965061029260808c0161021c565b95505f60a08c01519050809550505f60c08c01519050809450505f60e08c01519050809350505f6101008c01519050809250505f6101208c01519050809150509295989b9194979a5092959850565b60805161159a61030e5f395f818161057801528181610614015281816106b801526112c8015261159a5ff3fe6080604052600436106101db575f3560e01c8063667022fd116100fd578063b3f05b9711610092578063e8307d0011610062578063e8307d0014610520578063f5b541a61461053f578063fba7d6501461055f578063fc0c546a14610567575f5ffd5b8063b3f05b97146104a8578063c10b9358146104c1578063c1adf7bc146104d6578063d547741f14610501575f5ffd5b80639106d7ba116100cd5780639106d7ba1461044c57806391d1485414610461578063a217fddf14610480578063ab0bcc4114610493575f5ffd5b8063667022fd146103d957806368f8fc1014610404578063787a08a6146104235780638456cb5914610438575f5ffd5b80633f4ba83a1161017357806358950c221161014357806358950c221461036f5780635c975abb1461038457806361d027b31461039b57806365a64668146103ba575f5ffd5b80633f4ba83a1461030457806344c63eec146103185780634bb278f31461033c5780634fc3f41a14610350575f5ffd5b80632630c12f116101ae5780632630c12f1461027a5780632f2ff15d146102b157806333b5b62e146102d057806336568abe146102e5575f5ffd5b806301ffc9a7146101df578063078fd9ea14610213578063155af54214610236578063248a9ca31461024c575b5f5ffd5b3480156101ea575f5ffd5b506101fe6101f93660046113be565b61059a565b60405190151581526020015b60405180910390f35b34801561021e575f5ffd5b5061022860045481565b60405190815260200161020a565b348015610241575f5ffd5b5061024a6105d0565b005b348015610257575f5ffd5b506102286102663660046113ec565b5f9081526020819052604090206001015490565b348015610285575f5ffd5b50600254610299906001600160a01b031681565b6040516001600160a01b03909116815260200161020a565b3480156102bc575f5ffd5b5061024a6102cb36600461141e565b610719565b3480156102db575f5ffd5b5061022860065481565b3480156102f0575f5ffd5b5061024a6102ff36600461141e565b610743565b34801561030f575f5ffd5b5061024a61077b565b348015610323575f5ffd5b506001546102999061010090046001600160a01b031681565b348015610347575f5ffd5b5061024a61079d565b34801561035b575f5ffd5b5061024a61036a3660046113ec565b610815565b34801561037a575f5ffd5b5061022860055481565b34801561038f575f5ffd5b5060015460ff166101fe565b3480156103a6575f5ffd5b50600354610299906001600160a01b031681565b3480156103c5575f5ffd5b5061024a6103d43660046113ec565b610885565b3480156103e4575f5ffd5b506102286103f3366004611448565b600c6020525f908152604090205481565b34801561040f575f5ffd5b5061024a61041e366004611461565b6108f5565b34801561042e575f5ffd5b50610228600a5481565b348015610443575f5ffd5b5061024a61099a565b348015610457575f5ffd5b5061022860075481565b34801561046c575f5ffd5b506101fe61047b36600461141e565b6109b9565b34801561048b575f5ffd5b506102285f81565b34801561049e575f5ffd5b5061022860085481565b3480156104b3575f5ffd5b50600b546101fe9060ff1681565b3480156104cc575f5ffd5b5061022860095481565b3480156104e1575f5ffd5b506102286104f0366004611448565b600d6020525f908152604090205481565b34801561050c575f5ffd5b5061024a61051b36600461141e565b6109e1565b34801561052b575f5ffd5b5061024a61053a3660046113ec565b610a05565b34801561054a575f5ffd5b506102285f5160206115255f395f51905f5281565b61024a610a75565b348015610572575f5ffd5b506102997f000000000000000000000000000000000000000000000000000000000000000081565b5f6001600160e01b03198216637965db0b60e01b14806105ca57506301ffc9a760e01b6001600160e01b03198316145b92915050565b5f6105da81610b66565b600b5460ff166105fd5760405163eb16eddd60e01b815260040160405180910390fd5b6040516370a0823160e01b81523060048201525f907f00000000000000000000000000000000000000000000000000000000000000006001600160a01b0316906370a0823190602401602060405180830381865afa158015610661573d5f5f3e3d5ffd5b505050506040513d601f19601f820116820180604052508101906106859190611489565b9050805f036106a757604051637ba4e4b960e11b815260040160405180910390fd5b6003546106e1906001600160a01b037f00000000000000000000000000000000000000000000000000000000000000008116911683610b70565b6040518181527f296556412c017ddbd96a4c209870debaafbddfa13cf7ea635a8858e66daed2ec906020015b60405180910390a15050565b5f8281526020819052604090206001015461073381610b66565b61073d8383610baa565b50505050565b6001600160a01b038116331461076c5760405163334bd91960e11b815260040160405180910390fd5b6107768282610c39565b505050565b5f5160206115255f395f51905f5261079281610b66565b61079a610ca2565b50565b5f6107a781610b66565b6009544210156107ca576040516360dd76ed60e11b815260040160405180910390fd5b600b805460ff191660011790556107df610cf4565b6040514281527f839cf22e1ba87ce2f5b9bbf46cf0175a09eed52febdfaac8852478e68203c7639060200160405180910390a150565b5f5160206115255f395f51905f5261082c81610b66565b600b5460ff1615610850576040516362cd53d560e01b815260040160405180910390fd5b600a8290556040518281527f583d8b24c5439ab7d810e51e37e8db41ba66f1168fd7b752ceae0c7681c5272c9060200161070d565b5f5160206115255f395f51905f5261089c81610b66565b600b5460ff16156108c0576040516362cd53d560e01b815260040160405180910390fd5b60058290556040518281527f4784309e6b1f1431c711eac5e572f9ba2d542ecb5428efc0e927b794f4e8e2c19060200161070d565b6108fd610d2f565b610905610d4a565b600b5460ff1615610929576040516362cd53d560e01b815260040160405180910390fd5b6001600160a01b0382166109505760405163cbd03a0360e01b815260040160405180910390fd5b61095a8282610d6e565b600354610976906001600160a01b038481169133911684610f93565b6109808282610fc9565b61099660015f5160206115455f395f51905f5255565b5050565b5f5160206115255f395f51905f526109b181610b66565b61079a610cf4565b5f918252602082815260408084206001600160a01b0393909316845291905290205460ff1690565b5f828152602081905260409020600101546109fb81610b66565b61073d8383610c39565b5f5160206115255f395f51905f52610a1c81610b66565b600b5460ff1615610a40576040516362cd53d560e01b815260040160405180910390fd5b60068290556040518281527faa5cd4951ddd9c7655806cf5372041af8c3d11d707ee625a1493401a51feb8019060200161070d565b610a7d610d2f565b610a85610d4a565b600b5460ff1615610aa9576040516362cd53d560e01b815260040160405180910390fd5b345f03610ac95760405163314e214160e11b815260040160405180910390fd5b610ad35f34610d6e565b610add5f34610fc9565b6003546040515f916001600160a01b03169034908381818185875af1925050503d805f8114610b27576040519150601f19603f3d011682016040523d82523d5f602084013e610b2c565b606091505b5050905080610b4d57604051629f961960e01b815260040160405180910390fd5b50610b6460015f5160206115455f395f51905f5255565b565b61079a8133611139565b610b7d8383836001611172565b61077657604051635274afe760e01b81526001600160a01b03841660048201526024015b60405180910390fd5b5f610bb583836109b9565b610c32575f838152602081815260408083206001600160a01b03861684529091529020805460ff19166001179055610bea3390565b6001600160a01b0316826001600160a01b0316847f2f8788117e7eff1d82e926ec794901d17c78024a50270940304540a733656f0d60405160405180910390a45060016105ca565b505f6105ca565b5f610c4483836109b9565b15610c32575f838152602081815260408083206001600160a01b0386168085529252808320805460ff1916905551339286917ff6391f5c32d9c69d2a47ea670b442974b53935d1edc7fd64eb21e047a839171b9190a45060016105ca565b610caa6111d4565b6001805460ff191690557f5db9ee0a495bf2e6ff9c91a7834c1ba4fdd244a5e8aa4e537bd38aeae4b073aa335b6040516001600160a01b03909116815260200160405180910390a1565b610cfc610d4a565b6001805460ff1916811790557f62e78cea01bee320cd4e420270b5ea74000d11b0c9f74754ebdbfc544b05a25833610cd7565b610d376111f7565b60025f5160206115455f395f51905f5255565b60015460ff1615610b645760405163d93c066560e01b815260040160405180910390fd5b600854421080610d7f575060095442115b15610d9d576040516360dd76ed60e11b815260040160405180910390fd5b60025460405163dfa1416360e01b81526001600160a01b0384811660048301525f92169063dfa1416390602401606060405180830381865afa158015610de5573d5f5f3e3d5ffd5b505050506040513d601f19601f82011682018060405250810190610e0991906114a0565b5050905080610e2b57604051633d5d3fb560e21b815260040160405180910390fd5b6002546040516347bc983760e11b81526001600160a01b038581166004830152602482018590525f921690638f79306e90604401602060405180830381865afa158015610e7a573d5f5f3e3d5ffd5b505050506040513d601f19601f82011682018060405250810190610e9e9190611489565b9050600654811015610ec35760405163314e214160e11b815260040160405180910390fd5b600554335f908152600c6020526040902054610ee09083906114fe565b1115610eff576040516303296fd960e51b815260040160405180910390fd5b60045481600754610f1091906114fe565b1115610f2f57604051634cf7fb7560e11b815260040160405180910390fd5b600a54335f908152600d6020526040902054610f4b91906114fe565b421015610f6b57604051633d6e2e6b60e21b815260040160405180910390fd5b610f73611226565b81111561073d57604051639689e85960e01b815260040160405180910390fd5b610fa1848484846001611351565b61073d57604051635274afe760e01b81526001600160a01b0385166004820152602401610ba1565b6002546040516347bc983760e11b81526001600160a01b038481166004830152602482018490525f921690638f79306e90604401602060405180830381865afa158015611018573d5f5f3e3d5ffd5b505050506040513d601f19601f8201168201806040525081019061103c9190611489565b60015460405163b78b52df60e01b81523360048201526024810183905291925061010090046001600160a01b03169063b78b52df906044015f604051808303815f87803b15801561108b575f5ffd5b505af115801561109d573d5f5f3e3d5ffd5b5050335f908152600c6020526040812080548594509092506110c09084906114fe565b925050819055508060075f8282546110d891906114fe565b9091555050335f818152600d602090815260409182902042905581518581529081018490526001600160a01b03861692917fa326259ec721617acd3cb2a00bcbeac91eefe409880e49aa2bbf473ed648da49910160405180910390a3505050565b61114382826109b9565b6109965760405163e2517d3f60e01b81526001600160a01b038216600482015260248101839052604401610ba1565b60405163a9059cbb60e01b5f8181526001600160a01b038616600452602485905291602083604481808b5af1925060015f511483166111c85783831516156111bc573d5f823e3d81fd5b5f873b113d1516831692505b60405250949350505050565b60015460ff16610b6457604051638dfc202b60e01b815260040160405180910390fd5b5f5160206115455f395f51905f5254600203610b6457604051633ee5aeb560e01b815260040160405180910390fd5b5f5f60018054906101000a90046001600160a01b03166001600160a01b031663a16f37746040518163ffffffff1660e01b8152600401602060405180830381865afa158015611277573d5f5f3e3d5ffd5b505050506040513d601f19601f8201168201806040525081019061129b9190611489565b6001546040516370a0823160e01b81526101009091046001600160a01b0390811660048301529192505f917f000000000000000000000000000000000000000000000000000000000000000016906370a0823190602401602060405180830381865afa15801561130d573d5f5f3e3d5ffd5b505050506040513d601f19601f820116820180604052508101906113319190611489565b9050818111611340575f61134a565b61134a8282611511565b9250505090565b6040516323b872dd60e01b5f8181526001600160a01b038781166004528616602452604485905291602083606481808c5af1925060015f511483166113ad5783831516156113a1573d5f823e3d81fd5b5f883b113d1516831692505b604052505f60605295945050505050565b5f602082840312156113ce575f5ffd5b81356001600160e01b0319811681146113e5575f5ffd5b9392505050565b5f602082840312156113fc575f5ffd5b5035919050565b80356001600160a01b0381168114611419575f5ffd5b919050565b5f5f6040838503121561142f575f5ffd5b8235915061143f60208401611403565b90509250929050565b5f60208284031215611458575f5ffd5b6113e582611403565b5f5f60408385031215611472575f5ffd5b61147b83611403565b946020939093013593505050565b5f60208284031215611499575f5ffd5b5051919050565b5f5f5f606084860312156114b2575f5ffd5b835180151581146114c1575f5ffd5b602085015190935060ff811681146114d7575f5ffd5b6040949094015192959394509192915050565b634e487b7160e01b5f52601160045260245ffd5b808201808211156105ca576105ca6114ea565b818103818111156105ca576105ca6114ea56fe97667070c54ef182b0f5858b034beac1b6f3089aa2d3188bb1e8929f4fa9b9299b779b17422d0df92223018b32b4d1fa46e071723d6817e2486d003becc55f00a2646970667358221220fb3c1cd6ed62574530761f12eaf4f88b1f2370fecd1fe0a8c2d79d7af7300fe864736f6c634300081b0033",
  "linkReferences": {},
  "deployedLinkReferences": {}
}