{
  "_format": "hh-sol-artifact-1",
  "contractName": "Token",
  "sourceName": "contracts/Token.sol",
  "abi": [
    {
      "inputs": [
        {
          "internalType": "string",
          "name": "name_",
          "type": "string"
        },
        {
          "internalType": "string",
          "name": "symbol_",
          "type": "string"
        },
        {
          "internalType": "address",
          "name": "governance",
          "type": "address"
        },
        {
          "internalType": "address",
          "name": "treasury",
          "type": "address"
        },
        {
          "internalType": "address",
          "name": "vesting",
          "type": "address"
        },
        {
          "internalType": "address",
          "name": "airdrop",
          "type": "address"
        },
        {
          "internalType": "address",
          "name": "saleAllocation",
          "type": "address"
        },
        {
          "internalType": "uint256",
          "name": "treasuryAmount",
          "type": "uint256"
        },
        {
          "internalType": "uint256",
          "name": "vestingAmount",
          "type": "uint256"
        },
        {
          "internalType": "uint256",
          "name": "airdropAmount",
          "type": "uint256"
        },
        {
          "internalType": "uint256",
          "name": "saleAmount",
          "type": "uint256"
        }
      ],
      "stateMutability": "nonpayable",
      "type": "constructor"
    },
    {
      "inputs": [],
      "name": "AccessControlBadConfirmation",
      "type": "error"
    },
    {
      "inputs": [
        {
          "internalType": "address",
          "name": "account",
          "type": "address"
        },
        {
          "internalType": "bytes32",
          "name": "neededRole",
          "type": "bytes32"
        }
      ],
      "name": "AccessControlUnauthorizedAccount",
      "type": "error"
    },
    {
      "inputs": [],
      "name": "ECDSAInvalidSignature",
      "type": "error"
    },
    {
      "inputs": [
        {
          "internalType": "uint256",
          "name": "length",
          "type": "uint256"
        }
      ],
      "name": "ECDSAInvalidSignatureLength",
      "type": "error"
    },
    {
      "inputs": [
        {
          "internalType": "bytes32",
          "name": "s",
          "type": "bytes32"
        }
      ],
      "name": "ECDSAInvalidSignatureS",
      "type": "error"
    },
    {
      "inputs": [
        {
          "internalType": "address",
          "name": "spender",
          "type": "address"
        },
        {
          "internalType": "uint256",
          "name": "allowance",
          "type": "uint256"
        },
        {
          "internalType": "uint256",
          "name": "needed",
          "type": "uint256"
        }
      ],
      "name": "ERC20InsufficientAllowance",
      "type": "error"
    },
    {
      "inputs": [
        {
          "internalType": "address",
          "name": "sender",
          "type": "address"
        },
        {
          "internalType": "uint256",
          "name": "balance",
          "type": "uint256"
        },
        {
          "internalType": "uint256",
          "name": "needed",
          "type": "uint256"
        }
      ],
      "name": "ERC20InsufficientBalance",
      "type": "error"
    },
    {
      "inputs": [
        {
          "internalType": "address",
          "name": "approver",
          "type": "address"
        }
      ],
      "name": "ERC20InvalidApprover",
      "type": "error"
    },
    {
      "inputs": [
        {
          "internalType": "address",
          "name": "receiver",
          "type": "address"
        }
      ],
      "name": "ERC20InvalidReceiver",
      "type": "error"
    },
    {
      "inputs": [
        {
          "internalType": "address",
          "name": "sender",
          "type": "address"
        }
      ],
      "name": "ERC20InvalidSender",
      "type": "error"
    },
    {
      "inputs": [
        {
          "internalType": "address",
          "name": "spender",
          "type": "address"
        }
      ],
      "name": "ERC20InvalidSpender",
      "type": "error"
    },
    {
      "inputs": [
        {
          "internalType": "uint256",
          "name": "deadline",
          "type": "uint256"
        }
      ],
      "name": "ERC2612ExpiredSignature",
      "type": "error"
    },
    {
      "inputs": [
        {
          "internalType": "address",
          "name": "signer",
          "type": "address"
        },
        {
          "internalType": "address",
          "name": "owner",
          "type": "address"
        }
      ],
      "name": "ERC2612InvalidSigner",
      "type": "error"
    },
    {
      "inputs": [],
      "name": "EnforcedPause",
      "type": "error"
    },
    {
      "inputs": [],
      "name": "ExpectedPause",
      "type": "error"
    },
    {
      "inputs": [
        {
          "internalType": "address",
          "name": "account",
          "type": "address"
        },
        {
          "internalType": "uint256",
          "name": "currentNonce",
          "type": "uint256"
        }
      ],
      "name": "InvalidAccountNonce",
      "type": "error"
    },
    {
      "inputs": [],
      "name": "InvalidShortString",
      "type": "error"
    },
    {
      "inputs": [
        {
          "internalType": "address",
          "name": "token",
          "type": "address"
        }
      ],
      "name": "SafeERC20FailedOperation",
      "type": "error"
    },
    {
      "inputs": [
        {
          "internalType": "string",
          "name": "str",
          "type": "string"
        }
      ],
      "name": "StringTooLong",
      "type": "error"
    },
    {
      "inputs": [],
      "name": "Token__AllocationMismatch",
      "type": "error"
    },
    {
      "inputs": [],
      "name": "Token__ArrayLengthMismatch",
      "type": "error"
    },
    {
      "inputs": [],
      "name": "Token__DexLocked",
      "type": "error"
    },
    {
      "inputs": [],
      "name": "Token__EthTransferFailed",
      "type": "error"
    },
    {
      "inputs": [],
      "name": "Token__ExceedsWalletCap",
      "type": "error"
    },
    {
      "inputs": [],
      "name": "Token__NoEthToRescue",
      "type": "error"
    },
    {
      "inputs": [],
      "name": "Token__RoleManagementLocked",
      "type": "error"
    },
    {
      "inputs": [],
      "name": "Token__ZeroAddress",
      "type": "error"
    },
    {
      "anonymous": false,
      "inputs": [
        {
          "indexed": true,
          "internalType": "address",
          "name": "owner",
          "type": "address"
        },
        {
          "indexed": true,
          "internalType": "address",
          "name": "spender",
          "type": "address"
        },
        {
          "indexed": false,
          "internalType": "uint256",
          "name": "value",
          "type": "uint256"
        }
      ],
      "name": "Approval",
      "type": "event"
    },
    {
      "anonymous": false,
      "inputs": [],
      "name": "DexSetupLocked",
      "type": "event"
    },
    {
      "anonymous": false,
      "inputs": [
        {
          "indexed": true,
          "internalType": "address",
          "name": "router",
          "type": "address"
        },
        {
          "indexed": true,
          "internalType": "address",
          "name": "pair",
          "type": "address"
        }
      ],
      "name": "DexSetupUpdated",
      "type": "event"
    },
    {
      "anonymous": false,
      "inputs": [],
      "name": "EIP712DomainChanged",
      "type": "event"
    },
    {
      "anonymous": false,
      "inputs": [
        {
          "indexed": true,
          "internalType": "address",
          "name": "token",
          "type": "address"
        },
        {
          "indexed": true,
          "internalType": "address",
          "name": "to",
          "type": "address"
        },
        {
          "indexed": false,
          "internalType": "uint256",
          "name": "amount",
          "type": "uint256"
        }
      ],
      "name": "ERC20Rescued",
      "type": "event"
    },
    {
      "anonymous": false,
      "inputs": [
        {
          "indexed": true,
          "internalType": "address",
          "name": "to",
          "type": "address"
        },
        {
          "indexed": false,
          "internalType": "uint256",
          "name": "amount",
          "type": "uint256"
        }
      ],
      "name": "EthRescued",
      "type": "event"
    },
    {
      "anonymous": false,
      "inputs": [
        {
          "indexed": true,
          "internalType": "address",
          "name": "account",
          "type": "address"
        },
        {
          "indexed": false,
          "internalType": "bool",
          "name": "excluded",
          "type": "bool"
        }
      ],
      "name": "ExclusionUpdated",
      "type": "event"
    },
    {
      "anonymous": false,
      "inputs": [
        {
          "indexed": false,
          "internalType": "address",
          "name": "account",
          "type": "address"
        }
      ],
      "name": "Paused",
      "type": "event"
    },
    {
      "anonymous": false,
      "inputs": [
        {
          "indexed": true,
          "internalType": "bytes32",
          "name": "role",
          "type": "bytes32"
        },
        {
          "indexed": true,
          "internalType": "bytes32",
          "name": "previousAdminRole",
          "type": "bytes32"
        },
        {
          "indexed": true,
          "internalType": "bytes32",
          "name": "newAdminRole",
          "type": "bytes32"
        }
      ],
      "name": "RoleAdminChanged",
      "type": "event"
    },
    {
      "anonymous": false,
      "inputs": [
        {
          "indexed": true,
          "internalType": "bytes32",
          "name": "role",
          "type": "bytes32"
        },
        {
          "indexed": true,
          "internalType": "address",
          "name": "account",
          "type": "address"
        },
        {
          "indexed": true,
          "internalType": "address",
          "name": "sender",
          "type": "address"
        }
      ],
      "name": "RoleGranted",
      "type": "event"
    },
    {
      "anonymous": false,
      "inputs": [
        {
          "indexed": true,
          "internalType": "bytes32",
          "name": "role",
          "type": "bytes32"
        },
        {
          "indexed": true,
          "internalType": "address",
          "name": "account",
          "type": "address"
        },
        {
          "indexed": true,
          "internalType": "address",
          "name": "sender",
          "type": "address"
        }
      ],
      "name": "RoleRevoked",
      "type": "event"
    },
    {
      "anonymous": false,
      "inputs": [
        {
          "indexed": true,
          "internalType": "address",
          "name": "to",
          "type": "address"
        },
        {
          "indexed": false,
          "internalType": "uint256",
          "name": "amount",
          "type": "uint256"
        }
      ],
      "name": "TokensMinted",
      "type": "event"
    },
    {
      "anonymous": false,
      "inputs": [
        {
          "indexed": true,
          "internalType": "address",
          "name": "from",
          "type": "address"
        },
        {
          "indexed": true,
          "internalType": "address",
          "name": "to",
          "type": "address"
        },
        {
          "indexed": false,
          "internalType": "uint256",
          "name": "value",
          "type": "uint256"
        }
      ],
      "name": "Transfer",
      "type": "event"
    },
    {
      "anonymous": false,
      "inputs": [
        {
          "indexed": false,
          "internalType": "address",
          "name": "account",
          "type": "address"
        }
      ],
      "name": "Unpaused",
      "type": "event"
    },
    {
      "inputs": [],
      "name": "DEFAULT_ADMIN_ROLE",
      "outputs": [
        {
          "internalType": "bytes32",
          "name": "",
          "type": "bytes32"
        }
      ],
      "stateMutability": "view",
      "type": "function"
    },
    {
      "inputs": [],
      "name": "DOMAIN_SEPARATOR",
      "outputs": [
        {
          "internalType": "bytes32",
          "name": "",
          "type": "bytes32"
        }
      ],
      "stateMutability": "view",
      "type": "function"
    },
    {
      "inputs": [],
      "name": "GOVERNANCE_ROLE",
      "outputs": [
        {
          "internalType": "bytes32",
          "name": "",
          "type": "bytes32"
        }
      ],
      "stateMutability": "view",
      "type": "function"
    },
    {
      "inputs": [],
      "name": "TOTAL_SUPPLY",
      "outputs": [
        {
          "internalType": "uint256",
          "name": "",
          "type": "uint256"
        }
      ],
      "stateMutability": "view",
      "type": "function"
    },
    {
      "inputs": [],
      "name": "WALLET_CAP",
      "outputs": [
        {
          "internalType": "uint256",
          "name": "",
          "type": "uint256"
        }
      ],
      "stateMutability": "view",
      "type": "function"
    },
    {
      "inputs": [
        {
          "internalType": "address",
          "name": "owner",
          "type": "address"
        },
        {
          "internalType": "address",
          "name": "spender",
          "type": "address"
        }
      ],
      "name": "allowance",
      "outputs": [
        {
          "internalType": "uint256",
          "name": "",
          "type": "uint256"
        }
      ],
      "stateMutability": "view",
      "type": "function"
    },
    {
      "inputs": [
        {
          "internalType": "address",
          "name": "spender",
          "type": "address"
        },
        {
          "internalType": "uint256",
          "name": "value",
          "type": "uint256"
        }
      ],
      "name": "approve",
      "outputs": [
        {
          "internalType": "bool",
          "name": "",
          "type": "bool"
        }
      ],
      "stateMutability": "nonpayable",
      "type": "function"
    },
    {
      "inputs": [
        {
          "internalType": "address",
          "name": "account",
          "type": "address"
        }
      ],
      "name": "balanceOf",
      "outputs": [
        {
          "internalType": "uint256",
          "name": "",
          "type": "uint256"
        }
      ],
      "stateMutability": "view",
      "type": "function"
    },
    {
      "inputs": [
        {
          "internalType": "address[]",
          "name": "accounts",
          "type": "address[]"
        },
        {
          "internalType": "bool[]",
          "name": "excluded",
          "type": "bool[]"
        }
      ],
      "name": "batchSetExclusions",
      "outputs": [],
      "stateMutability": "nonpayable",
      "type": "function"
    },
    {
      "inputs": [],
      "name": "decimals",
      "outputs": [
        {
          "internalType": "uint8",
          "name": "",
          "type": "uint8"
        }
      ],
      "stateMutability": "view",
      "type": "function"
    },
    {
      "inputs": [],
      "name": "dexLocked",
      "outputs": [
        {
          "internalType": "bool",
          "name": "",
          "type": "bool"
        }
      ],
      "stateMutability": "view",
      "type": "function"
    },
    {
      "inputs": [],
      "name": "dexPair",
      "outputs": [
        {
          "internalType": "address",
          "name": "",
          "type": "address"
        }
      ],
      "stateMutability": "view",
      "type": "function"
    },
    {
      "inputs": [],
      "name": "dexRouter",
      "outputs": [
        {
          "internalType": "address",
          "name": "",
          "type": "address"
        }
      ],
      "stateMutability": "view",
      "type": "function"
    },
    {
      "inputs": [],
      "name": "eip712Domain",
      "outputs": [
        {
          "internalType": "bytes1",
          "name": "fields",
          "type": "bytes1"
        },
        {
          "internalType": "string",
          "name": "name",
          "type": "string"
        },
        {
          "internalType": "string",
          "name": "version",
          "type": "string"
        },
        {
          "internalType": "uint256",
          "name": "chainId",
          "type": "uint256"
        },
        {
          "internalType": "address",
          "name": "verifyingContract",
          "type": "address"
        },
        {
          "internalType": "bytes32",
          "name": "salt",
          "type": "bytes32"
        },
        {
          "internalType": "uint256[]",
          "name": "extensions",
          "type": "uint256[]"
        }
      ],
      "stateMutability": "view",
      "type": "function"
    },
    {
      "inputs": [
        {
          "internalType": "bytes32",
          "name": "role",
          "type": "bytes32"
        }
      ],
      "name": "getRoleAdmin",
      "outputs": [
        {
          "internalType": "bytes32",
          "name": "",
          "type": "bytes32"
        }
      ],
      "stateMutability": "view",
      "type": "function"
    },
    {
      "inputs": [
        {
          "internalType": "bytes32",
          "name": "role",
          "type": "bytes32"
        },
        {
          "internalType": "address",
          "name": "account",
          "type": "address"
        }
      ],
      "name": "grantRole",
      "outputs": [],
      "stateMutability": "nonpayable",
      "type": "function"
    },
    {
      "inputs": [
        {
          "internalType": "bytes32",
          "name": "role",
          "type": "bytes32"
        },
        {
          "internalType": "address",
          "name": "account",
          "type": "address"
        }
      ],
      "name": "hasRole",
      "outputs": [
        {
          "internalType": "bool",
          "name": "",
          "type": "bool"
        }
      ],
      "stateMutability": "view",
      "type": "function"
    },
    {
      "inputs": [
        {
          "internalType": "address",
          "name": "",
          "type": "address"
        }
      ],
      "name": "isExcludedFromWalletCap",
      "outputs": [
        {
          "internalType": "bool",
          "name": "",
          "type": "bool"
        }
      ],
      "stateMutability": "view",
      "type": "function"
    },
    {
      "inputs": [],
      "name": "lockDexSetup",
      "outputs": [],
      "stateMutability": "nonpayable",
      "type": "function"
    },
    {
      "inputs": [
        {
          "internalType": "address",
          "name": "",
          "type": "address"
        },
        {
          "internalType": "uint256",
          "name": "",
          "type": "uint256"
        }
      ],
      "name": "mint",
      "outputs": [],
      "stateMutability": "pure",
      "type": "function"
    },
    {
      "inputs": [],
      "name": "name",
      "outputs": [
        {
          "internalType": "string",
          "name": "",
          "type": "string"
        }
      ],
      "stateMutability": "view",
      "type": "function"
    },
    {
      "inputs": [
        {
          "internalType": "address",
          "name": "owner",
          "type": "address"
        }
      ],
      "name": "nonces",
      "outputs": [
        {
          "internalType": "uint256",
          "name": "",
          "type": "uint256"
        }
      ],
      "stateMutability": "view",
      "type": "function"
    },
    {
      "inputs": [],
      "name": "pause",
      "outputs": [],
      "stateMutability": "nonpayable",
      "type": "function"
    },
    {
      "inputs": [],
      "name": "paused",
      "outputs": [
        {
          "internalType": "bool",
          "name": "",
          "type": "bool"
        }
      ],
      "stateMutability": "view",
      "type": "function"
    },
    {
      "inputs": [
        {
          "internalType": "address",
          "name": "owner",
          "type": "address"
        },
        {
          "internalType": "address",
          "name": "spender",
          "type": "address"
        },
        {
          "internalType": "uint256",
          "name": "value",
          "type": "uint256"
        },
        {
          "internalType": "uint256",
          "name": "deadline",
          "type": "uint256"
        },
        {
          "internalType": "uint8",
          "name": "v",
          "type": "uint8"
        },
        {
          "internalType": "bytes32",
          "name": "r",
          "type": "bytes32"
        },
        {
          "internalType": "bytes32",
          "name": "s",
          "type": "bytes32"
        }
      ],
      "name": "permit",
      "outputs": [],
      "stateMutability": "nonpayable",
      "type": "function"
    },
    {
      "inputs": [
        {
          "internalType": "bytes32",
          "name": "role",
          "type": "bytes32"
        },
        {
          "internalType": "address",
          "name": "callerConfirmation",
          "type": "address"
        }
      ],
      "name": "renounceRole",
      "outputs": [],
      "stateMutability": "nonpayable",
      "type": "function"
    },
    {
      "inputs": [
        {
          "internalType": "address",
          "name": "erc20",
          "type": "address"
        },
        {
          "internalType": "address",
          "name": "to",
          "type": "address"
        },
        {
          "internalType": "uint256",
          "name": "amount",
          "type": "uint256"
        }
      ],
      "name": "rescueERC20",
      "outputs": [],
      "stateMutability": "nonpayable",
      "type": "function"
    },
    {
      "inputs": [
        {
          "internalType": "address payable",
          "name": "to",
          "type": "address"
        }
      ],
      "name": "rescueEth",
      "outputs": [],
      "stateMutability": "nonpayable",
      "type": "function"
    },
    {
      "inputs": [
        {
          "internalType": "bytes32",
          "name": "role",
          "type": "bytes32"
        },
        {
          "internalType": "address",
          "name": "account",
          "type": "address"
        }
      ],
      "name": "revokeRole",
      "outputs": [],
      "stateMutability": "nonpayable",
      "type": "function"
    },
    {
      "inputs": [
        {
          "internalType": "address",
          "name": "router",
          "type": "address"
        },
        {
          "internalType": "address",
          "name": "pair",
          "type": "address"
        }
      ],
      "name": "setDexSetup",
      "outputs": [],
      "stateMutability": "nonpayable",
      "type": "function"
    },
    {
      "inputs": [
        {
          "internalType": "address",
          "name": "account",
          "type": "address"
        },
        {
          "internalType": "bool",
          "name": "excluded",
          "type": "bool"
        }
      ],
      "name": "setExclusion",
      "outputs": [],
      "stateMutability": "nonpayable",
      "type": "function"
    },
    {
      "inputs": [
        {
          "internalType": "bytes4",
          "name": "interfaceId",
          "type": "bytes4"
        }
      ],
      "name": "supportsInterface",
      "outputs": [
        {
          "internalType": "bool",
          "name": "",
          "type": "bool"
        }
      ],
      "stateMutability": "view",
      "type": "function"
    },
    {
      "inputs": [],
      "name": "symbol",
      "outputs": [
        {
          "internalType": "string",
          "name": "",
          "type": "string"
        }
      ],
      "stateMutability": "view",
      "type": "function"
    },
    {
      "inputs": [],
      "name": "totalSupply",
      "outputs": [
        {
          "internalType": "uint256",
          "name": "",
          "type": "uint256"
        }
      ],
      "stateMutability": "view",
      "type": "function"
    },
    {
      "inputs": [
        {
          "internalType": "address",
          "name": "to",
          "type": "address"
        },
        {
          "internalType": "uint256",
          "name": "value",
          "type": "uint256"
        }
      ],
      "name": "transfer",
      "outputs": [
        {
          "internalType": "bool",
          "name": "",
          "type": "bool"
        }
      ],
      "stateMutability": "nonpayable",
      "type": "function"
    },
    {
      "inputs": [
        {
          "internalType": "address",
          "name": "from",
          "type": "address"
        },
        {
          "internalType": "address",
          "name": "to",
          "type": "address"
        },
        {
          "internalType": "uint256",
          "name": "value",
          "type": "uint256"
        }
      ],
      "name": "transferFrom",
      "outputs": [
        {
          "internalType": "bool",
          "name": "",
          "type": "bool"
        }
      ],
      "stateMutability": "nonpayable",
      "type": "function"
    },
    {
      "inputs": [],
      "name": "unpause",
      "outputs": [],
      "stateMutability": "nonpayable",
      "type": "function"
    },
    {
      "stateMutability": "payable",
      "type": "receive"
    }
  ],
  "bytecode": "0x610160604052348015610010575f5ffd5b506040516129c33803806129c383398101604081905261002f9161077b565b6040805180820190915260018152603160f81b60208201528b908190818d600361005983826108ef565b50600461006682826108ef565b506100769150839050600561034a565b6101205261008581600661034a565b61014052815160208084019190912060e052815190820120610100524660a05261011160e05161010051604080517f8b73c3c69bb8fe3d512ecc4cf759cc79239f7b179b0ffacaa9a75d522b39400f60208201529081019290925260608201524660808201523060a08201525f9060c00160405160208183030381529060405280519060200120905090565b60805250503060c052506001600160a01b038916610142576040516335ed3fab60e21b815260040160405180910390fd5b5f818361014f86886109a9565b61015991906109a9565b61016391906109a9565b90506b033b2e3c9fd0803ce800000081146101915760405163d7bd21f160e01b815260040160405180910390fd5b61019b5f8b61037c565b506101c67f71840dc4906352362b0cdaf79870196c8e42acafade72d5d5a6d59291253ceb18b61037c565b506101d18986610427565b886001600160a01b03165f5160206129a35f395f51905f52866040516101f991815260200190565b60405180910390a261020b8885610427565b876001600160a01b03165f5160206129a35f395f51905f528560405161023391815260200190565b60405180910390a26102458784610427565b866001600160a01b03165f5160206129a35f395f51905f528460405161026d91815260200190565b60405180910390a25f8211801561028c57506001600160a01b03861615155b156102ee5761029b8683610427565b856001600160a01b03165f5160206129a35f395f51905f52836040516102c391815260200190565b60405180910390a26001600160a01b0386165f908152600b60205260409020805460ff191660011790555b505050506001600160a01b039485165f908152600b60205260408082208054600160ff1991821681179092559688168352818320805488168217905594909616815294909420805490931690911790915550610a209350505050565b5f6020835110156103655761035e83610464565b9050610376565b8161037084826108ef565b5060ff90505b92915050565b5f8281526008602090815260408083206001600160a01b038516845290915281205460ff16610420575f8381526008602090815260408083206001600160a01b03861684529091529020805460ff191660011790556103d83390565b6001600160a01b0316826001600160a01b0316847f2f8788117e7eff1d82e926ec794901d17c78024a50270940304540a733656f0d60405160405180910390a4506001610376565b505f610376565b6001600160a01b0382166104555760405163ec442f0560e01b81525f60048201526024015b60405180910390fd5b6104605f83836104a1565b5050565b5f5f829050601f8151111561048e578260405163305a27a960e01b815260040161044c91906109c8565b8051610499826109fd565b179392505050565b6104a9610577565b6001600160a01b038316158015906104c957506001600160a01b03821615155b15610567576001600160a01b0382165f908152600b602052604090205460ff16610567576a084595161401484a00000081610518846001600160a01b03165f9081526020819052604090205490565b0111156105675760405162461bcd60e51b815260206004820152601360248201527f57414c4c45545f4341505f455843454544454400000000000000000000000000604482015260640161044c565b61057283838361059d565b505050565b60095460ff161561059b5760405163d93c066560e01b815260040160405180910390fd5b565b6001600160a01b0383166105c7578060025f8282546105bc91906109a9565b909155506106379050565b6001600160a01b0383165f90815260208190526040902054818110156106195760405163391434e360e21b81526001600160a01b0385166004820152602481018290526044810183905260640161044c565b6001600160a01b0384165f9081526020819052604090209082900390555b6001600160a01b03821661065357600280548290039055610671565b6001600160a01b0382165f9081526020819052604090208054820190555b816001600160a01b0316836001600160a01b03167fddf252ad1be2c89b69c2b068fc378daa952ba7f163c4a11628f55a4df523b3ef836040516106b691815260200190565b60405180910390a3505050565b634e487b7160e01b5f52604160045260245ffd5b5f82601f8301126106e6575f5ffd5b81516001600160401b038111156106ff576106ff6106c3565b604051601f8201601f19908116603f011681016001600160401b038111828210171561072d5761072d6106c3565b604052818152838201602001851015610744575f5ffd5b8160208501602083015e5f918101602001919091529392505050565b80516001600160a01b0381168114610776575f5ffd5b919050565b5f5f5f5f5f5f5f5f5f5f5f6101608c8e031215610796575f5ffd5b8b516001600160401b038111156107ab575f5ffd5b6107b78e828f016106d7565b60208e0151909c5090506001600160401b038111156107d4575f5ffd5b6107e08e828f016106d7565b9a50506107ef60408d01610760565b98506107fd60608d01610760565b975061080b60808d01610760565b965061081960a08d01610760565b955061082760c08d01610760565b94505f60e08d01519050809450505f6101008d01519050809350505f6101208d01519050809250505f6101408d01519050809150509295989b509295989b9093969950565b600181811c9082168061088057607f821691505b60208210810361089e57634e487b7160e01b5f52602260045260245ffd5b50919050565b601f82111561057257805f5260205f20601f840160051c810160208510156108c95750805b601f840160051c820191505b818110156108e8575f81556001016108d5565b5050505050565b81516001600160401b03811115610908576109086106c3565b61091c81610916845461086c565b846108a4565b6020601f82116001811461094e575f83156109375750848201515b5f19600385901b1c1916600184901b1784556108e8565b5f84815260208120601f198516915b8281101561097d578785015182556020948501946001909201910161095d565b508482101561099a57868401515f19600387901b60f8161c191681555b50505050600190811b01905550565b8082018082111561037657634e487b7160e01b5f52601160045260245ffd5b602081525f82518060208401528060208501604085015e5f604082850101526040601f19601f83011684010191505092915050565b8051602080830151919081101561089e575f1960209190910360031b1b16919050565b60805160a05160c05160e051610100516101205161014051611f32610a715f395f6113f301525f6113c601525f61127501525f61124d01525f6111a801525f6111d201525f6111fc0152611f325ff3fe608060405260043610610215575f3560e01c806370a082311161011e578063a217fddf116100a8578063d505accf1161006d578063d505accf14610621578063d547741f14610640578063dd62ed3e1461065f578063f242ab41146106a3578063f36c8f5c146106c2575f5ffd5b8063a217fddf1461059d578063a9059cbb146105b0578063b2118a8d146105cf578063c8d9cefa146105ee578063d38069ba1461060d575f5ffd5b806384b0196e116100ee57806384b0196e146105065780638c1db3611461052d578063902d55a51461054b57806391d148541461056a57806395d89b4114610589575f5ffd5b806370a0823114610480578063718cf5d9146104b45780637ecebe00146104d35780638456cb59146104f2575f5ffd5b8063313ce5671161019f5780633e9bbd091161016f5780633e9bbd09146103e85780633f4ba83a1461040857806340c10f191461041c5780634211f38b1461043b5780635c975abb14610469575f5ffd5b8063313ce5671461037b5780633644e5151461039657806336568abe146103aa5780633b1ab44c146103c9575f5ffd5b806318160ddd116101e557806318160ddd146102d057806323b872dd146102ee578063248a9ca31461030d5780632f0abd751461033b5780632f2ff15d1461035c575f5ffd5b806301ffc9a71461022057806306fdde03146102545780630758d92414610275578063095ea7b3146102b1575f5ffd5b3661021c57005b5f5ffd5b34801561022b575f5ffd5b5061023f61023a366004611acc565b6106e2565b60405190151581526020015b60405180910390f35b34801561025f575f5ffd5b50610268610718565b60405161024b9190611b28565b348015610280575f5ffd5b506009546102999061010090046001600160a01b031681565b6040516001600160a01b03909116815260200161024b565b3480156102bc575f5ffd5b5061023f6102cb366004611b4e565b6107a8565b3480156102db575f5ffd5b506002545b60405190815260200161024b565b3480156102f9575f5ffd5b5061023f610308366004611b78565b6107bf565b348015610318575f5ffd5b506102e0610327366004611bb6565b5f9081526008602052604090206001015490565b348015610346575f5ffd5b5061035a610355366004611c15565b6107e2565b005b348015610367575f5ffd5b5061035a610376366004611c81565b610985565b348015610386575f5ffd5b506040516012815260200161024b565b3480156103a1575f5ffd5b506102e06109af565b3480156103b5575f5ffd5b5061035a6103c4366004611c81565b6109bd565b3480156103d4575f5ffd5b5061035a6103e3366004611caf565b6109f5565b3480156103f3575f5ffd5b50600a5461023f90600160a01b900460ff1681565b348015610413575f5ffd5b5061035a610b0e565b348015610427575f5ffd5b5061035a610436366004611b4e565b610b30565b348015610446575f5ffd5b5061023f610455366004611caf565b600b6020525f908152604090205460ff1681565b348015610474575f5ffd5b5060095460ff1661023f565b34801561048b575f5ffd5b506102e061049a366004611caf565b6001600160a01b03165f9081526020819052604090205490565b3480156104bf575f5ffd5b5061035a6104ce366004611cca565b610b6d565b3480156104de575f5ffd5b506102e06104ed366004611caf565b610c6c565b3480156104fd575f5ffd5b5061035a610c89565b348015610511575f5ffd5b5061051a610ca8565b60405161024b9796959493929190611cf6565b348015610538575f5ffd5b506102e06a084595161401484a00000081565b348015610556575f5ffd5b506102e06b033b2e3c9fd0803ce800000081565b348015610575575f5ffd5b5061023f610584366004611c81565b610cea565b348015610594575f5ffd5b50610268610d14565b3480156105a8575f5ffd5b506102e05f81565b3480156105bb575f5ffd5b5061023f6105ca366004611b4e565b610d23565b3480156105da575f5ffd5b5061035a6105e9366004611b78565b610d30565b3480156105f9575f5ffd5b5061035a610608366004611da0565b610dd5565b348015610618575f5ffd5b5061035a610e72565b34801561062c575f5ffd5b5061035a61063b366004611dd3565b610ec7565b34801561064b575f5ffd5b5061035a61065a366004611c81565b610ffd565b34801561066a575f5ffd5b506102e0610679366004611cca565b6001600160a01b039182165f90815260016020908152604080832093909416825291909152205490565b3480156106ae575f5ffd5b50600a54610299906001600160a01b031681565b3480156106cd575f5ffd5b506102e05f516020611edd5f395f51905f5281565b5f6001600160e01b03198216637965db0b60e01b148061071257506301ffc9a760e01b6001600160e01b03198316145b92915050565b60606003805461072790611e44565b80601f016020809104026020016040519081016040528092919081815260200182805461075390611e44565b801561079e5780601f106107755761010080835404028352916020019161079e565b820191905f5260205f20905b81548152906001019060200180831161078157829003601f168201915b5050505050905090565b5f336107b5818585611021565b5060019392505050565b5f336107cc85828561102e565b6107d78585856110a4565b506001949350505050565b5f516020611edd5f395f51905f526107f981611101565b8382146108195760405163cde86b6960e01b815260040160405180910390fd5b5f5b8481101561097d575f86868381811061083657610836611e7c565b905060200201602081019061084b9190611caf565b6001600160a01b031603610872576040516335ed3fab60e21b815260040160405180910390fd5b83838281811061088457610884611e7c565b90506020020160208101906108999190611e90565b600b5f8888858181106108ae576108ae611e7c565b90506020020160208101906108c39190611caf565b6001600160a01b0316815260208101919091526040015f20805460ff19169115159190911790558585828181106108fc576108fc611e7c565b90506020020160208101906109119190611caf565b6001600160a01b03167f83f2b279b6151af5a15cdbe8471d34fe8b34aed9bd9514ffeadb57c9ea366e6185858481811061094d5761094d611e7c565b90506020020160208101906109629190611e90565b604051901515815260200160405180910390a260010161081b565b505050505050565b5f8281526008602052604090206001015461099f81611101565b6109a9838361110b565b50505050565b5f6109b861119c565b905090565b6001600160a01b03811633146109e65760405163334bd91960e11b815260040160405180910390fd5b6109f082826112c5565b505050565b5f516020611edd5f395f51905f52610a0c81611101565b6001600160a01b038216610a33576040516335ed3fab60e21b815260040160405180910390fd5b475f819003610a5557604051636425ed3760e11b815260040160405180910390fd5b5f836001600160a01b0316826040515f6040518083038185875af1925050503d805f8114610a9e576040519150601f19603f3d011682016040523d82523d5f602084013e610aa3565b606091505b5050905080610ac557604051632b43b1cd60e11b815260040160405180910390fd5b836001600160a01b03167fff76eef98b5bdf97a95e78ef7e4f3da9681cd874619e7dbc5767e38ed162b80383604051610b0091815260200190565b60405180910390a250505050565b5f516020611edd5f395f51905f52610b2581611101565b610b2d611330565b50565b60405162461bcd60e51b815260206004820152600d60248201526c1352539517d11254d050931151609a1b60448201526064015b60405180910390fd5b5f516020611edd5f395f51905f52610b8481611101565b6001600160a01b0383161580610ba157506001600160a01b038216155b15610bbf576040516335ed3fab60e21b815260040160405180910390fd5b600a54600160a01b900460ff1615610bea5760405163a095045760e01b815260040160405180910390fd5b600980546001600160a01b038086166101008102610100600160a81b031990931692909217909255600a80549285166001600160a01b0319909316831790555f828152600b6020526040808220805460ff19166001179055517f931cad8a2a137abd1fc75536d59191562990a3748359687605aab8a91fa6b0529190a3505050565b6001600160a01b0381165f90815260076020526040812054610712565b5f516020611edd5f395f51905f52610ca081611101565b610b2d611382565b5f6060805f5f5f6060610cb96113bf565b610cc16113ec565b604080515f80825260208201909252600f60f81b9b939a50919850469750309650945092509050565b5f9182526008602090815260408084206001600160a01b0393909316845291905290205460ff1690565b60606004805461072790611e44565b5f336107b58185856110a4565b5f516020611edd5f395f51905f52610d4781611101565b6001600160a01b038316610d6e576040516335ed3fab60e21b815260040160405180910390fd5b610d826001600160a01b0385168484611419565b826001600160a01b0316846001600160a01b03167f8bbfbb5d7fcacf6fc74005cdede0635561638507f576c95f7f294c22141be2e584604051610dc791815260200190565b60405180910390a350505050565b5f516020611edd5f395f51905f52610dec81611101565b6001600160a01b038316610e13576040516335ed3fab60e21b815260040160405180910390fd5b6001600160a01b0383165f818152600b6020908152604091829020805460ff191686151590811790915591519182527f83f2b279b6151af5a15cdbe8471d34fe8b34aed9bd9514ffeadb57c9ea366e61910160405180910390a2505050565b5f516020611edd5f395f51905f52610e8981611101565b600a805460ff60a01b1916600160a01b1790556040517faf63e597fb40b5aacd03dad8cf277d00157915552d0b0ee077b44e6cf197a944905f90a150565b83421115610eeb5760405163313c898160e11b815260048101859052602401610b64565b5f7f6e71edae12b1b97f4d1f60370fef10105fa2faae0126114a169c64845d6126c9888888610f368c6001600160a01b03165f90815260076020526040902080546001810190915590565b6040805160208101969096526001600160a01b0394851690860152929091166060840152608083015260a082015260c0810186905260e0016040516020818303038152906040528051906020012090505f610f908261144e565b90505f610f9f8287878761147a565b9050896001600160a01b0316816001600160a01b031614610fe6576040516325c0072360e11b81526001600160a01b0380831660048301528b166024820152604401610b64565b610ff18a8a8a611021565b50505050505050505050565b5f8281526008602052604090206001015461101781611101565b6109a983836112c5565b6109f083838360016114a6565b6001600160a01b038381165f908152600160209081526040808320938616835292905220545f198110156109a9578181101561109657604051637dc7a0d960e11b81526001600160a01b03841660048201526024810182905260448101839052606401610b64565b6109a984848484035f6114a6565b6001600160a01b0383166110cd57604051634b637e8f60e11b81525f6004820152602401610b64565b6001600160a01b0382166110f65760405163ec442f0560e01b81525f6004820152602401610b64565b6109f083838361156a565b610b2d8133611631565b5f6111168383610cea565b611195575f8381526008602090815260408083206001600160a01b03861684529091529020805460ff1916600117905561114d3390565b6001600160a01b0316826001600160a01b0316847f2f8788117e7eff1d82e926ec794901d17c78024a50270940304540a733656f0d60405160405180910390a4506001610712565b505f610712565b5f306001600160a01b037f0000000000000000000000000000000000000000000000000000000000000000161480156111f457507f000000000000000000000000000000000000000000000000000000000000000046145b1561121e57507f000000000000000000000000000000000000000000000000000000000000000090565b6109b8604080517f8b73c3c69bb8fe3d512ecc4cf759cc79239f7b179b0ffacaa9a75d522b39400f60208201527f0000000000000000000000000000000000000000000000000000000000000000918101919091527f000000000000000000000000000000000000000000000000000000000000000060608201524660808201523060a08201525f9060c00160405160208183030381529060405280519060200120905090565b5f6112d08383610cea565b15611195575f8381526008602090815260408083206001600160a01b0386168085529252808320805460ff1916905551339286917ff6391f5c32d9c69d2a47ea670b442974b53935d1edc7fd64eb21e047a839171b9190a4506001610712565b61133861166e565b6009805460ff191690557f5db9ee0a495bf2e6ff9c91a7834c1ba4fdd244a5e8aa4e537bd38aeae4b073aa335b6040516001600160a01b03909116815260200160405180910390a1565b61138a611693565b6009805460ff191660011790557f62e78cea01bee320cd4e420270b5ea74000d11b0c9f74754ebdbfc544b05a2586113653390565b60606109b87f000000000000000000000000000000000000000000000000000000000000000060056116b7565b60606109b87f000000000000000000000000000000000000000000000000000000000000000060066116b7565b6114268383836001611760565b6109f057604051635274afe760e01b81526001600160a01b0384166004820152602401610b64565b5f61071261145a61119c565b8360405161190160f01b8152600281019290925260228201526042902090565b5f5f5f5f61148a888888886117c2565b92509250925061149a828261188a565b50909695505050505050565b6001600160a01b0384166114cf5760405163e602df0560e01b81525f6004820152602401610b64565b6001600160a01b0383166114f857604051634a1406b160e11b81525f6004820152602401610b64565b6001600160a01b038085165f90815260016020908152604080832093871683529290522082905580156109a957826001600160a01b0316846001600160a01b03167f8c5be1e5ebec7d5bd14f71427d1e84f3dd0314c0f7b2291e5b200ac8c7c3b92584604051610dc791815260200190565b611572611693565b6001600160a01b0383161580159061159257506001600160a01b03821615155b15611626576001600160a01b0382165f908152600b602052604090205460ff16611626576a084595161401484a000000816115e1846001600160a01b03165f9081526020819052604090205490565b0111156116265760405162461bcd60e51b815260206004820152601360248201527215d05313115517d0d05417d15610d151511151606a1b6044820152606401610b64565b6109f0838383611942565b61163b8282610cea565b61166a5760405163e2517d3f60e01b81526001600160a01b038216600482015260248101839052604401610b64565b5050565b60095460ff1661169157604051638dfc202b60e01b815260040160405180910390fd5b565b60095460ff16156116915760405163d93c066560e01b815260040160405180910390fd5b606060ff83146116d1576116ca83611a68565b9050610712565b8180546116dd90611e44565b80601f016020809104026020016040519081016040528092919081815260200182805461170990611e44565b80156117545780601f1061172b57610100808354040283529160200191611754565b820191905f5260205f20905b81548152906001019060200180831161173757829003601f168201915b50505050509050610712565b60405163a9059cbb60e01b5f8181526001600160a01b038616600452602485905291602083604481808b5af1925060015f511483166117b65783831516156117aa573d5f823e3d81fd5b5f873b113d1516831692505b60405250949350505050565b5f80807f7fffffffffffffffffffffffffffffff5d576e7357a4501ddfe92f46681b20a08411156117fb57505f91506003905082611880565b604080515f808252602082018084528a905260ff891692820192909252606081018790526080810186905260019060a0016020604051602081039080840390855afa15801561184c573d5f5f3e3d5ffd5b5050604051601f1901519150506001600160a01b03811661187757505f925060019150829050611880565b92505f91508190505b9450945094915050565b5f82600381111561189d5761189d611ea9565b036118a6575050565b60018260038111156118ba576118ba611ea9565b036118d85760405163f645eedf60e01b815260040160405180910390fd5b60028260038111156118ec576118ec611ea9565b0361190d5760405163fce698f760e01b815260048101829052602401610b64565b600382600381111561192157611921611ea9565b0361166a576040516335e2f38360e21b815260048101829052602401610b64565b6001600160a01b03831661196c578060025f8282546119619190611ebd565b909155506119dc9050565b6001600160a01b0383165f90815260208190526040902054818110156119be5760405163391434e360e21b81526001600160a01b03851660048201526024810182905260448101839052606401610b64565b6001600160a01b0384165f9081526020819052604090209082900390555b6001600160a01b0382166119f857600280548290039055611a16565b6001600160a01b0382165f9081526020819052604090208054820190555b816001600160a01b0316836001600160a01b03167fddf252ad1be2c89b69c2b068fc378daa952ba7f163c4a11628f55a4df523b3ef83604051611a5b91815260200190565b60405180910390a3505050565b60605f611a7483611aa5565b6040805160208082528183019092529192505f91906020820181803683375050509182525060208101929092525090565b5f60ff8216601f81111561071257604051632cd44ac360e21b815260040160405180910390fd5b5f60208284031215611adc575f5ffd5b81356001600160e01b031981168114611af3575f5ffd5b9392505050565b5f81518084528060208401602086015e5f602082860101526020601f19601f83011685010191505092915050565b602081525f611af36020830184611afa565b6001600160a01b0381168114610b2d575f5ffd5b5f5f60408385031215611b5f575f5ffd5b8235611b6a81611b3a565b946020939093013593505050565b5f5f5f60608486031215611b8a575f5ffd5b8335611b9581611b3a565b92506020840135611ba581611b3a565b929592945050506040919091013590565b5f60208284031215611bc6575f5ffd5b5035919050565b5f5f83601f840112611bdd575f5ffd5b50813567ffffffffffffffff811115611bf4575f5ffd5b6020830191508360208260051b8501011115611c0e575f5ffd5b9250929050565b5f5f5f5f60408587031215611c28575f5ffd5b843567ffffffffffffffff811115611c3e575f5ffd5b611c4a87828801611bcd565b909550935050602085013567ffffffffffffffff811115611c69575f5ffd5b611c7587828801611bcd565b95989497509550505050565b5f5f60408385031215611c92575f5ffd5b823591506020830135611ca481611b3a565b809150509250929050565b5f60208284031215611cbf575f5ffd5b8135611af381611b3a565b5f5f60408385031215611cdb575f5ffd5b8235611ce681611b3a565b91506020830135611ca481611b3a565b60ff60f81b8816815260e060208201525f611d1460e0830189611afa565b8281036040840152611d268189611afa565b606084018890526001600160a01b038716608085015260a0840186905283810360c0850152845180825260208087019350909101905f5b81811015611d7b578351835260209384019390920191600101611d5d565b50909b9a5050505050505050505050565b80358015158114611d9b575f5ffd5b919050565b5f5f60408385031215611db1575f5ffd5b8235611dbc81611b3a565b9150611dca60208401611d8c565b90509250929050565b5f5f5f5f5f5f5f60e0888a031215611de9575f5ffd5b8735611df481611b3a565b96506020880135611e0481611b3a565b95506040880135945060608801359350608088013560ff81168114611e27575f5ffd5b9699959850939692959460a0840135945060c09093013592915050565b600181811c90821680611e5857607f821691505b602082108103611e7657634e487b7160e01b5f52602260045260245ffd5b50919050565b634e487b7160e01b5f52603260045260245ffd5b5f60208284031215611ea0575f5ffd5b611af382611d8c565b634e487b7160e01b5f52602160045260245ffd5b8082018082111561071257634e487b7160e01b5f52601160045260245ffdfe71840dc4906352362b0cdaf79870196c8e42acafade72d5d5a6d59291253ceb1a26469706673582212206861cad9eb7ed007b23971c374787bf39d61c76c7c099006ed150ef532212ea664736f6c634300081b00333f2c9d57c068687834f0de942a9babb9e5acab57d516d3480a3c16ee165a4273",
  "linkReferences": {},
  "deployedLinkReferences": {}
}