{
  "_format": "hh-sol-artifact-1",
  "contractName": "Vesting",
  "sourceName": "contracts/Vesting.sol",
  "abi": [
    {
      "inputs": [
        {
          "internalType": "address",
          "name": "_token",
          "type": "address"
        },
        {
          "internalType": "address",
          "name": "_treasury",
          "type": "address"
        },
        {
          "internalType": "address",
          "name": "_gov",
          "type": "address"
        },
        {
          "internalType": "uint256",
          "name": "_start",
          "type": "uint256"
        }
      ],
      "stateMutability": "nonpayable",
      "type": "constructor"
    },
    {
      "inputs": [],
      "name": "AccessControlBadConfirmation",
      "type": "error"
    },
    {
      "inputs": [
        {
          "internalType": "address",
          "name": "account",
          "type": "address"
        },
        {
          "internalType": "bytes32",
          "name": "neededRole",
          "type": "bytes32"
        }
      ],
      "name": "AccessControlUnauthorizedAccount",
      "type": "error"
    },
    {
      "inputs": [],
      "name": "CliffNotReached",
      "type": "error"
    },
    {
      "inputs": [],
      "name": "EnforcedPause",
      "type": "error"
    },
    {
      "inputs": [],
      "name": "ExpectedPause",
      "type": "error"
    },
    {
      "inputs": [],
      "name": "InsufficientBalance",
      "type": "error"
    },
    {
      "inputs": [],
      "name": "InvalidAmount",
      "type": "error"
    },
    {
      "inputs": [],
      "name": "NoAllocation",
      "type": "error"
    },
    {
      "inputs": [],
      "name": "NotAuthorized",
      "type": "error"
    },
    {
      "inputs": [],
      "name": "NothingToClaim",
      "type": "error"
    },
    {
      "inputs": [],
      "name": "ReentrancyGuardReentrantCall",
      "type": "error"
    },
    {
      "inputs": [],
      "name": "RoleLocked",
      "type": "error"
    },
    {
      "inputs": [
        {
          "internalType": "address",
          "name": "token",
          "type": "address"
        }
      ],
      "name": "SafeERC20FailedOperation",
      "type": "error"
    },
    {
      "inputs": [],
      "name": "ZeroAddress",
      "type": "error"
    },
    {
      "anonymous": false,
      "inputs": [
        {
          "indexed": false,
          "internalType": "address",
          "name": "user",
          "type": "address"
        },
        {
          "indexed": false,
          "internalType": "uint256",
          "name": "amount",
          "type": "uint256"
        }
      ],
      "name": "Allocated",
      "type": "event"
    },
    {
      "anonymous": false,
      "inputs": [
        {
          "indexed": false,
          "internalType": "address",
          "name": "user",
          "type": "address"
        },
        {
          "indexed": false,
          "internalType": "uint256",
          "name": "amount",
          "type": "uint256"
        }
      ],
      "name": "Claimed",
      "type": "event"
    },
    {
      "anonymous": false,
      "inputs": [
        {
          "indexed": false,
          "internalType": "uint256",
          "name": "amount",
          "type": "uint256"
        }
      ],
      "name": "Deposited",
      "type": "event"
    },
    {
      "anonymous": false,
      "inputs": [
        {
          "indexed": false,
          "internalType": "address",
          "name": "token",
          "type": "address"
        },
        {
          "indexed": false,
          "internalType": "address",
          "name": "to",
          "type": "address"
        },
        {
          "indexed": false,
          "internalType": "uint256",
          "name": "amount",
          "type": "uint256"
        }
      ],
      "name": "ERC20Rescued",
      "type": "event"
    },
    {
      "anonymous": false,
      "inputs": [
        {
          "indexed": false,
          "internalType": "uint256",
          "name": "time",
          "type": "uint256"
        }
      ],
      "name": "Finalized",
      "type": "event"
    },
    {
      "anonymous": false,
      "inputs": [
        {
          "indexed": false,
          "internalType": "address",
          "name": "account",
          "type": "address"
        }
      ],
      "name": "Paused",
      "type": "event"
    },
    {
      "anonymous": false,
      "inputs": [
        {
          "indexed": true,
          "internalType": "bytes32",
          "name": "role",
          "type": "bytes32"
        },
        {
          "indexed": true,
          "internalType": "bytes32",
          "name": "previousAdminRole",
          "type": "bytes32"
        },
        {
          "indexed": true,
          "internalType": "bytes32",
          "name": "newAdminRole",
          "type": "bytes32"
        }
      ],
      "name": "RoleAdminChanged",
      "type": "event"
    },
    {
      "anonymous": false,
      "inputs": [
        {
          "indexed": true,
          "internalType": "bytes32",
          "name": "role",
          "type": "bytes32"
        },
        {
          "indexed": true,
          "internalType": "address",
          "name": "account",
          "type": "address"
        },
        {
          "indexed": true,
          "internalType": "address",
          "name": "sender",
          "type": "address"
        }
      ],
      "name": "RoleGranted",
      "type": "event"
    },
    {
      "anonymous": false,
      "inputs": [
        {
          "indexed": true,
          "internalType": "bytes32",
          "name": "role",
          "type": "bytes32"
        },
        {
          "indexed": true,
          "internalType": "address",
          "name": "account",
          "type": "address"
        },
        {
          "indexed": true,
          "internalType": "address",
          "name": "sender",
          "type": "address"
        }
      ],
      "name": "RoleRevoked",
      "type": "event"
    },
    {
      "anonymous": false,
      "inputs": [
        {
          "indexed": false,
          "internalType": "address",
          "name": "account",
          "type": "address"
        }
      ],
      "name": "Unpaused",
      "type": "event"
    },
    {
      "inputs": [],
      "name": "CLIFF",
      "outputs": [
        {
          "internalType": "uint256",
          "name": "",
          "type": "uint256"
        }
      ],
      "stateMutability": "view",
      "type": "function"
    },
    {
      "inputs": [],
      "name": "DEFAULT_ADMIN_ROLE",
      "outputs": [
        {
          "internalType": "bytes32",
          "name": "",
          "type": "bytes32"
        }
      ],
      "stateMutability": "view",
      "type": "function"
    },
    {
      "inputs": [],
      "name": "DEPOSITOR_ROLE",
      "outputs": [
        {
          "internalType": "bytes32",
          "name": "",
          "type": "bytes32"
        }
      ],
      "stateMutability": "view",
      "type": "function"
    },
    {
      "inputs": [],
      "name": "GOVERNANCE_ROLE",
      "outputs": [
        {
          "internalType": "bytes32",
          "name": "",
          "type": "bytes32"
        }
      ],
      "stateMutability": "view",
      "type": "function"
    },
    {
      "inputs": [],
      "name": "LOCK_180",
      "outputs": [
        {
          "internalType": "uint256",
          "name": "",
          "type": "uint256"
        }
      ],
      "stateMutability": "view",
      "type": "function"
    },
    {
      "inputs": [],
      "name": "MONTH",
      "outputs": [
        {
          "internalType": "uint256",
          "name": "",
          "type": "uint256"
        }
      ],
      "stateMutability": "view",
      "type": "function"
    },
    {
      "inputs": [],
      "name": "STAGE_SHARE",
      "outputs": [
        {
          "internalType": "uint256",
          "name": "",
          "type": "uint256"
        }
      ],
      "stateMutability": "view",
      "type": "function"
    },
    {
      "inputs": [],
      "name": "TOTAL_STAGES",
      "outputs": [
        {
          "internalType": "uint256",
          "name": "",
          "type": "uint256"
        }
      ],
      "stateMutability": "view",
      "type": "function"
    },
    {
      "inputs": [
        {
          "internalType": "address",
          "name": "user",
          "type": "address"
        },
        {
          "internalType": "uint256",
          "name": "amount",
          "type": "uint256"
        }
      ],
      "name": "allocate",
      "outputs": [],
      "stateMutability": "nonpayable",
      "type": "function"
    },
    {
      "inputs": [],
      "name": "claim",
      "outputs": [],
      "stateMutability": "nonpayable",
      "type": "function"
    },
    {
      "inputs": [
        {
          "internalType": "uint256",
          "name": "amount",
          "type": "uint256"
        }
      ],
      "name": "deposit",
      "outputs": [],
      "stateMutability": "nonpayable",
      "type": "function"
    },
    {
      "inputs": [],
      "name": "finalize",
      "outputs": [],
      "stateMutability": "nonpayable",
      "type": "function"
    },
    {
      "inputs": [],
      "name": "finalized",
      "outputs": [
        {
          "internalType": "bool",
          "name": "",
          "type": "bool"
        }
      ],
      "stateMutability": "view",
      "type": "function"
    },
    {
      "inputs": [
        {
          "internalType": "bytes32",
          "name": "role",
          "type": "bytes32"
        }
      ],
      "name": "getRoleAdmin",
      "outputs": [
        {
          "internalType": "bytes32",
          "name": "",
          "type": "bytes32"
        }
      ],
      "stateMutability": "view",
      "type": "function"
    },
    {
      "inputs": [],
      "name": "govStart",
      "outputs": [
        {
          "internalType": "uint256",
          "name": "",
          "type": "uint256"
        }
      ],
      "stateMutability": "view",
      "type": "function"
    },
    {
      "inputs": [
        {
          "internalType": "bytes32",
          "name": "role",
          "type": "bytes32"
        },
        {
          "internalType": "address",
          "name": "account",
          "type": "address"
        }
      ],
      "name": "grantRole",
      "outputs": [],
      "stateMutability": "nonpayable",
      "type": "function"
    },
    {
      "inputs": [
        {
          "internalType": "bytes32",
          "name": "role",
          "type": "bytes32"
        },
        {
          "internalType": "address",
          "name": "account",
          "type": "address"
        }
      ],
      "name": "hasRole",
      "outputs": [
        {
          "internalType": "bool",
          "name": "",
          "type": "bool"
        }
      ],
      "stateMutability": "view",
      "type": "function"
    },
    {
      "inputs": [],
      "name": "paused",
      "outputs": [
        {
          "internalType": "bool",
          "name": "",
          "type": "bool"
        }
      ],
      "stateMutability": "view",
      "type": "function"
    },
    {
      "inputs": [
        {
          "internalType": "address",
          "name": "user",
          "type": "address"
        }
      ],
      "name": "releasable",
      "outputs": [
        {
          "internalType": "uint256",
          "name": "",
          "type": "uint256"
        }
      ],
      "stateMutability": "view",
      "type": "function"
    },
    {
      "inputs": [
        {
          "internalType": "bytes32",
          "name": "role",
          "type": "bytes32"
        },
        {
          "internalType": "address",
          "name": "account",
          "type": "address"
        }
      ],
      "name": "renounceRole",
      "outputs": [],
      "stateMutability": "nonpayable",
      "type": "function"
    },
    {
      "inputs": [
        {
          "internalType": "address",
          "name": "erc20",
          "type": "address"
        },
        {
          "internalType": "address",
          "name": "to",
          "type": "address"
        },
        {
          "internalType": "uint256",
          "name": "amount",
          "type": "uint256"
        }
      ],
      "name": "rescueERC20",
      "outputs": [],
      "stateMutability": "nonpayable",
      "type": "function"
    },
    {
      "inputs": [
        {
          "internalType": "bytes32",
          "name": "role",
          "type": "bytes32"
        },
        {
          "internalType": "address",
          "name": "account",
          "type": "address"
        }
      ],
      "name": "revokeRole",
      "outputs": [],
      "stateMutability": "nonpayable",
      "type": "function"
    },
    {
      "inputs": [],
      "name": "startTime",
      "outputs": [
        {
          "internalType": "uint256",
          "name": "",
          "type": "uint256"
        }
      ],
      "stateMutability": "view",
      "type": "function"
    },
    {
      "inputs": [
        {
          "internalType": "bytes4",
          "name": "interfaceId",
          "type": "bytes4"
        }
      ],
      "name": "supportsInterface",
      "outputs": [
        {
          "internalType": "bool",
          "name": "",
          "type": "bool"
        }
      ],
      "stateMutability": "view",
      "type": "function"
    },
    {
      "inputs": [],
      "name": "token",
      "outputs": [
        {
          "internalType": "contract IERC20",
          "name": "",
          "type": "address"
        }
      ],
      "stateMutability": "view",
      "type": "function"
    },
    {
      "inputs": [],
      "name": "totalAllocated",
      "outputs": [
        {
          "internalType": "uint256",
          "name": "",
          "type": "uint256"
        }
      ],
      "stateMutability": "view",
      "type": "function"
    },
    {
      "inputs": [],
      "name": "totalClaimed",
      "outputs": [
        {
          "internalType": "uint256",
          "name": "",
          "type": "uint256"
        }
      ],
      "stateMutability": "view",
      "type": "function"
    },
    {
      "inputs": [],
      "name": "treasury",
      "outputs": [
        {
          "internalType": "address",
          "name": "",
          "type": "address"
        }
      ],
      "stateMutability": "view",
      "type": "function"
    },
    {
      "inputs": [
        {
          "internalType": "address",
          "name": "",
          "type": "address"
        }
      ],
      "name": "vesting",
      "outputs": [
        {
          "internalType": "uint256",
          "name": "total",
          "type": "uint256"
        },
        {
          "internalType": "uint256",
          "name": "claimed",
          "type": "uint256"
        }
      ],
      "stateMutability": "view",
      "type": "function"
    }
  ],
  "bytecode": "0x610100604052348015610010575f5ffd5b506040516114c03803806114c083398101604081905261002f916101bf565b60017f9b779b17422d0df92223018b32b4d1fa46e071723d6817e2486d003becc55f00556001600160a01b038416158061007057506001600160a01b038316155b8061008257506001600160a01b038216155b156100a05760405163d92e233d60e01b815260040160405180910390fd5b6001600160a01b03808516608052831660a05260c08190524260e0526100c65f836100fb565b506100f17f71840dc4906352362b0cdaf79870196c8e42acafade72d5d5a6d59291253ceb1836100fb565b5050505050610207565b5f828152602081815260408083206001600160a01b038516845290915281205460ff1661019b575f838152602081815260408083206001600160a01b03861684529091529020805460ff191660011790556101533390565b6001600160a01b0316826001600160a01b0316847f2f8788117e7eff1d82e926ec794901d17c78024a50270940304540a733656f0d60405160405180910390a450600161019e565b505f5b92915050565b80516001600160a01b03811681146101ba575f5ffd5b919050565b5f5f5f5f608085870312156101d2575f5ffd5b6101db856101a4565b93506101e9602086016101a4565b92506101f7604086016101a4565b6060959095015193969295505050565b60805160a05160c05160e05161125561026b5f395f81816102eb0152818161055b0152610bcd01525f81816102c4015281816106330152610cdf01525f61028501525f818161042e015281816106e1015281816108f60152610a4201526112555ff3fe608060405234801561000f575f5ffd5b50600436106101c6575f3560e01c8063a217fddf116100fe578063b87592f21161009e578063ddb619ab1161006e578063ddb619ab146103d2578063e388c423146103da578063f36c8f5c14610415578063fc0c546a14610429575f5ffd5b8063b87592f21461023f578063d547741f146103ac578063d54ad2a1146103bf578063d5999a5c146103c8575f5ffd5b8063b2118a8d116100d9578063b2118a8d14610361578063b3f05b9714610374578063b6b55f2514610386578063b78b52df14610399575f5ffd5b8063a217fddf14610320578063a3b0b5a314610327578063a3f8eace1461034e575f5ffd5b80634bb278f31161016957806361d027b31161014457806361d027b31461028057806378e97925146102bf5780638a0344e4146102e657806391d148541461030d575f5ffd5b80634bb278f3146102655780634e71d92d1461026d5780635c975abb14610275575f5ffd5b80632f2ff15d116101a45780632f2ff15d1461022a5780633571cddc1461023f57806336568abe1461024957806345f7f2491461025c575f5ffd5b806301ffc9a7146101ca5780630bf0b010146101f2578063248a9ca314610208575b5f5ffd5b6101dd6101d8366004611073565b610450565b60405190151581526020015b60405180910390f35b6101fa601981565b6040519081526020016101e9565b6101fa6102163660046110a1565b5f9081526020819052604090206001015490565b61023d6102383660046110d3565b610486565b005b6101fa62ed4e0081565b61023d6102573660046110d3565b6104ee565b6101fa60035481565b61023d61051e565b61023d6105ea565b60015460ff166101dd565b6102a77f000000000000000000000000000000000000000000000000000000000000000081565b6040516001600160a01b0390911681526020016101e9565b6101fa7f000000000000000000000000000000000000000000000000000000000000000081565b6101fa7f000000000000000000000000000000000000000000000000000000000000000081565b6101dd61031b3660046110d3565b61076e565b6101fa5f81565b6101fa7f8f4f2da22e8ac8f11e15f9fc141cddbb5deea8800186560abb6e68c5496619a981565b6101fa61035c3660046110fd565b610796565b61023d61036f366004611116565b6107a0565b6001546101dd90610100900460ff1681565b61023d6103943660046110a1565b610880565b61023d6103a7366004611150565b610954565b61023d6103ba3660046110d3565b610b4d565b6101fa60045481565b6101fa62278d0081565b6101fa600481565b6104006103e83660046110fd565b60026020525f90815260409020805460019091015482565b604080519283526020830191909152016101e9565b6101fa5f5160206112005f395f51905f5281565b6102a77f000000000000000000000000000000000000000000000000000000000000000081565b5f6001600160e01b03198216637965db0b60e01b148061048057506301ffc9a760e01b6001600160e01b03198316145b92915050565b61049d5f5160206112005f395f51905f523361076e565b6104ba5760405163ea8e4eb560e01b815260040160405180910390fd5b6104c2610bb1565b156104e0576040516363cc0da360e01b815260040160405180910390fd5b6104ea8282610bfa565b5050565b6104f6610bb1565b15610514576040516363cc0da360e01b815260040160405180910390fd5b6104ea8282610c24565b6105355f5160206112005f395f51905f523361076e565b6105525760405163ea8e4eb560e01b815260040160405180910390fd5b61057f62ed4e007f000000000000000000000000000000000000000000000000000000000000000061118c565b42101561059f576040516363cc0da360e01b815260040160405180910390fd5b6001805461ff0019166101001790556040517f839cf22e1ba87ce2f5b9bbf46cf0175a09eed52febdfaac8852478e68203c763906105e09042815260200190565b60405180910390a1565b6105f2610c5c565b6105fa610c8a565b335f908152600260205260408120805490910361062a57604051632fc532ad60e11b815260040160405180910390fd5b61065762ed4e007f000000000000000000000000000000000000000000000000000000000000000061118c565b4210156106775760405163392a328760e01b815260040160405180910390fd5b5f61068133610cae565b9050805f036106a3576040516312d37ee560e31b815260040160405180910390fd5b80826001015f8282546106b6919061118c565b925050819055508060045f8282546106ce919061118c565b9091555061070890506001600160a01b037f0000000000000000000000000000000000000000000000000000000000000000163383610d90565b60408051338152602081018390527fd8138f8a3f377c5259ca548e70e4c2de94f129f5a11036a15b69513cba2b426a910160405180910390a1505061076c60017f9b779b17422d0df92223018b32b4d1fa46e071723d6817e2486d003becc55f0055565b565b5f918252602082815260408084206001600160a01b0393909316845291905290205460ff1690565b5f61048082610cae565b6107b75f5160206112005f395f51905f523361076e565b6107d45760405163ea8e4eb560e01b815260040160405180910390fd5b6001600160a01b0382166107fb5760405163d92e233d60e01b815260040160405180910390fd5b805f0361081b5760405163162908e360e11b815260040160405180910390fd5b61082f6001600160a01b0384168383610d90565b604080516001600160a01b038086168252841660208201529081018290527f8bbfbb5d7fcacf6fc74005cdede0635561638507f576c95f7f294c22141be2e5906060015b60405180910390a1505050565b6108975f5160206112005f395f51905f523361076e565b1580156108cb57506108c97f8f4f2da22e8ac8f11e15f9fc141cddbb5deea8800186560abb6e68c5496619a93361076e565b155b156108e95760405163ea8e4eb560e01b815260040160405180910390fd5b61091e6001600160a01b037f000000000000000000000000000000000000000000000000000000000000000016333084610dca565b6040518181527f2a89b2e3d580398d6dc2db5e0f336b52602bbaa51afa9bb5cdf59239cf0d2bea9060200160405180910390a150565b61096b5f5160206112005f395f51905f523361076e565b15801561099f575061099d7f8f4f2da22e8ac8f11e15f9fc141cddbb5deea8800186560abb6e68c5496619a93361076e565b155b156109bd5760405163ea8e4eb560e01b815260040160405180910390fd5b6001600160a01b0382166109e45760405163d92e233d60e01b815260040160405180910390fd5b805f03610a045760405163162908e360e11b815260040160405180910390fd5b5f60045482600354610a16919061118c565b610a20919061119f565b6040516370a0823160e01b815230600482015290915081906001600160a01b037f000000000000000000000000000000000000000000000000000000000000000016906370a0823190602401602060405180830381865afa158015610a87573d5f5f3e3d5ffd5b505050506040513d601f19601f82011682018060405250810190610aab91906111b2565b1015610aca57604051631e9acf1760e31b815260040160405180910390fd5b6001600160a01b0383165f9081526002602052604081208054849290610af190849061118c565b925050819055508160035f828254610b09919061118c565b9091555050604080516001600160a01b0385168152602081018490527f472f36e28bb47edb7c69c9e2ac00a77c66b505df54e9c818ac57110b0629e8c39101610873565b610b645f5160206112005f395f51905f523361076e565b610b815760405163ea8e4eb560e01b815260040160405180910390fd5b610b89610bb1565b15610ba7576040516363cc0da360e01b815260040160405180910390fd5b6104ea8282610e00565b6001545f90610100900460ff1680610bf55750610bf162ed4e007f000000000000000000000000000000000000000000000000000000000000000061118c565b4210155b905090565b5f82815260208190526040902060010154610c1481610e24565b610c1e8383610e31565b50505050565b6001600160a01b0381163314610c4d5760405163334bd91960e11b815260040160405180910390fd5b610c578282610ec0565b505050565b610c64610f29565b60027f9b779b17422d0df92223018b32b4d1fa46e071723d6817e2486d003becc55f0055565b60015460ff161561076c5760405163d93c066560e01b815260040160405180910390fd5b6001600160a01b0381165f90815260026020526040812080548203610cd557505f92915050565b5f610d0362ed4e007f000000000000000000000000000000000000000000000000000000000000000061118c565b610d0d904261119f565b90505f610d1d62278d00836111c9565b610d2890600161118c565b90506004811115610d37575060045b5f6064601983865f0154610d4b91906111e8565b610d5591906111e8565b610d5f91906111c9565b905083600101548111610d7757505f95945050505050565b6001840154610d86908261119f565b9695505050505050565b610d9d8383836001610f6b565b610c5757604051635274afe760e01b81526001600160a01b03841660048201526024015b60405180910390fd5b610dd8848484846001610fcd565b610c1e57604051635274afe760e01b81526001600160a01b0385166004820152602401610dc1565b5f82815260208190526040902060010154610e1a81610e24565b610c1e8383610ec0565b610e2e813361103a565b50565b5f610e3c838361076e565b610eb9575f838152602081815260408083206001600160a01b03861684529091529020805460ff19166001179055610e713390565b6001600160a01b0316826001600160a01b0316847f2f8788117e7eff1d82e926ec794901d17c78024a50270940304540a733656f0d60405160405180910390a4506001610480565b505f610480565b5f610ecb838361076e565b15610eb9575f838152602081815260408083206001600160a01b0386168085529252808320805460ff1916905551339286917ff6391f5c32d9c69d2a47ea670b442974b53935d1edc7fd64eb21e047a839171b9190a4506001610480565b7f9b779b17422d0df92223018b32b4d1fa46e071723d6817e2486d003becc55f005460020361076c57604051633ee5aeb560e01b815260040160405180910390fd5b60405163a9059cbb60e01b5f8181526001600160a01b038616600452602485905291602083604481808b5af1925060015f51148316610fc1578383151615610fb5573d5f823e3d81fd5b5f873b113d1516831692505b60405250949350505050565b6040516323b872dd60e01b5f8181526001600160a01b038781166004528616602452604485905291602083606481808c5af1925060015f5114831661102957838315161561101d573d5f823e3d81fd5b5f883b113d1516831692505b604052505f60605295945050505050565b611044828261076e565b6104ea5760405163e2517d3f60e01b81526001600160a01b038216600482015260248101839052604401610dc1565b5f60208284031215611083575f5ffd5b81356001600160e01b03198116811461109a575f5ffd5b9392505050565b5f602082840312156110b1575f5ffd5b5035919050565b80356001600160a01b03811681146110ce575f5ffd5b919050565b5f5f604083850312156110e4575f5ffd5b823591506110f4602084016110b8565b90509250929050565b5f6020828403121561110d575f5ffd5b61109a826110b8565b5f5f5f60608486031215611128575f5ffd5b611131846110b8565b925061113f602085016110b8565b929592945050506040919091013590565b5f5f60408385031215611161575f5ffd5b61116a836110b8565b946020939093013593505050565b634e487b7160e01b5f52601160045260245ffd5b8082018082111561048057610480611178565b8181038181111561048057610480611178565b5f602082840312156111c2575f5ffd5b5051919050565b5f826111e357634e487b7160e01b5f52601260045260245ffd5b500490565b80820281158282048414176104805761048061117856fe71840dc4906352362b0cdaf79870196c8e42acafade72d5d5a6d59291253ceb1a264697066735822122071942289a53f92d0e55a92ee0ffcc0da3053c0d2e2110d919c645ffa430e859964736f6c634300081b0033",
  "linkReferences": {},
  "deployedLinkReferences": {}
}